{
  "contractName": "Marketplace",
  "abi": [
    {
      "inputs": [],
      "stateMutability": "nonpayable",
      "type": "constructor"
    },
    {
      "anonymous": false,
      "inputs": [
        {
          "indexed": true,
          "internalType": "uint256",
          "name": "index",
          "type": "uint256"
        },
        {
          "indexed": true,
          "internalType": "address",
          "name": "currency",
          "type": "address"
        }
      ],
      "name": "AddedWhitelist",
      "type": "event"
    },
    {
      "anonymous": false,
      "inputs": [
        {
          "indexed": true,
          "internalType": "address",
          "name": "buyer",
          "type": "address"
        },
        {
          "indexed": true,
          "internalType": "uint256",
          "name": "itemIndex",
          "type": "uint256"
        }
      ],
      "name": "BoughtNFT",
      "type": "event"
    },
    {
      "anonymous": false,
      "inputs": [
        {
          "indexed": true,
          "internalType": "uint256",
          "name": "itemIndex",
          "type": "uint256"
        },
        {
          "indexed": true,
          "internalType": "address",
          "name": "assetContract",
          "type": "address"
        },
        {
          "indexed": true,
          "internalType": "uint256",
          "name": "tokenId",
          "type": "uint256"
        }
      ],
      "name": "ListedNFT",
      "type": "event"
    },
    {
      "anonymous": false,
      "inputs": [
        {
          "indexed": true,
          "internalType": "address",
          "name": "previousOwner",
          "type": "address"
        },
        {
          "indexed": true,
          "internalType": "address",
          "name": "newOwner",
          "type": "address"
        }
      ],
      "name": "OwnershipTransferred",
      "type": "event"
    },
    {
      "anonymous": false,
      "inputs": [
        {
          "indexed": true,
          "internalType": "uint256",
          "name": "itemIndex",
          "type": "uint256"
        },
        {
          "indexed": true,
          "internalType": "address",
          "name": "assetContract",
          "type": "address"
        },
        {
          "indexed": true,
          "internalType": "uint256",
          "name": "tokenId",
          "type": "uint256"
        }
      ],
      "name": "UnlistedNFT",
      "type": "event"
    },
    {
      "anonymous": false,
      "inputs": [
        {
          "indexed": true,
          "internalType": "uint256",
          "name": "index",
          "type": "uint256"
        },
        {
          "indexed": true,
          "internalType": "address",
          "name": "currency",
          "type": "address"
        },
        {
          "indexed": false,
          "internalType": "bool",
          "name": "isAvailable",
          "type": "bool"
        }
      ],
      "name": "UpdatedWhitelist",
      "type": "event"
    },
    {
      "inputs": [
        {
          "internalType": "address",
          "name": "currency",
          "type": "address"
        }
      ],
      "name": "addWhitelist",
      "outputs": [],
      "stateMutability": "nonpayable",
      "type": "function"
    },
    {
      "inputs": [],
      "name": "getWhitelist",
      "outputs": [
        {
          "components": [
            {
              "internalType": "uint256",
              "name": "index",
              "type": "uint256"
            },
            {
              "internalType": "address",
              "name": "currencyAddress",
              "type": "address"
            },
            {
              "internalType": "bool",
              "name": "isAvailable",
              "type": "bool"
            }
          ],
          "internalType": "struct TransferExecutor.PaymentCurrency[]",
          "name": "whitelist",
          "type": "tuple[]"
        }
      ],
      "stateMutability": "view",
      "type": "function",
      "constant": true
    },
    {
      "inputs": [
        {
          "internalType": "address",
          "name": "currency",
          "type": "address"
        }
      ],
      "name": "isAvailable",
      "outputs": [
        {
          "internalType": "bool",
          "name": "",
          "type": "bool"
        }
      ],
      "stateMutability": "view",
      "type": "function",
      "constant": true
    },
    {
      "inputs": [
        {
          "internalType": "bytes32",
          "name": "",
          "type": "bytes32"
        }
      ],
      "name": "listings",
      "outputs": [
        {
          "internalType": "uint256",
          "name": "",
          "type": "uint256"
        }
      ],
      "stateMutability": "view",
      "type": "function",
      "constant": true
    },
    {
      "inputs": [
        {
          "internalType": "uint256",
          "name": "",
          "type": "uint256"
        }
      ],
      "name": "marketItems",
      "outputs": [
        {
          "internalType": "uint256",
          "name": "itemIndex",
          "type": "uint256"
        },
        {
          "internalType": "address",
          "name": "seller",
          "type": "address"
        },
        {
          "internalType": "address",
          "name": "assetContract",
          "type": "address"
        },
        {
          "internalType": "uint256",
          "name": "tokenId",
          "type": "uint256"
        },
        {
          "internalType": "address",
          "name": "currency",
          "type": "address"
        },
        {
          "internalType": "uint256",
          "name": "price",
          "type": "uint256"
        },
        {
          "internalType": "uint256",
          "name": "saleStart",
          "type": "uint256"
        },
        {
          "internalType": "uint256",
          "name": "saleEnd",
          "type": "uint256"
        }
      ],
      "stateMutability": "view",
      "type": "function",
      "constant": true
    },
    {
      "inputs": [
        {
          "internalType": "address",
          "name": "",
          "type": "address"
        },
        {
          "internalType": "address",
          "name": "",
          "type": "address"
        },
        {
          "internalType": "uint256",
          "name": "",
          "type": "uint256"
        },
        {
          "internalType": "bytes",
          "name": "",
          "type": "bytes"
        }
      ],
      "name": "onERC721Received",
      "outputs": [
        {
          "internalType": "bytes4",
          "name": "",
          "type": "bytes4"
        }
      ],
      "stateMutability": "nonpayable",
      "type": "function"
    },
    {
      "inputs": [],
      "name": "owner",
      "outputs": [
        {
          "internalType": "address",
          "name": "",
          "type": "address"
        }
      ],
      "stateMutability": "view",
      "type": "function",
      "constant": true
    },
    {
      "inputs": [],
      "name": "renounceOwnership",
      "outputs": [],
      "stateMutability": "nonpayable",
      "type": "function"
    },
    {
      "inputs": [
        {
          "internalType": "address",
          "name": "newOwner",
          "type": "address"
        }
      ],
      "name": "transferOwnership",
      "outputs": [],
      "stateMutability": "nonpayable",
      "type": "function"
    },
    {
      "inputs": [
        {
          "internalType": "uint256",
          "name": "index",
          "type": "uint256"
        },
        {
          "internalType": "bool",
          "name": "_isAvailable",
          "type": "bool"
        }
      ],
      "name": "updateWhitelist",
      "outputs": [],
      "stateMutability": "nonpayable",
      "type": "function"
    },
    {
      "inputs": [
        {
          "internalType": "address",
          "name": "assetContract",
          "type": "address"
        },
        {
          "internalType": "uint256",
          "name": "tokenId",
          "type": "uint256"
        },
        {
          "internalType": "address",
          "name": "currency",
          "type": "address"
        },
        {
          "internalType": "uint256",
          "name": "price",
          "type": "uint256"
        },
        {
          "internalType": "uint256",
          "name": "saleStart",
          "type": "uint256"
        },
        {
          "internalType": "uint256",
          "name": "saleEnd",
          "type": "uint256"
        }
      ],
      "name": "listNft",
      "outputs": [],
      "stateMutability": "nonpayable",
      "type": "function"
    },
    {
      "inputs": [
        {
          "internalType": "uint256",
          "name": "itemIndex",
          "type": "uint256"
        }
      ],
      "name": "unlistNft",
      "outputs": [],
      "stateMutability": "nonpayable",
      "type": "function"
    },
    {
      "inputs": [
        {
          "internalType": "uint256",
          "name": "itemIndex",
          "type": "uint256"
        }
      ],
      "name": "buy",
      "outputs": [],
      "stateMutability": "nonpayable",
      "type": "function"
    },
    {
      "inputs": [],
      "name": "getAllItems",
      "outputs": [
        {
          "components": [
            {
              "internalType": "uint256",
              "name": "itemIndex",
              "type": "uint256"
            },
            {
              "internalType": "address",
              "name": "seller",
              "type": "address"
            },
            {
              "internalType": "address",
              "name": "assetContract",
              "type": "address"
            },
            {
              "internalType": "uint256",
              "name": "tokenId",
              "type": "uint256"
            },
            {
              "internalType": "address",
              "name": "currency",
              "type": "address"
            },
            {
              "internalType": "uint256",
              "name": "price",
              "type": "uint256"
            },
            {
              "internalType": "uint256",
              "name": "saleStart",
              "type": "uint256"
            },
            {
              "internalType": "uint256",
              "name": "saleEnd",
              "type": "uint256"
            }
          ],
          "internalType": "struct Marketplace.MarketItem[]",
          "name": "items",
          "type": "tuple[]"
        }
      ],
      "stateMutability": "view",
      "type": "function",
      "constant": true
    },
    {
      "inputs": [
        {
          "internalType": "address",
          "name": "seller",
          "type": "address"
        }
      ],
      "name": "getItemsBySeller",
      "outputs": [
        {
          "components": [
            {
              "internalType": "uint256",
              "name": "itemIndex",
              "type": "uint256"
            },
            {
              "internalType": "address",
              "name": "seller",
              "type": "address"
            },
            {
              "internalType": "address",
              "name": "assetContract",
              "type": "address"
            },
            {
              "internalType": "uint256",
              "name": "tokenId",
              "type": "uint256"
            },
            {
              "internalType": "address",
              "name": "currency",
              "type": "address"
            },
            {
              "internalType": "uint256",
              "name": "price",
              "type": "uint256"
            },
            {
              "internalType": "uint256",
              "name": "saleStart",
              "type": "uint256"
            },
            {
              "internalType": "uint256",
              "name": "saleEnd",
              "type": "uint256"
            }
          ],
          "internalType": "struct Marketplace.MarketItem[]",
          "name": "items",
          "type": "tuple[]"
        }
      ],
      "stateMutability": "view",
      "type": "function",
      "constant": true
    }
  ],
  "bytecode": "0x60806040523480156200001157600080fd5b5060016000819055506200003a6200002e6200005260201b60201c565b6200005a60201b60201c565b6200004c60006200012060201b60201c565b62000279565b600033905090565b6000600160009054906101000a900473ffffffffffffffffffffffffffffffffffffffff16905081600160006101000a81548173ffffffffffffffffffffffffffffffffffffffff021916908373ffffffffffffffffffffffffffffffffffffffff1602179055508173ffffffffffffffffffffffffffffffffffffffff168173ffffffffffffffffffffffffffffffffffffffff167f8be0079c531659141344cd1fd0a4f28419497f9722a3daafe3b4186f6b6457e060405160405180910390a35050565b60006200013960026200025560201b6200244e1760201c565b905060405180606001604052808281526020018373ffffffffffffffffffffffffffffffffffffffff16815260200160011515815250600360008381526020019081526020016000206000820151816000015560208201518160010160006101000a81548173ffffffffffffffffffffffffffffffffffffffff021916908373ffffffffffffffffffffffffffffffffffffffff16021790555060408201518160010160146101000a81548160ff0219169083151502179055509050506200020d60026200026360201b6200245c1760201c565b8173ffffffffffffffffffffffffffffffffffffffff16817fb2760a271cede39b7df6c9c00b82b20a64f6dcddec53762dd0da9be314a6a9cb60405160405180910390a35050565b600081600001549050919050565b6001816000016000828254019250508190555050565b613ad180620002896000396000f3fe608060405234801561001057600080fd5b50600436106100f55760003560e01c80639e75689c11610097578063d01f63f511610066578063d01f63f51461028b578063d96a094a146102a9578063f2fde38b146102c5578063f80f5dd5146102e1576100f5565b80639e75689c14610207578063a19b80d314610223578063c18b8db41461023f578063c8b273491461026f576100f5565b80634ba1d6aa116100d35780634ba1d6aa1461018a57806351f28e14146101a8578063715018a6146101df5780638da5cb5b146101e9576100f5565b8063150b7a02146100fa5780632896f60b1461012a57806349bf3efb1461015a575b600080fd5b610114600480360381019061010f91906129fa565b6102fd565b6040516101219190613135565b60405180910390f35b610144600480360381019061013f91906129a8565b610311565b604051610151919061311a565b60405180910390f35b610174600480360381019061016f91906129a8565b6103f2565b60405161018191906130d6565b60405180910390f35b610192610a71565b60405161019f91906130d6565b60405180910390f35b6101c260048036038101906101bd9190612b8c565b611077565b6040516101d698979695949392919061330b565b60405180910390f35b6101e761111f565b005b6101f16111a7565b6040516101fe9190613084565b60405180910390f35b610221600480360381019061021c9190612b8c565b6111d1565b005b61023d60048036038101906102389190612ab1565b611562565b005b61025960048036038101906102549190612b63565b611b5c565b60405161026691906132f0565b60405180910390f35b61028960048036038101906102849190612bb5565b611b74565b005b610293611cca565b6040516102a091906130f8565b60405180910390f35b6102c360048036038101906102be9190612b8c565b611e56565b005b6102df60048036038101906102da91906129a8565b6122ce565b005b6102fb60048036038101906102f691906129a8565b6123c6565b005b600063150b7a0260e01b9050949350505050565b60008061031e600261244e565b905060005b818110156103e6578373ffffffffffffffffffffffffffffffffffffffff166003600083815260200190815260200160002060010160009054906101000a900473ffffffffffffffffffffffffffffffffffffffff1673ffffffffffffffffffffffffffffffffffffffff161480156103c35750600115156003600083815260200190815260200160002060010160149054906101000a900460ff161515145b156103d3576001925050506103ed565b80806103de906135de565b915050610323565b5060009150505b919050565b60606000610400600461244e565b9050600080600190505b82811161062b5760006005600083815260200190815260200160002060405180610100016040529081600082015481526020016001820160009054906101000a900473ffffffffffffffffffffffffffffffffffffffff1673ffffffffffffffffffffffffffffffffffffffff1673ffffffffffffffffffffffffffffffffffffffff1681526020016002820160009054906101000a900473ffffffffffffffffffffffffffffffffffffffff1673ffffffffffffffffffffffffffffffffffffffff1673ffffffffffffffffffffffffffffffffffffffff168152602001600382015481526020016004820160009054906101000a900473ffffffffffffffffffffffffffffffffffffffff1673ffffffffffffffffffffffffffffffffffffffff1673ffffffffffffffffffffffffffffffffffffffff16815260200160058201548152602001600682015481526020016007820154815250509050600081604001518260600151604051602001610585929190613043565b604051602081830303815290604052805190602001209050428260e001511180156105c6575060066000828152602001908152602001600020548260000151145b801561060157508673ffffffffffffffffffffffffffffffffffffffff16826020015173ffffffffffffffffffffffffffffffffffffffff16145b15610616576001846106139190613496565b93505b50508080610623906135de565b91505061040a565b508067ffffffffffffffff81111561066c577f4e487b7100000000000000000000000000000000000000000000000000000000600052604160045260246000fd5b6040519080825280602002602001820160405280156106a557816020015b6106926127ed565b81526020019060019003908161068a5790505b509250600080600190505b838111610a685760006005600083815260200190815260200160002060405180610100016040529081600082015481526020016001820160009054906101000a900473ffffffffffffffffffffffffffffffffffffffff1673ffffffffffffffffffffffffffffffffffffffff1673ffffffffffffffffffffffffffffffffffffffff1681526020016002820160009054906101000a900473ffffffffffffffffffffffffffffffffffffffff1673ffffffffffffffffffffffffffffffffffffffff1673ffffffffffffffffffffffffffffffffffffffff168152602001600382015481526020016004820160009054906101000a900473ffffffffffffffffffffffffffffffffffffffff1673ffffffffffffffffffffffffffffffffffffffff1673ffffffffffffffffffffffffffffffffffffffff1681526020016005820154815260200160068201548152602001600782015481525050905060008160400151826060015160405160200161082b929190613043565b604051602081830303815290604052805190602001209050428260e0015111801561086c575060066000828152602001908152602001600020548260000151145b80156108a757508773ffffffffffffffffffffffffffffffffffffffff16826020015173ffffffffffffffffffffffffffffffffffffffff16145b15610a53576005600084815260200190815260200160002060405180610100016040529081600082015481526020016001820160009054906101000a900473ffffffffffffffffffffffffffffffffffffffff1673ffffffffffffffffffffffffffffffffffffffff1673ffffffffffffffffffffffffffffffffffffffff1681526020016002820160009054906101000a900473ffffffffffffffffffffffffffffffffffffffff1673ffffffffffffffffffffffffffffffffffffffff1673ffffffffffffffffffffffffffffffffffffffff168152602001600382015481526020016004820160009054906101000a900473ffffffffffffffffffffffffffffffffffffffff1673ffffffffffffffffffffffffffffffffffffffff1673ffffffffffffffffffffffffffffffffffffffff1681526020016005820154815260200160068201548152602001600782015481525050878581518110610a38577f4e487b7100000000000000000000000000000000000000000000000000000000600052603260045260246000fd5b6020026020010181905250600184610a509190613496565b93505b50508080610a60906135de565b9150506106b0565b50505050919050565b60606000610a7f600461244e565b9050600080600190505b828111610c6e5760006005600083815260200190815260200160002060405180610100016040529081600082015481526020016001820160009054906101000a900473ffffffffffffffffffffffffffffffffffffffff1673ffffffffffffffffffffffffffffffffffffffff1673ffffffffffffffffffffffffffffffffffffffff1681526020016002820160009054906101000a900473ffffffffffffffffffffffffffffffffffffffff1673ffffffffffffffffffffffffffffffffffffffff1673ffffffffffffffffffffffffffffffffffffffff168152602001600382015481526020016004820160009054906101000a900473ffffffffffffffffffffffffffffffffffffffff1673ffffffffffffffffffffffffffffffffffffffff1673ffffffffffffffffffffffffffffffffffffffff16815260200160058201548152602001600682015481526020016007820154815250509050600081604001518260600151604051602001610c04929190613043565b604051602081830303815290604052805190602001209050428260e001511180610c44575060066000828152602001908152602001600020548260000151145b15610c5957600184610c569190613496565b93505b50508080610c66906135de565b915050610a89565b508067ffffffffffffffff811115610caf577f4e487b7100000000000000000000000000000000000000000000000000000000600052604160045260246000fd5b604051908082528060200260200182016040528015610ce857816020015b610cd56127ed565b815260200190600190039081610ccd5790505b509250600080600190505b8381116110705760006005600083815260200190815260200160002060405180610100016040529081600082015481526020016001820160009054906101000a900473ffffffffffffffffffffffffffffffffffffffff1673ffffffffffffffffffffffffffffffffffffffff1673ffffffffffffffffffffffffffffffffffffffff1681526020016002820160009054906101000a900473ffffffffffffffffffffffffffffffffffffffff1673ffffffffffffffffffffffffffffffffffffffff1673ffffffffffffffffffffffffffffffffffffffff168152602001600382015481526020016004820160009054906101000a900473ffffffffffffffffffffffffffffffffffffffff1673ffffffffffffffffffffffffffffffffffffffff1673ffffffffffffffffffffffffffffffffffffffff16815260200160058201548152602001600682015481526020016007820154815250509050600081604001518260600151604051602001610e6e929190613043565b604051602081830303815290604052805190602001209050428260e00151118015610eaf575060066000828152602001908152602001600020548260000151145b1561105b576005600084815260200190815260200160002060405180610100016040529081600082015481526020016001820160009054906101000a900473ffffffffffffffffffffffffffffffffffffffff1673ffffffffffffffffffffffffffffffffffffffff1673ffffffffffffffffffffffffffffffffffffffff1681526020016002820160009054906101000a900473ffffffffffffffffffffffffffffffffffffffff1673ffffffffffffffffffffffffffffffffffffffff1673ffffffffffffffffffffffffffffffffffffffff168152602001600382015481526020016004820160009054906101000a900473ffffffffffffffffffffffffffffffffffffffff1673ffffffffffffffffffffffffffffffffffffffff1673ffffffffffffffffffffffffffffffffffffffff1681526020016005820154815260200160068201548152602001600782015481525050878581518110611040577f4e487b7100000000000000000000000000000000000000000000000000000000600052603260045260246000fd5b60200260200101819052506001846110589190613496565b93505b50508080611068906135de565b915050610cf3565b5050505090565b60056020528060005260406000206000915090508060000154908060010160009054906101000a900473ffffffffffffffffffffffffffffffffffffffff16908060020160009054906101000a900473ffffffffffffffffffffffffffffffffffffffff16908060030154908060040160009054906101000a900473ffffffffffffffffffffffffffffffffffffffff16908060050154908060060154908060070154905088565b611127612472565b73ffffffffffffffffffffffffffffffffffffffff166111456111a7565b73ffffffffffffffffffffffffffffffffffffffff161461119b576040517f08c379a000000000000000000000000000000000000000000000000000000000815260040161119290613210565b60405180910390fd5b6111a5600061247a565b565b6000600160009054906101000a900473ffffffffffffffffffffffffffffffffffffffff16905090565b6111db600461244e565b81111561121d576040517f08c379a000000000000000000000000000000000000000000000000000000000815260040161121490613270565b60405180910390fd5b60006005600083815260200190815260200160002060405180610100016040529081600082015481526020016001820160009054906101000a900473ffffffffffffffffffffffffffffffffffffffff1673ffffffffffffffffffffffffffffffffffffffff1673ffffffffffffffffffffffffffffffffffffffff1681526020016002820160009054906101000a900473ffffffffffffffffffffffffffffffffffffffff1673ffffffffffffffffffffffffffffffffffffffff1673ffffffffffffffffffffffffffffffffffffffff168152602001600382015481526020016004820160009054906101000a900473ffffffffffffffffffffffffffffffffffffffff1673ffffffffffffffffffffffffffffffffffffffff1673ffffffffffffffffffffffffffffffffffffffff16815260200160058201548152602001600682015481526020016007820154815250509050600081604001518260600151604051602001611391929190613043565b604051602081830303815290604052805190602001209050600060066000838152602001908152602001600020541415611400576040517f08c379a00000000000000000000000000000000000000000000000000000000081526004016113f790613190565b60405180910390fd5b816020015173ffffffffffffffffffffffffffffffffffffffff163373ffffffffffffffffffffffffffffffffffffffff1614611472576040517f08c379a000000000000000000000000000000000000000000000000000000000815260040161146990613230565b60405180910390fd5b6000826040015190508073ffffffffffffffffffffffffffffffffffffffff166342842e0e30856020015186606001516040518463ffffffff1660e01b81526004016114c09392919061309f565b600060405180830381600087803b1580156114da57600080fd5b505af11580156114ee573d6000803e3d6000fd5b50505050600060066000848152602001908152602001600020819055508260600151836040015173ffffffffffffffffffffffffffffffffffffffff1684600001517fa91854031867c01ff8c6d177e7d62482cf06dab93205e907bc96ff373ff9276d60405160405180910390a450505050565b600260005414156115a8576040517f08c379a000000000000000000000000000000000000000000000000000000000815260040161159f906132d0565b60405180910390fd5b6002600081905550600083116115f3576040517f08c379a00000000000000000000000000000000000000000000000000000000081526004016115ea906132b0565b60405180910390fd5b808210611635576040517f08c379a000000000000000000000000000000000000000000000000000000000815260040161162c906131f0565b60405180910390fd5b6000868660405160200161164a929190613043565b60405160208183030381529060405280519060200120905060006006600083815260200190815260200160002054146116b8576040517f08c379a00000000000000000000000000000000000000000000000000000000081526004016116af90613290565b60405180910390fd5b600115156116c586610311565b151514611707576040517f08c379a00000000000000000000000000000000000000000000000000000000081526004016116fe90613150565b60405180910390fd5b600087905060008173ffffffffffffffffffffffffffffffffffffffff16636352211e896040518263ffffffff1660e01b815260040161174791906132f0565b60206040518083038186803b15801561175f57600080fd5b505afa158015611773573d6000803e3d6000fd5b505050506040513d601f19601f8201168201806040525081019061179791906129d1565b905060008273ffffffffffffffffffffffffffffffffffffffff1663081812fc8a6040518263ffffffff1660e01b81526004016117d491906132f0565b60206040518083038186803b1580156117ec57600080fd5b505afa158015611800573d6000803e3d6000fd5b505050506040513d601f19601f8201168201806040525081019061182491906129d1565b90508173ffffffffffffffffffffffffffffffffffffffff163373ffffffffffffffffffffffffffffffffffffffff16148061188b57508073ffffffffffffffffffffffffffffffffffffffff163373ffffffffffffffffffffffffffffffffffffffff16145b6118ca576040517f08c379a00000000000000000000000000000000000000000000000000000000081526004016118c1906131b0565b60405180910390fd5b6118d4600461245c565b60006118e0600461244e565b90506040518061010001604052808281526020013373ffffffffffffffffffffffffffffffffffffffff1681526020018c73ffffffffffffffffffffffffffffffffffffffff1681526020018b81526020018a73ffffffffffffffffffffffffffffffffffffffff16815260200189815260200188815260200187815250600560008381526020019081526020016000206000820151816000015560208201518160010160006101000a81548173ffffffffffffffffffffffffffffffffffffffff021916908373ffffffffffffffffffffffffffffffffffffffff16021790555060408201518160020160006101000a81548173ffffffffffffffffffffffffffffffffffffffff021916908373ffffffffffffffffffffffffffffffffffffffff1602179055506060820151816003015560808201518160040160006101000a81548173ffffffffffffffffffffffffffffffffffffffff021916908373ffffffffffffffffffffffffffffffffffffffff16021790555060a0820151816005015560c0820151816006015560e082015181600701559050508060066000878152602001908152602001600020819055508373ffffffffffffffffffffffffffffffffffffffff166342842e0e84308d6040518463ffffffff1660e01b8152600401611ad09392919061309f565b600060405180830381600087803b158015611aea57600080fd5b505af1158015611afe573d6000803e3d6000fd5b50505050898b73ffffffffffffffffffffffffffffffffffffffff16827f9b38a1b73ac8663f048cd3694ee3a188efca9dd57aa5ea17eaf329cd5e3d3cf860405160405180910390a450505050506001600081905550505050505050565b60066020528060005260406000206000915090505481565b611b7c612472565b73ffffffffffffffffffffffffffffffffffffffff16611b9a6111a7565b73ffffffffffffffffffffffffffffffffffffffff1614611bf0576040517f08c379a0000000000000000000000000000000000000000000000000000000008152600401611be790613210565b60405180910390fd5b806003600084815260200190815260200160002060010160146101000a81548160ff0219169083151502179055506003600083815260200190815260200160002060010160009054906101000a900473ffffffffffffffffffffffffffffffffffffffff1673ffffffffffffffffffffffffffffffffffffffff16827fa46b89b0bcc9f0e561748cec4b69730ca745236a36e81ed47be32f025f94daf16003600086815260200190815260200160002060010160149054906101000a900460ff16604051611cbe919061311a565b60405180910390a35050565b60606000611cd8600261244e565b90508067ffffffffffffffff811115611d1a577f4e487b7100000000000000000000000000000000000000000000000000000000600052604160045260246000fd5b604051908082528060200260200182016040528015611d5357816020015b611d40612874565b815260200190600190039081611d385790505b50915060005b81811015611e515760036000828152602001908152602001600020604051806060016040529081600082015481526020016001820160009054906101000a900473ffffffffffffffffffffffffffffffffffffffff1673ffffffffffffffffffffffffffffffffffffffff1673ffffffffffffffffffffffffffffffffffffffff1681526020016001820160149054906101000a900460ff161515151581525050838281518110611e33577f4e487b7100000000000000000000000000000000000000000000000000000000600052603260045260246000fd5b60200260200101819052508080611e49906135de565b915050611d59565b505090565b60026000541415611e9c576040517f08c379a0000000000000000000000000000000000000000000000000000000008152600401611e93906132d0565b60405180910390fd5b6002600081905550611eae600461244e565b811115611ef0576040517f08c379a0000000000000000000000000000000000000000000000000000000008152600401611ee790613270565b60405180910390fd5b60006005600083815260200190815260200160002060405180610100016040529081600082015481526020016001820160009054906101000a900473ffffffffffffffffffffffffffffffffffffffff1673ffffffffffffffffffffffffffffffffffffffff1673ffffffffffffffffffffffffffffffffffffffff1681526020016002820160009054906101000a900473ffffffffffffffffffffffffffffffffffffffff1673ffffffffffffffffffffffffffffffffffffffff1673ffffffffffffffffffffffffffffffffffffffff168152602001600382015481526020016004820160009054906101000a900473ffffffffffffffffffffffffffffffffffffffff1673ffffffffffffffffffffffffffffffffffffffff1673ffffffffffffffffffffffffffffffffffffffff168152602001600582015481526020016006820154815260200160078201548152505090508060e00151421061208d576040517f08c379a000000000000000000000000000000000000000000000000000000000815260040161208490613250565b60405180910390fd5b6000816040015182606001516040516020016120aa929190613043565b604051602081830303815290604052805190602001209050600060066000838152602001908152602001600020541415612119576040517f08c379a000000000000000000000000000000000000000000000000000000000815260040161211090613190565b60405180910390fd5b6000826040015190508073ffffffffffffffffffffffffffffffffffffffff166342842e0e303386606001516040518463ffffffff1660e01b81526004016121639392919061309f565b600060405180830381600087803b15801561217d57600080fd5b505af1158015612191573d6000803e3d6000fd5b505050506000808273ffffffffffffffffffffffffffffffffffffffff16632a55205a86606001518760a001516040518363ffffffff1660e01b81526004016121db929190613389565b604080518083038186803b1580156121f257600080fd5b505afa158015612206573d6000803e3d6000fd5b505050506040513d601f19601f8201168201806040525081019061222a9190612a75565b9150915061223e8560800151823385612540565b6122618560800151828760a0015161225691906134ec565b338860200151612540565b60006006600086815260200190815260200160002081905550853373ffffffffffffffffffffffffffffffffffffffff167f98cc0dcb37970d6ccb77508e214da5eb06dca04b81cf934ab6352701b4c996ff60405160405180910390a35050505050600160008190555050565b6122d6612472565b73ffffffffffffffffffffffffffffffffffffffff166122f46111a7565b73ffffffffffffffffffffffffffffffffffffffff161461234a576040517f08c379a000000000000000000000000000000000000000000000000000000000815260040161234190613210565b60405180910390fd5b600073ffffffffffffffffffffffffffffffffffffffff168173ffffffffffffffffffffffffffffffffffffffff1614156123ba576040517f08c379a00000000000000000000000000000000000000000000000000000000081526004016123b190613170565b60405180910390fd5b6123c38161247a565b50565b6123ce612472565b73ffffffffffffffffffffffffffffffffffffffff166123ec6111a7565b73ffffffffffffffffffffffffffffffffffffffff1614612442576040517f08c379a000000000000000000000000000000000000000000000000000000000815260040161243990613210565b60405180910390fd5b61244b81612621565b50565b600081600001549050919050565b6001816000016000828254019250508190555050565b600033905090565b6000600160009054906101000a900473ffffffffffffffffffffffffffffffffffffffff16905081600160006101000a81548173ffffffffffffffffffffffffffffffffffffffff021916908373ffffffffffffffffffffffffffffffffffffffff1602179055508173ffffffffffffffffffffffffffffffffffffffff168173ffffffffffffffffffffffffffffffffffffffff167f8be0079c531659141344cd1fd0a4f28419497f9722a3daafe3b4186f6b6457e060405160405180910390a35050565b600073ffffffffffffffffffffffffffffffffffffffff168473ffffffffffffffffffffffffffffffffffffffff1614156125845761257f838261273c565b61261b565b60008490508073ffffffffffffffffffffffffffffffffffffffff166323b872dd8484876040518463ffffffff1660e01b81526004016125c69392919061309f565b602060405180830381600087803b1580156125e057600080fd5b505af11580156125f4573d6000803e3d6000fd5b505050506040513d601f19601f820116820180604052508101906126189190612b3a565b50505b50505050565b600061262d600261244e565b905060405180606001604052808281526020018373ffffffffffffffffffffffffffffffffffffffff16815260200160011515815250600360008381526020019081526020016000206000820151816000015560208201518160010160006101000a81548173ffffffffffffffffffffffffffffffffffffffff021916908373ffffffffffffffffffffffffffffffffffffffff16021790555060408201518160010160146101000a81548160ff0219169083151502179055509050506126f4600261245c565b8173ffffffffffffffffffffffffffffffffffffffff16817fb2760a271cede39b7df6c9c00b82b20a64f6dcddec53762dd0da9be314a6a9cb60405160405180910390a35050565b60008173ffffffffffffffffffffffffffffffffffffffff16836040516127629061306f565b60006040518083038185875af1925050503d806000811461279f576040519150601f19603f3d011682016040523d82523d6000602084013e6127a4565b606091505b50509050806127e8576040517f08c379a00000000000000000000000000000000000000000000000000000000081526004016127df906131d0565b60405180910390fd5b505050565b60405180610100016040528060008152602001600073ffffffffffffffffffffffffffffffffffffffff168152602001600073ffffffffffffffffffffffffffffffffffffffff16815260200160008152602001600073ffffffffffffffffffffffffffffffffffffffff1681526020016000815260200160008152602001600081525090565b604051806060016040528060008152602001600073ffffffffffffffffffffffffffffffffffffffff1681526020016000151581525090565b60006128c06128bb846133d7565b6133b2565b9050828152602081018484840111156128d857600080fd5b6128e384828561359e565b509392505050565b6000813590506128fa81613a3f565b92915050565b60008151905061290f81613a3f565b92915050565b60008135905061292481613a56565b92915050565b60008151905061293981613a56565b92915050565b60008135905061294e81613a6d565b92915050565b600082601f83011261296557600080fd5b81356129758482602086016128ad565b91505092915050565b60008135905061298d81613a84565b92915050565b6000815190506129a281613a84565b92915050565b6000602082840312156129ba57600080fd5b60006129c8848285016128eb565b91505092915050565b6000602082840312156129e357600080fd5b60006129f184828501612900565b91505092915050565b60008060008060808587031215612a1057600080fd5b6000612a1e878288016128eb565b9450506020612a2f878288016128eb565b9350506040612a408782880161297e565b925050606085013567ffffffffffffffff811115612a5d57600080fd5b612a6987828801612954565b91505092959194509250565b60008060408385031215612a8857600080fd5b6000612a9685828601612900565b9250506020612aa785828601612993565b9150509250929050565b60008060008060008060c08789031215612aca57600080fd5b6000612ad889828a016128eb565b9650506020612ae989828a0161297e565b9550506040612afa89828a016128eb565b9450506060612b0b89828a0161297e565b9350506080612b1c89828a0161297e565b92505060a0612b2d89828a0161297e565b9150509295509295509295565b600060208284031215612b4c57600080fd5b6000612b5a8482850161292a565b91505092915050565b600060208284031215612b7557600080fd5b6000612b838482850161293f565b91505092915050565b600060208284031215612b9e57600080fd5b6000612bac8482850161297e565b91505092915050565b60008060408385031215612bc857600080fd5b6000612bd68582860161297e565b9250506020612be785828601612915565b9150509250929050565b6000612bfd8383612f2a565b6101008301905092915050565b6000612c168383612fcc565b60608301905092915050565b612c2b81613520565b82525050565b612c3a81613520565b82525050565b612c51612c4c82613520565b613627565b82525050565b6000612c6282613428565b612c6c8185613458565b9350612c7783613408565b8060005b83811015612ca8578151612c8f8882612bf1565b9750612c9a8361343e565b925050600181019050612c7b565b5085935050505092915050565b6000612cc082613433565b612cca8185613469565b9350612cd583613418565b8060005b83811015612d06578151612ced8882612c0a565b9750612cf88361344b565b925050600181019050612cd9565b5085935050505092915050565b612d1c81613532565b82525050565b612d2b81613532565b82525050565b612d3a81613548565b82525050565b6000612d4d602983613485565b9150612d58826136d1565b604082019050919050565b6000612d70602683613485565b9150612d7b82613720565b604082019050919050565b6000612d93602f83613485565b9150612d9e8261376f565b604082019050919050565b6000612db6603583613485565b9150612dc1826137be565b604082019050919050565b6000612dd9602e83613485565b9150612de48261380d565b604082019050919050565b6000612dfc603283613485565b9150612e078261385c565b604082019050919050565b6000612e1f602083613485565b9150612e2a826138ab565b602082019050919050565b6000612e42602183613485565b9150612e4d826138d4565b604082019050919050565b6000612e6560008361347a565b9150612e7082613923565b600082019050919050565b6000612e88601d83613485565b9150612e9382613926565b602082019050919050565b6000612eab601f83613485565b9150612eb68261394f565b602082019050919050565b6000612ece603483613485565b9150612ed982613978565b604082019050919050565b6000612ef1602683613485565b9150612efc826139c7565b604082019050919050565b6000612f14601f83613485565b9150612f1f82613a16565b602082019050919050565b61010082016000820151612f41600085018261300e565b506020820151612f546020850182612c22565b506040820151612f676040850182612c22565b506060820151612f7a606085018261300e565b506080820151612f8d6080850182612c22565b5060a0820151612fa060a085018261300e565b5060c0820151612fb360c085018261300e565b5060e0820151612fc660e085018261300e565b50505050565b606082016000820151612fe2600085018261300e565b506020820151612ff56020850182612c22565b5060408201516130086040850182612d13565b50505050565b61301781613594565b82525050565b61302681613594565b82525050565b61303d61303882613594565b61364b565b82525050565b600061304f8285612c40565b60148201915061305f828461302c565b6020820191508190509392505050565b600061307a82612e58565b9150819050919050565b60006020820190506130996000830184612c31565b92915050565b60006060820190506130b46000830186612c31565b6130c16020830185612c31565b6130ce604083018461301d565b949350505050565b600060208201905081810360008301526130f08184612c57565b905092915050565b600060208201905081810360008301526131128184612cb5565b905092915050565b600060208201905061312f6000830184612d22565b92915050565b600060208201905061314a6000830184612d31565b92915050565b6000602082019050818103600083015261316981612d40565b9050919050565b6000602082019050818103600083015261318981612d63565b9050919050565b600060208201905081810360008301526131a981612d86565b9050919050565b600060208201905081810360008301526131c981612da9565b9050919050565b600060208201905081810360008301526131e981612dcc565b9050919050565b6000602082019050818103600083015261320981612def565b9050919050565b6000602082019050818103600083015261322981612e12565b9050919050565b6000602082019050818103600083015261324981612e35565b9050919050565b6000602082019050818103600083015261326981612e7b565b9050919050565b6000602082019050818103600083015261328981612e9e565b9050919050565b600060208201905081810360008301526132a981612ec1565b9050919050565b600060208201905081810360008301526132c981612ee4565b9050919050565b600060208201905081810360008301526132e981612f07565b9050919050565b6000602082019050613305600083018461301d565b92915050565b600061010082019050613321600083018b61301d565b61332e602083018a612c31565b61333b6040830189612c31565b613348606083018861301d565b6133556080830187612c31565b61336260a083018661301d565b61336f60c083018561301d565b61337c60e083018461301d565b9998505050505050505050565b600060408201905061339e600083018561301d565b6133ab602083018461301d565b9392505050565b60006133bc6133cd565b90506133c882826135ad565b919050565b6000604051905090565b600067ffffffffffffffff8211156133f2576133f1613684565b5b6133fb826136b3565b9050602081019050919050565b6000819050602082019050919050565b6000819050602082019050919050565b600081519050919050565b600081519050919050565b6000602082019050919050565b6000602082019050919050565b600082825260208201905092915050565b600082825260208201905092915050565b600081905092915050565b600082825260208201905092915050565b60006134a182613594565b91506134ac83613594565b9250827fffffffffffffffffffffffffffffffffffffffffffffffffffffffffffffffff038211156134e1576134e0613655565b5b828201905092915050565b60006134f782613594565b915061350283613594565b92508282101561351557613514613655565b5b828203905092915050565b600061352b82613574565b9050919050565b60008115159050919050565b6000819050919050565b60007fffffffff0000000000000000000000000000000000000000000000000000000082169050919050565b600073ffffffffffffffffffffffffffffffffffffffff82169050919050565b6000819050919050565b82818337600083830152505050565b6135b6826136b3565b810181811067ffffffffffffffff821117156135d5576135d4613684565b5b80604052505050565b60006135e982613594565b91507fffffffffffffffffffffffffffffffffffffffffffffffffffffffffffffffff82141561361c5761361b613655565b5b600182019050919050565b600061363282613639565b9050919050565b6000613644826136c4565b9050919050565b6000819050919050565b7f4e487b7100000000000000000000000000000000000000000000000000000000600052601160045260246000fd5b7f4e487b7100000000000000000000000000000000000000000000000000000000600052604160045260246000fd5b6000601f19601f8301169050919050565b60008160601b9050919050565b7f4d61726b6574706c6163653a2043757272656e6379206973206e6f7420696e2060008201527f77686974656c6973740000000000000000000000000000000000000000000000602082015250565b7f4f776e61626c653a206e6577206f776e657220697320746865207a65726f206160008201527f6464726573730000000000000000000000000000000000000000000000000000602082015250565b7f4d61726b6574706c6163653a204974656d206973206e6f74206c69737465642060008201527f796574206f722077617320736f6c640000000000000000000000000000000000602082015250565b7f4d61726b6574706c6163653a2043616c6c6572206973206e6f74206f776e657260008201527f206e6f7220617070726f76656420666f7220616c6c0000000000000000000000602082015250565b7f5472616e736665724578656375746f723a204e617469766520746f6b656e207460008201527f72616e73666572206661696c6564000000000000000000000000000000000000602082015250565b7f4d61726b6574706c6163653a2053616c65207374617274206d75737420736d6160008201527f6c6c6572207468616e2073616c6520656e640000000000000000000000000000602082015250565b7f4f776e61626c653a2063616c6c6572206973206e6f7420746865206f776e6572600082015250565b7f4d61726b6574706c6163653a2043616c6c6572206973206e6f742073656c6c6560008201527f7200000000000000000000000000000000000000000000000000000000000000602082015250565b50565b7f4d61726b6574706c6163653a204974656d206861732065787069726564000000600082015250565b7f4d61726b6574706c6163653a204974656d20646f6573206e6f74206578697400600082015250565b7f4d61726b6574706c6163653a204974656d206861766520616c7265616479206c60008201527f6973746564206f6e206d61726b6574706c616365000000000000000000000000602082015250565b7f4d61726b6574706c6163653a205072696365206d75737420677265617465722060008201527f7468616e20300000000000000000000000000000000000000000000000000000602082015250565b7f5265656e7472616e637947756172643a207265656e7472616e742063616c6c00600082015250565b613a4881613520565b8114613a5357600080fd5b50565b613a5f81613532565b8114613a6a57600080fd5b50565b613a768161353e565b8114613a8157600080fd5b50565b613a8d81613594565b8114613a9857600080fd5b5056fea2646970667358221220abbc6038cdfbbb7a0f1588ae271f31090bcdcdba449b36e155d66135c48be31064736f6c63430008040033",
  "immutableReferences": {},
  "source": "// SPDX-License-Identifier: MIT\npragma solidity >=0.4.22 <0.9.0;\n\nimport \"@openzeppelin/contracts/utils/Counters.sol\";\nimport \"@openzeppelin/contracts/security/ReentrancyGuard.sol\";\nimport \"@openzeppelin/contracts/token/ERC721/utils/ERC721Holder.sol\";\nimport \"@openzeppelin/contracts/token/ERC20/IERC20.sol\";\nimport \"./NFT721.sol\";\nimport \"./TransferExecutor.sol\";\n\ncontract Marketplace is ReentrancyGuard, ERC721Holder, TransferExecutor {\n    using Counters for Counters.Counter;\n    ///@dev item index, start from 1\n    Counters.Counter private _itemIdCounter;\n    struct MarketItem {\n        uint256 itemIndex;\n        address seller;\n        address assetContract;\n        uint256 tokenId;\n        address currency; // if currency == 0x..0, it is native token\n        uint256 price;\n        uint256 saleStart;\n        uint256 saleEnd;\n    }\n\n    ///@dev itemIndex => item item\n    mapping(uint256 => MarketItem) public marketItems;\n\n    ///@dev hash(assetContract, tokenId) => listingIndex;\n    mapping(bytes32 => uint256) public listings;\n\n    event ListedNFT(uint256 indexed itemIndex, address indexed assetContract, uint256 indexed tokenId);\n    event UnlistedNFT(uint256 indexed itemIndex, address indexed assetContract, uint256 indexed tokenId);\n    event BoughtNFT(address indexed buyer, uint256 indexed itemIndex);\n\n    constructor() {}\n\n    function listNft(\n        address assetContract,\n        uint256 tokenId,\n        address currency,\n        uint256 price,\n        uint256 saleStart,\n        uint256 saleEnd\n    ) external nonReentrant {\n        require(price > 0, \"Marketplace: Price must greater than 0\");\n        require(saleStart < saleEnd, \"Marketplace: Sale start must smaller than sale end\");\n\n        bytes32 itemHash = keccak256(abi.encodePacked(assetContract, tokenId));\n        require(listings[itemHash] == 0, \"Marketplace: Item have already listed on marketplace\");\n\n        require(isAvailable(currency) == true, \"Marketplace: Currency is not in whitelist\");\n\n        NFT721 nft = NFT721(assetContract);\n        address tokenOwner = nft.ownerOf(tokenId);\n        address accountApproved = nft.getApproved(tokenId);\n        require(msg.sender == tokenOwner || msg.sender == accountApproved, \"Marketplace: Caller is not owner nor approved for all\");\n        \n        _itemIdCounter.increment();\n        uint256 itemIndex = _itemIdCounter.current();\n        marketItems[itemIndex] = MarketItem(\n            itemIndex, \n            msg.sender, \n            assetContract, \n            tokenId, \n            currency, \n            price, \n            saleStart, \n            saleEnd\n        );\n        listings[itemHash] = itemIndex;\n\n        nft.safeTransferFrom(tokenOwner, address(this), tokenId);\n\n        emit ListedNFT(itemIndex, assetContract, tokenId);\n    }\n\n    function unlistNft(uint256 itemIndex) external {\n        require(itemIndex <= _itemIdCounter.current(), \"Marketplace: Item does not exit\");\n        \n        MarketItem memory item = marketItems[itemIndex];\n        bytes32 itemHash = keccak256(abi.encodePacked(item.assetContract, item.tokenId));\n        require(listings[itemHash] != 0, \"Marketplace: Item is not listed yet or was sold\");\n        require(msg.sender == item.seller, \"Marketplace: Caller is not seller\");\n\n        NFT721 nft = NFT721(item.assetContract);\n        nft.safeTransferFrom(address(this), item.seller, item.tokenId);\n        listings[itemHash] = 0;\n\n        emit UnlistedNFT(item.itemIndex, item.assetContract, item.tokenId);\n    }\n\n    function buy(uint256 itemIndex) external nonReentrant {\n        require(itemIndex <= _itemIdCounter.current(), \"Marketplace: Item does not exit\");\n        \n        MarketItem memory item = marketItems[itemIndex];\n        require(block.timestamp < item.saleEnd, \"Marketplace: Item has expired\");\n        bytes32 itemHash = keccak256(abi.encodePacked(item.assetContract, item.tokenId));\n        require(listings[itemHash] != 0, \"Marketplace: Item is not listed yet or was sold\");\n\n        NFT721 nft = NFT721(item.assetContract);\n        nft.safeTransferFrom(address(this), msg.sender, item.tokenId);\n\n        (address receiver, uint256 royalty) = nft.royaltyInfo(item.tokenId, item.price);\n\n        ///@dev pay royalty for creator\n        _executePayment(item.currency, royalty, msg.sender, receiver);\n\n        ///@dev pay for seller\n        _executePayment(item.currency, item.price - royalty, msg.sender, item.seller);\n\n        listings[itemHash] = 0;\n\n        emit BoughtNFT(msg.sender, itemIndex);\n    }\n\n    ///@dev get all available items\n    function getAllItems() external view returns(MarketItem[] memory items) {\n        uint256 numOfItems = _itemIdCounter.current();\n        uint256 numOfAvailableItems = 0;\n\n        for(uint256 i = 1; i <= numOfItems; i++){\n            MarketItem memory item = marketItems[i];\n            bytes32 itemHash = keccak256(abi.encodePacked(item.assetContract, item.tokenId));\n           if (item.saleEnd > block.timestamp || item.itemIndex == listings[itemHash]){\n               numOfAvailableItems += 1;\n           }\n        }\n\n        items = new MarketItem[](numOfAvailableItems);\n        uint256 counter = 0;\n        for(uint256 i = 1; i <= numOfItems; i++){\n            MarketItem memory item = marketItems[i];\n            bytes32 itemHash = keccak256(abi.encodePacked(item.assetContract, item.tokenId));\n           if (item.saleEnd > block.timestamp && item.itemIndex == listings[itemHash]){\n               items[counter] = marketItems[i];\n               counter += 1;\n           }\n        }\n    }\n\n    ///@dev get all available items of `seller`\n    function getItemsBySeller(address seller) external view returns(MarketItem[] memory items){\n        uint256 numOfItems = _itemIdCounter.current();\n        uint256 numOfAvailableItems = 0;\n\n        for(uint256 i = 1; i <= numOfItems; i++){\n            MarketItem memory item = marketItems[i];\n            bytes32 itemHash = keccak256(abi.encodePacked(item.assetContract, item.tokenId));\n           if (item.saleEnd > block.timestamp && item.itemIndex == listings[itemHash] && item.seller == seller){\n               numOfAvailableItems += 1;\n           }\n        }\n\n        items = new MarketItem[](numOfAvailableItems);\n        uint256 counter = 0;\n        for(uint256 i = 1; i <= numOfItems; i++){\n            MarketItem memory item = marketItems[i];\n            bytes32 itemHash = keccak256(abi.encodePacked(item.assetContract, item.tokenId));\n           if (item.saleEnd > block.timestamp && item.itemIndex == listings[itemHash] && item.seller == seller){\n               items[counter] = marketItems[i];\n               counter += 1;\n           }\n        }\n    }\n}\n",
  "sourcePath": "/home/tannguyen/projects/nft-marketplace/truffle/contracts/Marketplace.sol",
  "compiler": {
    "name": "solc",
    "version": "0.8.4+commit.c7e474f2.Emscripten.clang"
  },
  "schemaVersion": "3.4.5",
  "updatedAt": "2022-03-01T14:02:23.898Z",
  "networkType": "ethereum",
  "devdoc": {
    "kind": "dev",
    "methods": {
      "getAllItems()": {
        "details": "get all available items"
      },
      "getItemsBySeller(address)": {
        "details": "get all available items of `seller`"
      },
      "onERC721Received(address,address,uint256,bytes)": {
        "details": "See {IERC721Receiver-onERC721Received}. Always returns `IERC721Receiver.onERC721Received.selector`."
      },
      "owner()": {
        "details": "Returns the address of the current owner."
      },
      "renounceOwnership()": {
        "details": "Leaves the contract without owner. It will not be possible to call `onlyOwner` functions anymore. Can only be called by the current owner. NOTE: Renouncing ownership will leave the contract without an owner, thereby removing any functionality that is only available to the owner."
      },
      "transferOwnership(address)": {
        "details": "Transfers ownership of the contract to a new account (`newOwner`). Can only be called by the current owner."
      }
    },
    "stateVariables": {
      "_itemIdCounter": {
        "details": "item index, start from 1"
      },
      "listings": {
        "details": "hash(assetContract, tokenId) => listingIndex;"
      },
      "marketItems": {
        "details": "itemIndex => item item"
      }
    },
    "version": 1
  },
  "userdoc": {
    "kind": "user",
    "methods": {},
    "version": 1
  }
}