{
  "contractName": "NFT721",
  "abi": [
    {
      "inputs": [],
      "stateMutability": "nonpayable",
      "type": "constructor"
    },
    {
      "anonymous": false,
      "inputs": [
        {
          "indexed": true,
          "internalType": "address",
          "name": "owner",
          "type": "address"
        },
        {
          "indexed": true,
          "internalType": "address",
          "name": "approved",
          "type": "address"
        },
        {
          "indexed": true,
          "internalType": "uint256",
          "name": "tokenId",
          "type": "uint256"
        }
      ],
      "name": "Approval",
      "type": "event"
    },
    {
      "anonymous": false,
      "inputs": [
        {
          "indexed": true,
          "internalType": "address",
          "name": "owner",
          "type": "address"
        },
        {
          "indexed": true,
          "internalType": "address",
          "name": "operator",
          "type": "address"
        },
        {
          "indexed": false,
          "internalType": "bool",
          "name": "approved",
          "type": "bool"
        }
      ],
      "name": "ApprovalForAll",
      "type": "event"
    },
    {
      "anonymous": false,
      "inputs": [
        {
          "indexed": true,
          "internalType": "address",
          "name": "previousOwner",
          "type": "address"
        },
        {
          "indexed": true,
          "internalType": "address",
          "name": "newOwner",
          "type": "address"
        }
      ],
      "name": "OwnershipTransferred",
      "type": "event"
    },
    {
      "anonymous": false,
      "inputs": [
        {
          "indexed": true,
          "internalType": "address",
          "name": "from",
          "type": "address"
        },
        {
          "indexed": true,
          "internalType": "address",
          "name": "to",
          "type": "address"
        },
        {
          "indexed": true,
          "internalType": "uint256",
          "name": "tokenId",
          "type": "uint256"
        }
      ],
      "name": "Transfer",
      "type": "event"
    },
    {
      "inputs": [
        {
          "internalType": "address",
          "name": "to",
          "type": "address"
        },
        {
          "internalType": "uint256",
          "name": "tokenId",
          "type": "uint256"
        }
      ],
      "name": "approve",
      "outputs": [],
      "stateMutability": "nonpayable",
      "type": "function"
    },
    {
      "inputs": [
        {
          "internalType": "address",
          "name": "owner",
          "type": "address"
        }
      ],
      "name": "balanceOf",
      "outputs": [
        {
          "internalType": "uint256",
          "name": "",
          "type": "uint256"
        }
      ],
      "stateMutability": "view",
      "type": "function"
    },
    {
      "inputs": [
        {
          "internalType": "uint256",
          "name": "tokenId",
          "type": "uint256"
        }
      ],
      "name": "burn",
      "outputs": [],
      "stateMutability": "nonpayable",
      "type": "function"
    },
    {
      "inputs": [
        {
          "internalType": "uint256",
          "name": "tokenId",
          "type": "uint256"
        }
      ],
      "name": "getApproved",
      "outputs": [
        {
          "internalType": "address",
          "name": "",
          "type": "address"
        }
      ],
      "stateMutability": "view",
      "type": "function"
    },
    {
      "inputs": [
        {
          "internalType": "address",
          "name": "owner",
          "type": "address"
        },
        {
          "internalType": "address",
          "name": "operator",
          "type": "address"
        }
      ],
      "name": "isApprovedForAll",
      "outputs": [
        {
          "internalType": "bool",
          "name": "",
          "type": "bool"
        }
      ],
      "stateMutability": "view",
      "type": "function"
    },
    {
      "inputs": [],
      "name": "name",
      "outputs": [
        {
          "internalType": "string",
          "name": "",
          "type": "string"
        }
      ],
      "stateMutability": "view",
      "type": "function"
    },
    {
      "inputs": [],
      "name": "owner",
      "outputs": [
        {
          "internalType": "address",
          "name": "",
          "type": "address"
        }
      ],
      "stateMutability": "view",
      "type": "function"
    },
    {
      "inputs": [
        {
          "internalType": "uint256",
          "name": "tokenId",
          "type": "uint256"
        }
      ],
      "name": "ownerOf",
      "outputs": [
        {
          "internalType": "address",
          "name": "",
          "type": "address"
        }
      ],
      "stateMutability": "view",
      "type": "function"
    },
    {
      "inputs": [],
      "name": "renounceOwnership",
      "outputs": [],
      "stateMutability": "nonpayable",
      "type": "function"
    },
    {
      "inputs": [
        {
          "internalType": "uint256",
          "name": "_tokenId",
          "type": "uint256"
        },
        {
          "internalType": "uint256",
          "name": "_salePrice",
          "type": "uint256"
        }
      ],
      "name": "royaltyInfo",
      "outputs": [
        {
          "internalType": "address",
          "name": "",
          "type": "address"
        },
        {
          "internalType": "uint256",
          "name": "",
          "type": "uint256"
        }
      ],
      "stateMutability": "view",
      "type": "function"
    },
    {
      "inputs": [
        {
          "internalType": "address",
          "name": "from",
          "type": "address"
        },
        {
          "internalType": "address",
          "name": "to",
          "type": "address"
        },
        {
          "internalType": "uint256",
          "name": "tokenId",
          "type": "uint256"
        }
      ],
      "name": "safeTransferFrom",
      "outputs": [],
      "stateMutability": "nonpayable",
      "type": "function"
    },
    {
      "inputs": [
        {
          "internalType": "address",
          "name": "from",
          "type": "address"
        },
        {
          "internalType": "address",
          "name": "to",
          "type": "address"
        },
        {
          "internalType": "uint256",
          "name": "tokenId",
          "type": "uint256"
        },
        {
          "internalType": "bytes",
          "name": "_data",
          "type": "bytes"
        }
      ],
      "name": "safeTransferFrom",
      "outputs": [],
      "stateMutability": "nonpayable",
      "type": "function"
    },
    {
      "inputs": [
        {
          "internalType": "address",
          "name": "operator",
          "type": "address"
        },
        {
          "internalType": "bool",
          "name": "approved",
          "type": "bool"
        }
      ],
      "name": "setApprovalForAll",
      "outputs": [],
      "stateMutability": "nonpayable",
      "type": "function"
    },
    {
      "inputs": [],
      "name": "symbol",
      "outputs": [
        {
          "internalType": "string",
          "name": "",
          "type": "string"
        }
      ],
      "stateMutability": "view",
      "type": "function"
    },
    {
      "inputs": [
        {
          "internalType": "address",
          "name": "from",
          "type": "address"
        },
        {
          "internalType": "address",
          "name": "to",
          "type": "address"
        },
        {
          "internalType": "uint256",
          "name": "tokenId",
          "type": "uint256"
        }
      ],
      "name": "transferFrom",
      "outputs": [],
      "stateMutability": "nonpayable",
      "type": "function"
    },
    {
      "inputs": [
        {
          "internalType": "address",
          "name": "newOwner",
          "type": "address"
        }
      ],
      "name": "transferOwnership",
      "outputs": [],
      "stateMutability": "nonpayable",
      "type": "function"
    },
    {
      "inputs": [
        {
          "internalType": "string",
          "name": "_name",
          "type": "string"
        },
        {
          "internalType": "string",
          "name": "_symbol",
          "type": "string"
        },
        {
          "internalType": "string",
          "name": "_uri",
          "type": "string"
        },
        {
          "internalType": "address",
          "name": "deployer",
          "type": "address"
        },
        {
          "internalType": "uint96",
          "name": "royalty",
          "type": "uint96"
        }
      ],
      "name": "initialize",
      "outputs": [],
      "stateMutability": "nonpayable",
      "type": "function"
    },
    {
      "inputs": [
        {
          "internalType": "address",
          "name": "to",
          "type": "address"
        },
        {
          "internalType": "string",
          "name": "uri",
          "type": "string"
        }
      ],
      "name": "safeMint",
      "outputs": [],
      "stateMutability": "nonpayable",
      "type": "function"
    },
    {
      "inputs": [
        {
          "internalType": "uint256",
          "name": "tokenId",
          "type": "uint256"
        }
      ],
      "name": "tokenURI",
      "outputs": [
        {
          "internalType": "string",
          "name": "",
          "type": "string"
        }
      ],
      "stateMutability": "view",
      "type": "function"
    },
    {
      "inputs": [
        {
          "internalType": "bytes4",
          "name": "interfaceId",
          "type": "bytes4"
        }
      ],
      "name": "supportsInterface",
      "outputs": [
        {
          "internalType": "bool",
          "name": "",
          "type": "bool"
        }
      ],
      "stateMutability": "view",
      "type": "function"
    }
  ],
  "bytecode": "0x60806040523480156200001157600080fd5b50600060019054906101000a900460ff166200003c5760008054906101000a900460ff16156200004d565b6200004c6200010960201b60201c565b5b6200008f576040517f08c379a0000000000000000000000000000000000000000000000000000000008152600401620000869062000171565b60405180910390fd5b60008060019054906101000a900460ff161590508015620000e0576001600060016101000a81548160ff02191690831515021790555060016000806101000a81548160ff0219169083151502179055505b8015620001025760008060016101000a81548160ff0219169083151502179055505b50620001f3565b600062000121306200012760201b62000f9c1760201c565b15905090565b6000808273ffffffffffffffffffffffffffffffffffffffff163b119050919050565b600062000159602e8362000193565b91506200016682620001a4565b604082019050919050565b600060208201905081810360008301526200018c816200014a565b9050919050565b600082825260208201905092915050565b7f496e697469616c697a61626c653a20636f6e747261637420697320616c72656160008201527f647920696e697469616c697a6564000000000000000000000000000000000000602082015250565b61406980620002036000396000f3fe608060405234801561001057600080fd5b506004361061012c5760003560e01c8063715018a6116100ad578063b8a6b12e11610071578063b8a6b12e1461032e578063c87b56dd1461034a578063d204c45e1461037a578063e985e9c514610396578063f2fde38b146103c65761012c565b8063715018a6146102b05780638da5cb5b146102ba57806395d89b41146102d8578063a22cb465146102f6578063b88d4fde146103125761012c565b80632a55205a116100f45780632a55205a146101e757806342842e0e1461021857806342966c68146102345780636352211e1461025057806370a08231146102805761012c565b806301ffc9a71461013157806306fdde0314610161578063081812fc1461017f578063095ea7b3146101af57806323b872dd146101cb575b600080fd5b61014b60048036038101906101469190612bb7565b6103e2565b60405161015891906131d6565b60405180910390f35b6101696103f4565b60405161017691906131f1565b60405180910390f35b61019960048036038101906101949190612cc8565b610486565b6040516101a69190613146565b60405180910390f35b6101c960048036038101906101c49190612b7b565b61050b565b005b6101e560048036038101906101e09190612a21565b610623565b005b61020160048036038101906101fc9190612cf1565b610683565b60405161020f9291906131ad565b60405180910390f35b610232600480360381019061022d9190612a21565b61086e565b005b61024e60048036038101906102499190612cc8565b61088e565b005b61026a60048036038101906102659190612cc8565b6108ea565b6040516102779190613146565b60405180910390f35b61029a600480360381019061029591906129bc565b61099c565b6040516102a791906134f3565b60405180910390f35b6102b8610a54565b005b6102c2610adc565b6040516102cf9190613146565b60405180910390f35b6102e0610b07565b6040516102ed91906131f1565b60405180910390f35b610310600480360381019061030b9190612aeb565b610b99565b005b61032c60048036038101906103279190612a70565b610baf565b005b61034860048036038101906103439190612c09565b610c11565b005b610364600480360381019061035f9190612cc8565b610d4f565b60405161037191906131f1565b60405180910390f35b610394600480360381019061038f9190612b27565b610d61565b005b6103b060048036038101906103ab91906129e5565b610e10565b6040516103bd91906131d6565b60405180910390f35b6103e060048036038101906103db91906129bc565b610ea4565b005b60006103ed82610fbf565b9050919050565b606060978054610403906137bb565b80601f016020809104026020016040519081016040528092919081815260200182805461042f906137bb565b801561047c5780601f106104515761010080835404028352916020019161047c565b820191906000526020600020905b81548152906001019060200180831161045f57829003601f168201915b5050505050905090565b600061049182610fd1565b6104d0576040517f08c379a00000000000000000000000000000000000000000000000000000000081526004016104c7906133d3565b60405180910390fd5b609b600083815260200190815260200160002060009054906101000a900473ffffffffffffffffffffffffffffffffffffffff169050919050565b6000610516826108ea565b90508073ffffffffffffffffffffffffffffffffffffffff168373ffffffffffffffffffffffffffffffffffffffff161415610587576040517f08c379a000000000000000000000000000000000000000000000000000000000815260040161057e90613433565b60405180910390fd5b8073ffffffffffffffffffffffffffffffffffffffff166105a661103d565b73ffffffffffffffffffffffffffffffffffffffff1614806105d557506105d4816105cf61103d565b610e10565b5b610614576040517f08c379a000000000000000000000000000000000000000000000000000000000815260040161060b906132f3565b60405180910390fd5b61061e8383611045565b505050565b61063461062e61103d565b826110fe565b610673576040517f08c379a000000000000000000000000000000000000000000000000000000000815260040161066a90613453565b60405180910390fd5b61067e8383836111dc565b505050565b6000806000606660008681526020019081526020016000206040518060400160405290816000820160009054906101000a900473ffffffffffffffffffffffffffffffffffffffff1673ffffffffffffffffffffffffffffffffffffffff1673ffffffffffffffffffffffffffffffffffffffff1681526020016000820160149054906101000a90046bffffffffffffffffffffffff166bffffffffffffffffffffffff166bffffffffffffffffffffffff16815250509050600073ffffffffffffffffffffffffffffffffffffffff16816000015173ffffffffffffffffffffffffffffffffffffffff1614156108195760656040518060400160405290816000820160009054906101000a900473ffffffffffffffffffffffffffffffffffffffff1673ffffffffffffffffffffffffffffffffffffffff1673ffffffffffffffffffffffffffffffffffffffff1681526020016000820160149054906101000a90046bffffffffffffffffffffffff166bffffffffffffffffffffffff166bffffffffffffffffffffffff168152505090505b6000610823611443565b6bffffffffffffffffffffffff1682602001516bffffffffffffffffffffffff168661084f919061365f565b610859919061362e565b90508160000151819350935050509250929050565b61088983838360405180602001604052806000815250610baf565b505050565b61089f61089961103d565b826110fe565b6108de576040517f08c379a00000000000000000000000000000000000000000000000000000000081526004016108d5906134b3565b60405180910390fd5b6108e78161144d565b50565b6000806099600084815260200190815260200160002060009054906101000a900473ffffffffffffffffffffffffffffffffffffffff169050600073ffffffffffffffffffffffffffffffffffffffff168173ffffffffffffffffffffffffffffffffffffffff161415610993576040517f08c379a000000000000000000000000000000000000000000000000000000000815260040161098a90613333565b60405180910390fd5b80915050919050565b60008073ffffffffffffffffffffffffffffffffffffffff168273ffffffffffffffffffffffffffffffffffffffff161415610a0d576040517f08c379a0000000000000000000000000000000000000000000000000000000008152600401610a0490613313565b60405180910390fd5b609a60008373ffffffffffffffffffffffffffffffffffffffff1673ffffffffffffffffffffffffffffffffffffffff168152602001908152602001600020549050919050565b610a5c61103d565b73ffffffffffffffffffffffffffffffffffffffff16610a7a610adc565b73ffffffffffffffffffffffffffffffffffffffff1614610ad0576040517f08c379a0000000000000000000000000000000000000000000000000000000008152600401610ac7906133f3565b60405180910390fd5b610ada6000611459565b565b600061012d60009054906101000a900473ffffffffffffffffffffffffffffffffffffffff16905090565b606060988054610b16906137bb565b80601f0160208091040260200160405190810160405280929190818152602001828054610b42906137bb565b8015610b8f5780601f10610b6457610100808354040283529160200191610b8f565b820191906000526020600020905b815481529060010190602001808311610b7257829003601f168201915b5050505050905090565b610bab610ba461103d565b8383611521565b5050565b610bc0610bba61103d565b836110fe565b610bff576040517f08c379a0000000000000000000000000000000000000000000000000000000008152600401610bf690613453565b60405180910390fd5b610c0b8484848461168e565b50505050565b600060019054906101000a900460ff16610c395760008054906101000a900460ff1615610c42565b610c416116ea565b5b610c81576040517f08c379a0000000000000000000000000000000000000000000000000000000008152600401610c7890613373565b60405180910390fd5b60008060019054906101000a900460ff161590508015610cd1576001600060016101000a81548160ff02191690831515021790555060016000806101000a81548160ff0219169083151502179055505b610cdb86866116fb565b610ce3611758565b610ceb6117a9565b610cf36117fa565b610cfb611853565b836101929080519060200190610d1292919061278b565b50610d1d83836118a4565b610d2683611459565b8015610d475760008060016101000a81548160ff0219169083151502179055505b505050505050565b6060610d5a82611a3a565b9050919050565b610d6961103d565b73ffffffffffffffffffffffffffffffffffffffff16610d87610adc565b73ffffffffffffffffffffffffffffffffffffffff1614610ddd576040517f08c379a0000000000000000000000000000000000000000000000000000000008152600401610dd4906133f3565b60405180910390fd5b6000610dea610191611b8c565b9050610df7610191611b9a565b610e018382611bb0565b610e0b8183611bce565b505050565b6000609c60008473ffffffffffffffffffffffffffffffffffffffff1673ffffffffffffffffffffffffffffffffffffffff16815260200190815260200160002060008373ffffffffffffffffffffffffffffffffffffffff1673ffffffffffffffffffffffffffffffffffffffff16815260200190815260200160002060009054906101000a900460ff16905092915050565b610eac61103d565b73ffffffffffffffffffffffffffffffffffffffff16610eca610adc565b73ffffffffffffffffffffffffffffffffffffffff1614610f20576040517f08c379a0000000000000000000000000000000000000000000000000000000008152600401610f17906133f3565b60405180910390fd5b600073ffffffffffffffffffffffffffffffffffffffff168173ffffffffffffffffffffffffffffffffffffffff161415610f90576040517f08c379a0000000000000000000000000000000000000000000000000000000008152600401610f8790613233565b60405180910390fd5b610f9981611459565b50565b6000808273ffffffffffffffffffffffffffffffffffffffff163b119050919050565b6000610fca82611c42565b9050919050565b60008073ffffffffffffffffffffffffffffffffffffffff166099600084815260200190815260200160002060009054906101000a900473ffffffffffffffffffffffffffffffffffffffff1673ffffffffffffffffffffffffffffffffffffffff1614159050919050565b600033905090565b81609b600083815260200190815260200160002060006101000a81548173ffffffffffffffffffffffffffffffffffffffff021916908373ffffffffffffffffffffffffffffffffffffffff160217905550808273ffffffffffffffffffffffffffffffffffffffff166110b8836108ea565b73ffffffffffffffffffffffffffffffffffffffff167f8c5be1e5ebec7d5bd14f71427d1e84f3dd0314c0f7b2291e5b200ac8c7c3b92560405160405180910390a45050565b600061110982610fd1565b611148576040517f08c379a000000000000000000000000000000000000000000000000000000000815260040161113f906132d3565b60405180910390fd5b6000611153836108ea565b90508073ffffffffffffffffffffffffffffffffffffffff168473ffffffffffffffffffffffffffffffffffffffff1614806111c257508373ffffffffffffffffffffffffffffffffffffffff166111aa84610486565b73ffffffffffffffffffffffffffffffffffffffff16145b806111d357506111d28185610e10565b5b91505092915050565b8273ffffffffffffffffffffffffffffffffffffffff166111fc826108ea565b73ffffffffffffffffffffffffffffffffffffffff1614611252576040517f08c379a000000000000000000000000000000000000000000000000000000000815260040161124990613253565b60405180910390fd5b600073ffffffffffffffffffffffffffffffffffffffff168273ffffffffffffffffffffffffffffffffffffffff1614156112c2576040517f08c379a00000000000000000000000000000000000000000000000000000000081526004016112b990613293565b60405180910390fd5b6112cd838383611d24565b6112d8600082611045565b6001609a60008573ffffffffffffffffffffffffffffffffffffffff1673ffffffffffffffffffffffffffffffffffffffff168152602001908152602001600020600082825461132891906136b9565b925050819055506001609a60008473ffffffffffffffffffffffffffffffffffffffff1673ffffffffffffffffffffffffffffffffffffffff168152602001908152602001600020600082825461137f91906135d8565b92505081905550816099600083815260200190815260200160002060006101000a81548173ffffffffffffffffffffffffffffffffffffffff021916908373ffffffffffffffffffffffffffffffffffffffff160217905550808273ffffffffffffffffffffffffffffffffffffffff168473ffffffffffffffffffffffffffffffffffffffff167fddf252ad1be2c89b69c2b068fc378daa952ba7f163c4a11628f55a4df523b3ef60405160405180910390a461143e838383611d29565b505050565b6000612710905090565b61145681611d2e565b50565b600061012d60009054906101000a900473ffffffffffffffffffffffffffffffffffffffff1690508161012d60006101000a81548173ffffffffffffffffffffffffffffffffffffffff021916908373ffffffffffffffffffffffffffffffffffffffff1602179055508173ffffffffffffffffffffffffffffffffffffffff168173ffffffffffffffffffffffffffffffffffffffff167f8be0079c531659141344cd1fd0a4f28419497f9722a3daafe3b4186f6b6457e060405160405180910390a35050565b8173ffffffffffffffffffffffffffffffffffffffff168373ffffffffffffffffffffffffffffffffffffffff161415611590576040517f08c379a0000000000000000000000000000000000000000000000000000000008152600401611587906132b3565b60405180910390fd5b80609c60008573ffffffffffffffffffffffffffffffffffffffff1673ffffffffffffffffffffffffffffffffffffffff16815260200190815260200160002060008473ffffffffffffffffffffffffffffffffffffffff1673ffffffffffffffffffffffffffffffffffffffff16815260200190815260200160002060006101000a81548160ff0219169083151502179055508173ffffffffffffffffffffffffffffffffffffffff168373ffffffffffffffffffffffffffffffffffffffff167f17307eab39ab6107e8899845ad3d59bd9653f200f220920489ca2b5937696c318360405161168191906131d6565b60405180910390a3505050565b6116998484846111dc565b6116a584848484611d43565b6116e4576040517f08c379a00000000000000000000000000000000000000000000000000000000081526004016116db90613213565b60405180910390fd5b50505050565b60006116f530610f9c565b15905090565b600060019054906101000a900460ff1661174a576040517f08c379a000000000000000000000000000000000000000000000000000000000815260040161174190613473565b60405180910390fd5b6117548282611eda565b5050565b600060019054906101000a900460ff166117a7576040517f08c379a000000000000000000000000000000000000000000000000000000000815260040161179e90613473565b60405180910390fd5b565b600060019054906101000a900460ff166117f8576040517f08c379a00000000000000000000000000000000000000000000000000000000081526004016117ef90613473565b60405180910390fd5b565b600060019054906101000a900460ff16611849576040517f08c379a000000000000000000000000000000000000000000000000000000000815260040161184090613473565b60405180910390fd5b611851611f5b565b565b600060019054906101000a900460ff166118a2576040517f08c379a000000000000000000000000000000000000000000000000000000000815260040161189990613473565b60405180910390fd5b565b6118ac611443565b6bffffffffffffffffffffffff16816bffffffffffffffffffffffff16111561190a576040517f08c379a000000000000000000000000000000000000000000000000000000000815260040161190190613493565b60405180910390fd5b600073ffffffffffffffffffffffffffffffffffffffff168273ffffffffffffffffffffffffffffffffffffffff16141561197a576040517f08c379a0000000000000000000000000000000000000000000000000000000008152600401611971906134d3565b60405180910390fd5b60405180604001604052808373ffffffffffffffffffffffffffffffffffffffff168152602001826bffffffffffffffffffffffff16815250606560008201518160000160006101000a81548173ffffffffffffffffffffffffffffffffffffffff021916908373ffffffffffffffffffffffffffffffffffffffff16021790555060208201518160000160146101000a8154816bffffffffffffffffffffffff02191690836bffffffffffffffffffffffff1602179055509050505050565b6060611a4582610fd1565b611a84576040517f08c379a0000000000000000000000000000000000000000000000000000000008152600401611a7b906133b3565b60405180910390fd5b600060c960008481526020019081526020016000208054611aa4906137bb565b80601f0160208091040260200160405190810160405280929190818152602001828054611ad0906137bb565b8015611b1d5780601f10611af257610100808354040283529160200191611b1d565b820191906000526020600020905b815481529060010190602001808311611b0057829003601f168201915b505050505090506000611b2e611fbc565b9050600081511415611b44578192505050611b87565b600082511115611b79578082604051602001611b61929190613122565b60405160208183030381529060405292505050611b87565b611b828461204f565b925050505b919050565b600081600001549050919050565b6001816000016000828254019250508190555050565b611bca8282604051806020016040528060008152506120f6565b5050565b611bd782610fd1565b611c16576040517f08c379a0000000000000000000000000000000000000000000000000000000008152600401611c0d90613353565b60405180910390fd5b8060c960008481526020019081526020016000209080519060200190611c3d92919061278b565b505050565b60007f80ac58cd000000000000000000000000000000000000000000000000000000007bffffffffffffffffffffffffffffffffffffffffffffffffffffffff1916827bffffffffffffffffffffffffffffffffffffffffffffffffffffffff19161480611d0d57507f5b5e139f000000000000000000000000000000000000000000000000000000007bffffffffffffffffffffffffffffffffffffffffffffffffffffffff1916827bffffffffffffffffffffffffffffffffffffffffffffffffffffffff1916145b80611d1d5750611d1c82612151565b5b9050919050565b505050565b505050565b611d37816121cb565b611d408161221e565b50565b6000611d648473ffffffffffffffffffffffffffffffffffffffff16610f9c565b15611ecd578373ffffffffffffffffffffffffffffffffffffffff1663150b7a02611d8d61103d565b8786866040518563ffffffff1660e01b8152600401611daf9493929190613161565b602060405180830381600087803b158015611dc957600080fd5b505af1925050508015611dfa57506040513d601f19601f82011682018060405250810190611df79190612be0565b60015b611e7d573d8060008114611e2a576040519150601f19603f3d011682016040523d82523d6000602084013e611e2f565b606091505b50600081511415611e75576040517f08c379a0000000000000000000000000000000000000000000000000000000008152600401611e6c90613213565b60405180910390fd5b805181602001fd5b63150b7a0260e01b7bffffffffffffffffffffffffffffffffffffffffffffffffffffffff1916817bffffffffffffffffffffffffffffffffffffffffffffffffffffffff191614915050611ed2565b600190505b949350505050565b600060019054906101000a900460ff16611f29576040517f08c379a0000000000000000000000000000000000000000000000000000000008152600401611f2090613473565b60405180910390fd5b8160979080519060200190611f3f92919061278b565b508060989080519060200190611f5692919061278b565b505050565b600060019054906101000a900460ff16611faa576040517f08c379a0000000000000000000000000000000000000000000000000000000008152600401611fa190613473565b60405180910390fd5b611fba611fb561103d565b611459565b565b60606101928054611fcc906137bb565b80601f0160208091040260200160405190810160405280929190818152602001828054611ff8906137bb565b80156120455780601f1061201a57610100808354040283529160200191612045565b820191906000526020600020905b81548152906001019060200180831161202857829003601f168201915b5050505050905090565b606061205a82610fd1565b612099576040517f08c379a000000000000000000000000000000000000000000000000000000000815260040161209090613413565b60405180910390fd5b60006120a3611fbc565b905060008151116120c357604051806020016040528060008152506120ee565b806120cd8461227d565b6040516020016120de929190613122565b6040516020818303038152906040525b915050919050565b612100838361242a565b61210d6000848484611d43565b61214c576040517f08c379a000000000000000000000000000000000000000000000000000000000815260040161214390613213565b60405180910390fd5b505050565b60007f2a55205a000000000000000000000000000000000000000000000000000000007bffffffffffffffffffffffffffffffffffffffffffffffffffffffff1916827bffffffffffffffffffffffffffffffffffffffffffffffffffffffff191614806121c457506121c382612604565b5b9050919050565b6121d48161266e565b600060c9600083815260200190815260200160002080546121f4906137bb565b90501461221b5760c96000828152602001908152602001600020600061221a9190612811565b5b50565b60666000828152602001908152602001600020600080820160006101000a81549073ffffffffffffffffffffffffffffffffffffffff02191690556000820160146101000a8154906bffffffffffffffffffffffff0219169055505050565b606060008214156122c5576040518060400160405280600181526020017f30000000000000000000000000000000000000000000000000000000000000008152509050612425565b600082905060005b600082146122f75780806122e09061381e565b915050600a826122f0919061362e565b91506122cd565b60008167ffffffffffffffff811115612339577f4e487b7100000000000000000000000000000000000000000000000000000000600052604160045260246000fd5b6040519080825280601f01601f19166020018201604052801561236b5781602001600182028036833780820191505090505b5090505b6000851461241e5760018261238491906136b9565b9150600a856123939190613867565b603061239f91906135d8565b60f81b8183815181106123db577f4e487b7100000000000000000000000000000000000000000000000000000000600052603260045260246000fd5b60200101907effffffffffffffffffffffffffffffffffffffffffffffffffffffffffffff1916908160001a905350600a85612417919061362e565b945061236f565b8093505050505b919050565b600073ffffffffffffffffffffffffffffffffffffffff168273ffffffffffffffffffffffffffffffffffffffff16141561249a576040517f08c379a000000000000000000000000000000000000000000000000000000000815260040161249190613393565b60405180910390fd5b6124a381610fd1565b156124e3576040517f08c379a00000000000000000000000000000000000000000000000000000000081526004016124da90613273565b60405180910390fd5b6124ef60008383611d24565b6001609a60008473ffffffffffffffffffffffffffffffffffffffff1673ffffffffffffffffffffffffffffffffffffffff168152602001908152602001600020600082825461253f91906135d8565b92505081905550816099600083815260200190815260200160002060006101000a81548173ffffffffffffffffffffffffffffffffffffffff021916908373ffffffffffffffffffffffffffffffffffffffff160217905550808273ffffffffffffffffffffffffffffffffffffffff16600073ffffffffffffffffffffffffffffffffffffffff167fddf252ad1be2c89b69c2b068fc378daa952ba7f163c4a11628f55a4df523b3ef60405160405180910390a461260060008383611d29565b5050565b60007f01ffc9a7000000000000000000000000000000000000000000000000000000007bffffffffffffffffffffffffffffffffffffffffffffffffffffffff1916827bffffffffffffffffffffffffffffffffffffffffffffffffffffffff1916149050919050565b6000612679826108ea565b905061268781600084611d24565b612692600083611045565b6001609a60008373ffffffffffffffffffffffffffffffffffffffff1673ffffffffffffffffffffffffffffffffffffffff16815260200190815260200160002060008282546126e291906136b9565b925050819055506099600083815260200190815260200160002060006101000a81549073ffffffffffffffffffffffffffffffffffffffff021916905581600073ffffffffffffffffffffffffffffffffffffffff168273ffffffffffffffffffffffffffffffffffffffff167fddf252ad1be2c89b69c2b068fc378daa952ba7f163c4a11628f55a4df523b3ef60405160405180910390a461278781600084611d29565b5050565b828054612797906137bb565b90600052602060002090601f0160209004810192826127b95760008555612800565b82601f106127d257805160ff1916838001178555612800565b82800160010185558215612800579182015b828111156127ff5782518255916020019190600101906127e4565b5b50905061280d9190612851565b5090565b50805461281d906137bb565b6000825580601f1061282f575061284e565b601f01602090049060005260206000209081019061284d9190612851565b5b50565b5b8082111561286a576000816000905550600101612852565b5090565b600061288161287c84613533565b61350e565b90508281526020810184848401111561289957600080fd5b6128a4848285613779565b509392505050565b60006128bf6128ba84613564565b61350e565b9050828152602081018484840111156128d757600080fd5b6128e2848285613779565b509392505050565b6000813590506128f981613fc0565b92915050565b60008135905061290e81613fd7565b92915050565b60008135905061292381613fee565b92915050565b60008151905061293881613fee565b92915050565b600082601f83011261294f57600080fd5b813561295f84826020860161286e565b91505092915050565b600082601f83011261297957600080fd5b81356129898482602086016128ac565b91505092915050565b6000813590506129a181614005565b92915050565b6000813590506129b68161401c565b92915050565b6000602082840312156129ce57600080fd5b60006129dc848285016128ea565b91505092915050565b600080604083850312156129f857600080fd5b6000612a06858286016128ea565b9250506020612a17858286016128ea565b9150509250929050565b600080600060608486031215612a3657600080fd5b6000612a44868287016128ea565b9350506020612a55868287016128ea565b9250506040612a6686828701612992565b9150509250925092565b60008060008060808587031215612a8657600080fd5b6000612a94878288016128ea565b9450506020612aa5878288016128ea565b9350506040612ab687828801612992565b925050606085013567ffffffffffffffff811115612ad357600080fd5b612adf8782880161293e565b91505092959194509250565b60008060408385031215612afe57600080fd5b6000612b0c858286016128ea565b9250506020612b1d858286016128ff565b9150509250929050565b60008060408385031215612b3a57600080fd5b6000612b48858286016128ea565b925050602083013567ffffffffffffffff811115612b6557600080fd5b612b7185828601612968565b9150509250929050565b60008060408385031215612b8e57600080fd5b6000612b9c858286016128ea565b9250506020612bad85828601612992565b9150509250929050565b600060208284031215612bc957600080fd5b6000612bd784828501612914565b91505092915050565b600060208284031215612bf257600080fd5b6000612c0084828501612929565b91505092915050565b600080600080600060a08688031215612c2157600080fd5b600086013567ffffffffffffffff811115612c3b57600080fd5b612c4788828901612968565b955050602086013567ffffffffffffffff811115612c6457600080fd5b612c7088828901612968565b945050604086013567ffffffffffffffff811115612c8d57600080fd5b612c9988828901612968565b9350506060612caa888289016128ea565b9250506080612cbb888289016129a7565b9150509295509295909350565b600060208284031215612cda57600080fd5b6000612ce884828501612992565b91505092915050565b60008060408385031215612d0457600080fd5b6000612d1285828601612992565b9250506020612d2385828601612992565b9150509250929050565b612d36816136ed565b82525050565b612d45816136ff565b82525050565b6000612d5682613595565b612d6081856135ab565b9350612d70818560208601613788565b612d7981613954565b840191505092915050565b6000612d8f826135a0565b612d9981856135bc565b9350612da9818560208601613788565b612db281613954565b840191505092915050565b6000612dc8826135a0565b612dd281856135cd565b9350612de2818560208601613788565b80840191505092915050565b6000612dfb6032836135bc565b9150612e0682613965565b604082019050919050565b6000612e1e6026836135bc565b9150612e29826139b4565b604082019050919050565b6000612e416025836135bc565b9150612e4c82613a03565b604082019050919050565b6000612e64601c836135bc565b9150612e6f82613a52565b602082019050919050565b6000612e876024836135bc565b9150612e9282613a7b565b604082019050919050565b6000612eaa6019836135bc565b9150612eb582613aca565b602082019050919050565b6000612ecd602c836135bc565b9150612ed882613af3565b604082019050919050565b6000612ef06038836135bc565b9150612efb82613b42565b604082019050919050565b6000612f13602a836135bc565b9150612f1e82613b91565b604082019050919050565b6000612f366029836135bc565b9150612f4182613be0565b604082019050919050565b6000612f59602e836135bc565b9150612f6482613c2f565b604082019050919050565b6000612f7c602e836135bc565b9150612f8782613c7e565b604082019050919050565b6000612f9f6020836135bc565b9150612faa82613ccd565b602082019050919050565b6000612fc26031836135bc565b9150612fcd82613cf6565b604082019050919050565b6000612fe5602c836135bc565b9150612ff082613d45565b604082019050919050565b60006130086020836135bc565b915061301382613d94565b602082019050919050565b600061302b602f836135bc565b915061303682613dbd565b604082019050919050565b600061304e6021836135bc565b915061305982613e0c565b604082019050919050565b60006130716031836135bc565b915061307c82613e5b565b604082019050919050565b6000613094602b836135bc565b915061309f82613eaa565b604082019050919050565b60006130b7602a836135bc565b91506130c282613ef9565b604082019050919050565b60006130da6030836135bc565b91506130e582613f48565b604082019050919050565b60006130fd6019836135bc565b915061310882613f97565b602082019050919050565b61311c81613757565b82525050565b600061312e8285612dbd565b915061313a8284612dbd565b91508190509392505050565b600060208201905061315b6000830184612d2d565b92915050565b60006080820190506131766000830187612d2d565b6131836020830186612d2d565b6131906040830185613113565b81810360608301526131a28184612d4b565b905095945050505050565b60006040820190506131c26000830185612d2d565b6131cf6020830184613113565b9392505050565b60006020820190506131eb6000830184612d3c565b92915050565b6000602082019050818103600083015261320b8184612d84565b905092915050565b6000602082019050818103600083015261322c81612dee565b9050919050565b6000602082019050818103600083015261324c81612e11565b9050919050565b6000602082019050818103600083015261326c81612e34565b9050919050565b6000602082019050818103600083015261328c81612e57565b9050919050565b600060208201905081810360008301526132ac81612e7a565b9050919050565b600060208201905081810360008301526132cc81612e9d565b9050919050565b600060208201905081810360008301526132ec81612ec0565b9050919050565b6000602082019050818103600083015261330c81612ee3565b9050919050565b6000602082019050818103600083015261332c81612f06565b9050919050565b6000602082019050818103600083015261334c81612f29565b9050919050565b6000602082019050818103600083015261336c81612f4c565b9050919050565b6000602082019050818103600083015261338c81612f6f565b9050919050565b600060208201905081810360008301526133ac81612f92565b9050919050565b600060208201905081810360008301526133cc81612fb5565b9050919050565b600060208201905081810360008301526133ec81612fd8565b9050919050565b6000602082019050818103600083015261340c81612ffb565b9050919050565b6000602082019050818103600083015261342c8161301e565b9050919050565b6000602082019050818103600083015261344c81613041565b9050919050565b6000602082019050818103600083015261346c81613064565b9050919050565b6000602082019050818103600083015261348c81613087565b9050919050565b600060208201905081810360008301526134ac816130aa565b9050919050565b600060208201905081810360008301526134cc816130cd565b9050919050565b600060208201905081810360008301526134ec816130f0565b9050919050565b60006020820190506135086000830184613113565b92915050565b6000613518613529565b905061352482826137ed565b919050565b6000604051905090565b600067ffffffffffffffff82111561354e5761354d613925565b5b61355782613954565b9050602081019050919050565b600067ffffffffffffffff82111561357f5761357e613925565b5b61358882613954565b9050602081019050919050565b600081519050919050565b600081519050919050565b600082825260208201905092915050565b600082825260208201905092915050565b600081905092915050565b60006135e382613757565b91506135ee83613757565b9250827fffffffffffffffffffffffffffffffffffffffffffffffffffffffffffffffff0382111561362357613622613898565b5b828201905092915050565b600061363982613757565b915061364483613757565b925082613654576136536138c7565b5b828204905092915050565b600061366a82613757565b915061367583613757565b9250817fffffffffffffffffffffffffffffffffffffffffffffffffffffffffffffffff04831182151516156136ae576136ad613898565b5b828202905092915050565b60006136c482613757565b91506136cf83613757565b9250828210156136e2576136e1613898565b5b828203905092915050565b60006136f882613737565b9050919050565b60008115159050919050565b60007fffffffff0000000000000000000000000000000000000000000000000000000082169050919050565b600073ffffffffffffffffffffffffffffffffffffffff82169050919050565b6000819050919050565b60006bffffffffffffffffffffffff82169050919050565b82818337600083830152505050565b60005b838110156137a657808201518184015260208101905061378b565b838111156137b5576000848401525b50505050565b600060028204905060018216806137d357607f821691505b602082108114156137e7576137e66138f6565b5b50919050565b6137f682613954565b810181811067ffffffffffffffff8211171561381557613814613925565b5b80604052505050565b600061382982613757565b91507fffffffffffffffffffffffffffffffffffffffffffffffffffffffffffffffff82141561385c5761385b613898565b5b600182019050919050565b600061387282613757565b915061387d83613757565b92508261388d5761388c6138c7565b5b828206905092915050565b7f4e487b7100000000000000000000000000000000000000000000000000000000600052601160045260246000fd5b7f4e487b7100000000000000000000000000000000000000000000000000000000600052601260045260246000fd5b7f4e487b7100000000000000000000000000000000000000000000000000000000600052602260045260246000fd5b7f4e487b7100000000000000000000000000000000000000000000000000000000600052604160045260246000fd5b6000601f19601f8301169050919050565b7f4552433732313a207472616e7366657220746f206e6f6e20455243373231526560008201527f63656976657220696d706c656d656e7465720000000000000000000000000000602082015250565b7f4f776e61626c653a206e6577206f776e657220697320746865207a65726f206160008201527f6464726573730000000000000000000000000000000000000000000000000000602082015250565b7f4552433732313a207472616e736665722066726f6d20696e636f72726563742060008201527f6f776e6572000000000000000000000000000000000000000000000000000000602082015250565b7f4552433732313a20746f6b656e20616c7265616479206d696e74656400000000600082015250565b7f4552433732313a207472616e7366657220746f20746865207a65726f2061646460008201527f7265737300000000000000000000000000000000000000000000000000000000602082015250565b7f4552433732313a20617070726f766520746f2063616c6c657200000000000000600082015250565b7f4552433732313a206f70657261746f7220717565727920666f72206e6f6e657860008201527f697374656e7420746f6b656e0000000000000000000000000000000000000000602082015250565b7f4552433732313a20617070726f76652063616c6c6572206973206e6f74206f7760008201527f6e6572206e6f7220617070726f76656420666f7220616c6c0000000000000000602082015250565b7f4552433732313a2062616c616e636520717565727920666f7220746865207a6560008201527f726f206164647265737300000000000000000000000000000000000000000000602082015250565b7f4552433732313a206f776e657220717565727920666f72206e6f6e657869737460008201527f656e7420746f6b656e0000000000000000000000000000000000000000000000602082015250565b7f45524337323155524953746f726167653a2055524920736574206f66206e6f6e60008201527f6578697374656e7420746f6b656e000000000000000000000000000000000000602082015250565b7f496e697469616c697a61626c653a20636f6e747261637420697320616c72656160008201527f647920696e697469616c697a6564000000000000000000000000000000000000602082015250565b7f4552433732313a206d696e7420746f20746865207a65726f2061646472657373600082015250565b7f45524337323155524953746f726167653a2055524920717565727920666f722060008201527f6e6f6e6578697374656e7420746f6b656e000000000000000000000000000000602082015250565b7f4552433732313a20617070726f76656420717565727920666f72206e6f6e657860008201527f697374656e7420746f6b656e0000000000000000000000000000000000000000602082015250565b7f4f776e61626c653a2063616c6c6572206973206e6f7420746865206f776e6572600082015250565b7f4552433732314d657461646174613a2055524920717565727920666f72206e6f60008201527f6e6578697374656e7420746f6b656e0000000000000000000000000000000000602082015250565b7f4552433732313a20617070726f76616c20746f2063757272656e74206f776e6560008201527f7200000000000000000000000000000000000000000000000000000000000000602082015250565b7f4552433732313a207472616e736665722063616c6c6572206973206e6f74206f60008201527f776e6572206e6f7220617070726f766564000000000000000000000000000000602082015250565b7f496e697469616c697a61626c653a20636f6e7472616374206973206e6f74206960008201527f6e697469616c697a696e67000000000000000000000000000000000000000000602082015250565b7f455243323938313a20726f79616c7479206665652077696c6c2065786365656460008201527f2073616c65507269636500000000000000000000000000000000000000000000602082015250565b7f4552433732314275726e61626c653a2063616c6c6572206973206e6f74206f7760008201527f6e6572206e6f7220617070726f76656400000000000000000000000000000000602082015250565b7f455243323938313a20696e76616c696420726563656976657200000000000000600082015250565b613fc9816136ed565b8114613fd457600080fd5b50565b613fe0816136ff565b8114613feb57600080fd5b50565b613ff78161370b565b811461400257600080fd5b50565b61400e81613757565b811461401957600080fd5b50565b61402581613761565b811461403057600080fd5b5056fea26469706673582212203736abfa4aa83907bcdeb2a3709412617237ab3db7e226949634390aa66cdd2064736f6c63430008040033",
  "immutableReferences": {},
  "source": "// SPDX-License-Identifier: MIT\r\npragma solidity >=0.4.22 <0.9.0;\r\n\r\nimport \"@openzeppelin/contracts-upgradeable/token/ERC721/ERC721Upgradeable.sol\";\r\nimport \"@openzeppelin/contracts-upgradeable/token/ERC721/extensions/ERC721URIStorageUpgradeable.sol\";\r\nimport \"@openzeppelin/contracts-upgradeable/token/ERC721/extensions/ERC721BurnableUpgradeable.sol\";\r\nimport \"@openzeppelin/contracts-upgradeable/access/OwnableUpgradeable.sol\";\r\nimport \"@openzeppelin/contracts-upgradeable/proxy/utils/Initializable.sol\";\r\nimport \"@openzeppelin/contracts-upgradeable/utils/CountersUpgradeable.sol\";\r\nimport \"@openzeppelin/contracts-upgradeable/token/ERC721/extensions/ERC721RoyaltyUpgradeable.sol\";\r\n\r\ncontract NFT721 is\r\n    Initializable,\r\n    ERC721Upgradeable,\r\n    ERC721URIStorageUpgradeable,\r\n    ERC721BurnableUpgradeable,\r\n    OwnableUpgradeable,\r\n    ERC721RoyaltyUpgradeable\r\n{\r\n    using CountersUpgradeable for CountersUpgradeable.Counter;\r\n\r\n    CountersUpgradeable.Counter private _tokenIdCounter;\r\n\r\n    string private _contractURI;\r\n\r\n    /// @custom:oz-upgrades-unsafe-allow constructor\r\n    constructor() initializer {}\r\n\r\n    ///@dev royalty: 0..10_000 -> 0%..100%\r\n    function initialize(\r\n        string memory _name,\r\n        string memory _symbol,\r\n        string memory _uri,\r\n        address deployer,\r\n        uint96 royalty\r\n    ) public initializer {\r\n        __ERC721_init(_name, _symbol);\r\n        __ERC721URIStorage_init();\r\n        __ERC721Burnable_init();\r\n        __Ownable_init();\r\n        __ERC721Royalty_init();\r\n        \r\n        _contractURI = _uri;\r\n        _setDefaultRoyalty(deployer, royalty);\r\n        _transferOwnership(deployer);\r\n    }\r\n\r\n    function safeMint(address to, string memory uri) public onlyOwner {\r\n        uint256 tokenId = _tokenIdCounter.current();\r\n        _tokenIdCounter.increment();\r\n        _safeMint(to, tokenId);\r\n        _setTokenURI(tokenId, uri);\r\n    }\r\n\r\n    // The following functions are overrides required by Solidity.\r\n\r\n    function _burn(uint256 tokenId)\r\n        internal\r\n        override(ERC721Upgradeable, ERC721URIStorageUpgradeable, ERC721RoyaltyUpgradeable)\r\n    {\r\n        super._burn(tokenId);\r\n    }\r\n\r\n    function _baseURI() internal view override returns (string memory)\r\n    {\r\n        return _contractURI;\r\n    }\r\n\r\n    function tokenURI(uint256 tokenId)\r\n        public\r\n        view\r\n        override(ERC721Upgradeable, ERC721URIStorageUpgradeable)\r\n        returns (string memory)\r\n    {\r\n        return super.tokenURI(tokenId);\r\n    }\r\n\r\n    function supportsInterface(bytes4 interfaceId)\r\n        public\r\n        view\r\n        virtual\r\n        override(ERC721Upgradeable, ERC721RoyaltyUpgradeable)\r\n        returns (bool)\r\n    {\r\n        return super.supportsInterface(interfaceId);\r\n    }\r\n}\r\n",
  "sourcePath": "E:\\LamViec\\STECH_Corp\\nft-marketplace\\truffle\\contracts\\NFT721.sol",
  "compiler": {
    "name": "solc",
    "version": "0.8.4+commit.c7e474f2.Emscripten.clang"
  },
  "schemaVersion": "3.4.5",
  "updatedAt": "2022-02-23T07:56:48.896Z",
  "devdoc": {
    "kind": "dev",
    "methods": {
      "approve(address,uint256)": {
        "details": "See {IERC721-approve}."
      },
      "balanceOf(address)": {
        "details": "See {IERC721-balanceOf}."
      },
      "burn(uint256)": {
        "details": "Burns `tokenId`. See {ERC721-_burn}. Requirements: - The caller must own `tokenId` or be an approved operator."
      },
      "constructor": {
        "custom:oz-upgrades-unsafe-allow": "constructor"
      },
      "getApproved(uint256)": {
        "details": "See {IERC721-getApproved}."
      },
      "initialize(string,string,string,address,uint96)": {
        "details": "royalty: 0..10_000 -> 0%..100%"
      },
      "isApprovedForAll(address,address)": {
        "details": "See {IERC721-isApprovedForAll}."
      },
      "name()": {
        "details": "See {IERC721Metadata-name}."
      },
      "owner()": {
        "details": "Returns the address of the current owner."
      },
      "ownerOf(uint256)": {
        "details": "See {IERC721-ownerOf}."
      },
      "renounceOwnership()": {
        "details": "Leaves the contract without owner. It will not be possible to call `onlyOwner` functions anymore. Can only be called by the current owner. NOTE: Renouncing ownership will leave the contract without an owner, thereby removing any functionality that is only available to the owner."
      },
      "royaltyInfo(uint256,uint256)": {
        "details": "Returns how much royalty is owed and to whom, based on a sale price that may be denominated in any unit of exchange. The royalty amount is denominated and should be payed in that same unit of exchange."
      },
      "safeTransferFrom(address,address,uint256)": {
        "details": "See {IERC721-safeTransferFrom}."
      },
      "safeTransferFrom(address,address,uint256,bytes)": {
        "details": "See {IERC721-safeTransferFrom}."
      },
      "setApprovalForAll(address,bool)": {
        "details": "See {IERC721-setApprovalForAll}."
      },
      "symbol()": {
        "details": "See {IERC721Metadata-symbol}."
      },
      "transferFrom(address,address,uint256)": {
        "details": "See {IERC721-transferFrom}."
      },
      "transferOwnership(address)": {
        "details": "Transfers ownership of the contract to a new account (`newOwner`). Can only be called by the current owner."
      }
    },
    "version": 1
  },
  "userdoc": {
    "kind": "user",
    "methods": {},
    "version": 1
  }
}