{
  "contractName": "TransferExecutor",
  "abi": [
    {
      "inputs": [],
      "stateMutability": "nonpayable",
      "type": "constructor"
    },
    {
      "anonymous": false,
      "inputs": [
        {
          "indexed": true,
          "internalType": "uint256",
          "name": "index",
          "type": "uint256"
        },
        {
          "indexed": true,
          "internalType": "address",
          "name": "currency",
          "type": "address"
        }
      ],
      "name": "AddedWhitelist",
      "type": "event"
    },
    {
      "anonymous": false,
      "inputs": [
        {
          "indexed": true,
          "internalType": "address",
          "name": "previousOwner",
          "type": "address"
        },
        {
          "indexed": true,
          "internalType": "address",
          "name": "newOwner",
          "type": "address"
        }
      ],
      "name": "OwnershipTransferred",
      "type": "event"
    },
    {
      "anonymous": false,
      "inputs": [
        {
          "indexed": true,
          "internalType": "uint256",
          "name": "index",
          "type": "uint256"
        },
        {
          "indexed": true,
          "internalType": "address",
          "name": "currency",
          "type": "address"
        },
        {
          "indexed": false,
          "internalType": "bool",
          "name": "isAvailable",
          "type": "bool"
        }
      ],
      "name": "UpdatedWhitelist",
      "type": "event"
    },
    {
      "inputs": [],
      "name": "owner",
      "outputs": [
        {
          "internalType": "address",
          "name": "",
          "type": "address"
        }
      ],
      "stateMutability": "view",
      "type": "function"
    },
    {
      "inputs": [],
      "name": "renounceOwnership",
      "outputs": [],
      "stateMutability": "nonpayable",
      "type": "function"
    },
    {
      "inputs": [
        {
          "internalType": "address",
          "name": "newOwner",
          "type": "address"
        }
      ],
      "name": "transferOwnership",
      "outputs": [],
      "stateMutability": "nonpayable",
      "type": "function"
    },
    {
      "inputs": [
        {
          "internalType": "address",
          "name": "currency",
          "type": "address"
        }
      ],
      "name": "addWhitelist",
      "outputs": [],
      "stateMutability": "nonpayable",
      "type": "function"
    },
    {
      "inputs": [
        {
          "internalType": "uint256",
          "name": "index",
          "type": "uint256"
        },
        {
          "internalType": "bool",
          "name": "_isAvailable",
          "type": "bool"
        }
      ],
      "name": "updateWhitelist",
      "outputs": [],
      "stateMutability": "nonpayable",
      "type": "function"
    },
    {
      "inputs": [],
      "name": "getWhitelist",
      "outputs": [
        {
          "components": [
            {
              "internalType": "uint256",
              "name": "index",
              "type": "uint256"
            },
            {
              "internalType": "address",
              "name": "currencyAddress",
              "type": "address"
            },
            {
              "internalType": "bool",
              "name": "isAvailable",
              "type": "bool"
            }
          ],
          "internalType": "struct TransferExecutor.PaymentCurrency[]",
          "name": "whitelist",
          "type": "tuple[]"
        }
      ],
      "stateMutability": "view",
      "type": "function"
    },
    {
      "inputs": [
        {
          "internalType": "address",
          "name": "currency",
          "type": "address"
        }
      ],
      "name": "isAvailable",
      "outputs": [
        {
          "internalType": "bool",
          "name": "",
          "type": "bool"
        }
      ],
      "stateMutability": "view",
      "type": "function"
    }
  ],
  "bytecode": "0x608060405234801561001057600080fd5b5061002d61002261004260201b60201c565b61004a60201b60201c565b61003d600061010e60201b60201c565b610261565b600033905090565b60008060009054906101000a900473ffffffffffffffffffffffffffffffffffffffff169050816000806101000a81548173ffffffffffffffffffffffffffffffffffffffff021916908373ffffffffffffffffffffffffffffffffffffffff1602179055508173ffffffffffffffffffffffffffffffffffffffff168173ffffffffffffffffffffffffffffffffffffffff167f8be0079c531659141344cd1fd0a4f28419497f9722a3daafe3b4186f6b6457e060405160405180910390a35050565b6000610124600161023d60201b6107401760201c565b905060405180606001604052808281526020018373ffffffffffffffffffffffffffffffffffffffff16815260200160011515815250600260008381526020019081526020016000206000820151816000015560208201518160010160006101000a81548173ffffffffffffffffffffffffffffffffffffffff021916908373ffffffffffffffffffffffffffffffffffffffff16021790555060408201518160010160146101000a81548160ff0219169083151502179055509050506101f5600161024b60201b61074e1760201c565b8173ffffffffffffffffffffffffffffffffffffffff16817fb2760a271cede39b7df6c9c00b82b20a64f6dcddec53762dd0da9be314a6a9cb60405160405180910390a35050565b600081600001549050919050565b6001816000016000828254019250508190555050565b610e06806102706000396000f3fe608060405234801561001057600080fd5b506004361061007d5760003560e01c8063c8b273491161005b578063c8b27349146100da578063d01f63f5146100f6578063f2fde38b14610114578063f80f5dd5146101305761007d565b80632896f60b14610082578063715018a6146100b25780638da5cb5b146100bc575b600080fd5b61009c600480360381019061009791906109c3565b61014c565b6040516100a99190610bae565b60405180910390f35b6100ba61022d565b005b6100c46102b5565b6040516100d19190610b71565b60405180910390f35b6100f460048036038101906100ef91906109ec565b6102de565b005b6100fe610434565b60405161010b9190610b8c565b60405180910390f35b61012e600480360381019061012991906109c3565b6105c0565b005b61014a600480360381019061014591906109c3565b6106b8565b005b6000806101596001610740565b905060005b81811015610221578373ffffffffffffffffffffffffffffffffffffffff166002600083815260200190815260200160002060010160009054906101000a900473ffffffffffffffffffffffffffffffffffffffff1673ffffffffffffffffffffffffffffffffffffffff161480156101fe5750600115156002600083815260200190815260200160002060010160149054906101000a900460ff161515145b1561020e57600192505050610228565b808061021990610c9b565b91505061015e565b5060009150505b919050565b610235610764565b73ffffffffffffffffffffffffffffffffffffffff166102536102b5565b73ffffffffffffffffffffffffffffffffffffffff16146102a9576040517f08c379a00000000000000000000000000000000000000000000000000000000081526004016102a090610be9565b60405180910390fd5b6102b3600061076c565b565b60008060009054906101000a900473ffffffffffffffffffffffffffffffffffffffff16905090565b6102e6610764565b73ffffffffffffffffffffffffffffffffffffffff166103046102b5565b73ffffffffffffffffffffffffffffffffffffffff161461035a576040517f08c379a000000000000000000000000000000000000000000000000000000000815260040161035190610be9565b60405180910390fd5b806002600084815260200190815260200160002060010160146101000a81548160ff0219169083151502179055506002600083815260200190815260200160002060010160009054906101000a900473ffffffffffffffffffffffffffffffffffffffff1673ffffffffffffffffffffffffffffffffffffffff16827fa46b89b0bcc9f0e561748cec4b69730ca745236a36e81ed47be32f025f94daf16002600086815260200190815260200160002060010160149054906101000a900460ff166040516104289190610bae565b60405180910390a35050565b606060006104426001610740565b90508067ffffffffffffffff811115610484577f4e487b7100000000000000000000000000000000000000000000000000000000600052604160045260246000fd5b6040519080825280602002602001820160405280156104bd57816020015b6104aa61094b565b8152602001906001900390816104a25790505b50915060005b818110156105bb5760026000828152602001908152602001600020604051806060016040529081600082015481526020016001820160009054906101000a900473ffffffffffffffffffffffffffffffffffffffff1673ffffffffffffffffffffffffffffffffffffffff1673ffffffffffffffffffffffffffffffffffffffff1681526020016001820160149054906101000a900460ff16151515158152505083828151811061059d577f4e487b7100000000000000000000000000000000000000000000000000000000600052603260045260246000fd5b602002602001018190525080806105b390610c9b565b9150506104c3565b505090565b6105c8610764565b73ffffffffffffffffffffffffffffffffffffffff166105e66102b5565b73ffffffffffffffffffffffffffffffffffffffff161461063c576040517f08c379a000000000000000000000000000000000000000000000000000000000815260040161063390610be9565b60405180910390fd5b600073ffffffffffffffffffffffffffffffffffffffff168173ffffffffffffffffffffffffffffffffffffffff1614156106ac576040517f08c379a00000000000000000000000000000000000000000000000000000000081526004016106a390610bc9565b60405180910390fd5b6106b58161076c565b50565b6106c0610764565b73ffffffffffffffffffffffffffffffffffffffff166106de6102b5565b73ffffffffffffffffffffffffffffffffffffffff1614610734576040517f08c379a000000000000000000000000000000000000000000000000000000000815260040161072b90610be9565b60405180910390fd5b61073d81610830565b50565b600081600001549050919050565b6001816000016000828254019250508190555050565b600033905090565b60008060009054906101000a900473ffffffffffffffffffffffffffffffffffffffff169050816000806101000a81548173ffffffffffffffffffffffffffffffffffffffff021916908373ffffffffffffffffffffffffffffffffffffffff1602179055508173ffffffffffffffffffffffffffffffffffffffff168173ffffffffffffffffffffffffffffffffffffffff167f8be0079c531659141344cd1fd0a4f28419497f9722a3daafe3b4186f6b6457e060405160405180910390a35050565b600061083c6001610740565b905060405180606001604052808281526020018373ffffffffffffffffffffffffffffffffffffffff16815260200160011515815250600260008381526020019081526020016000206000820151816000015560208201518160010160006101000a81548173ffffffffffffffffffffffffffffffffffffffff021916908373ffffffffffffffffffffffffffffffffffffffff16021790555060408201518160010160146101000a81548160ff021916908315150217905550905050610903600161074e565b8173ffffffffffffffffffffffffffffffffffffffff16817fb2760a271cede39b7df6c9c00b82b20a64f6dcddec53762dd0da9be314a6a9cb60405160405180910390a35050565b604051806060016040528060008152602001600073ffffffffffffffffffffffffffffffffffffffff1681526020016000151581525090565b60008135905061099381610d8b565b92915050565b6000813590506109a881610da2565b92915050565b6000813590506109bd81610db9565b92915050565b6000602082840312156109d557600080fd5b60006109e384828501610984565b91505092915050565b600080604083850312156109ff57600080fd5b6000610a0d858286016109ae565b9250506020610a1e85828601610999565b9150509250929050565b6000610a348383610b20565b60608301905092915050565b610a4981610c53565b82525050565b610a5881610c53565b82525050565b6000610a6982610c19565b610a738185610c31565b9350610a7e83610c09565b8060005b83811015610aaf578151610a968882610a28565b9750610aa183610c24565b925050600181019050610a82565b5085935050505092915050565b610ac581610c65565b82525050565b610ad481610c65565b82525050565b6000610ae7602683610c42565b9150610af282610d13565b604082019050919050565b6000610b0a602083610c42565b9150610b1582610d62565b602082019050919050565b606082016000820151610b366000850182610b62565b506020820151610b496020850182610a40565b506040820151610b5c6040850182610abc565b50505050565b610b6b81610c91565b82525050565b6000602082019050610b866000830184610a4f565b92915050565b60006020820190508181036000830152610ba68184610a5e565b905092915050565b6000602082019050610bc36000830184610acb565b92915050565b60006020820190508181036000830152610be281610ada565b9050919050565b60006020820190508181036000830152610c0281610afd565b9050919050565b6000819050602082019050919050565b600081519050919050565b6000602082019050919050565b600082825260208201905092915050565b600082825260208201905092915050565b6000610c5e82610c71565b9050919050565b60008115159050919050565b600073ffffffffffffffffffffffffffffffffffffffff82169050919050565b6000819050919050565b6000610ca682610c91565b91507fffffffffffffffffffffffffffffffffffffffffffffffffffffffffffffffff821415610cd957610cd8610ce4565b5b600182019050919050565b7f4e487b7100000000000000000000000000000000000000000000000000000000600052601160045260246000fd5b7f4f776e61626c653a206e6577206f776e657220697320746865207a65726f206160008201527f6464726573730000000000000000000000000000000000000000000000000000602082015250565b7f4f776e61626c653a2063616c6c6572206973206e6f7420746865206f776e6572600082015250565b610d9481610c53565b8114610d9f57600080fd5b50565b610dab81610c65565b8114610db657600080fd5b50565b610dc281610c91565b8114610dcd57600080fd5b5056fea2646970667358221220a860a31160b90d94c90214d7498651cf6058c6159f129a1292172d2f752e44d564736f6c63430008040033",
  "immutableReferences": {},
  "source": "// SPDX-License-Identifier: MIT\r\npragma solidity >=0.4.22 <0.9.0;\r\n\r\nimport \"@openzeppelin/contracts/access/Ownable.sol\";\r\nimport \"@openzeppelin/contracts/utils/Counters.sol\";\r\nimport \"@openzeppelin/contracts/token/ERC20/ERC20.sol\";\r\n\r\ncontract TransferExecutor is Ownable {\r\n    using Counters for Counters.Counter;\r\n    ///@dev payment whitelist index, start from 0\r\n    Counters.Counter private _paymentCurrencyCounter;\r\n\r\n    struct PaymentCurrency {\r\n        uint256 index;\r\n        address currencyAddress;\r\n        bool isAvailable;\r\n    }\r\n\r\n    ///@dev currency whitelist for payment on marketplace\r\n    mapping(uint256 => PaymentCurrency) private _paymentWhitelist;\r\n\r\n    event AddedWhitelist(uint256 indexed index, address indexed currency);\r\n    event UpdatedWhitelist(uint256 indexed index, address indexed currency, bool isAvailable);\r\n\r\n    \r\n    ///@dev Convention that the address of native token is 0\r\n    constructor() {\r\n        _addWhitelist(address(0));\r\n    }\r\n\r\n    function addWhitelist(address currency) external onlyOwner {\r\n        _addWhitelist(currency);\r\n    }\r\n\r\n    function _addWhitelist(address currency) internal {\r\n        uint256 index = _paymentCurrencyCounter.current();\r\n        _paymentWhitelist[index] = PaymentCurrency(index, currency, true);\r\n        _paymentCurrencyCounter.increment();\r\n        emit AddedWhitelist(index, currency);\r\n    }\r\n\r\n    function updateWhitelist(uint256 index, bool _isAvailable) external onlyOwner {\r\n        _paymentWhitelist[index].isAvailable = _isAvailable;\r\n        emit UpdatedWhitelist(index, _paymentWhitelist[index].currencyAddress, _paymentWhitelist[index].isAvailable);\r\n    }\r\n\r\n    function getWhitelist() external view returns (PaymentCurrency[] memory whitelist) {\r\n        uint256 numOfPaymentCurrencies = _paymentCurrencyCounter.current();\r\n        whitelist = new PaymentCurrency[](numOfPaymentCurrencies);\r\n\r\n        for (uint256 i = 0; i < numOfPaymentCurrencies; i++) {\r\n            whitelist[i] = _paymentWhitelist[i];\r\n        }\r\n    }\r\n\r\n    function isAvailable(address currency) public view returns (bool) {\r\n        uint256 numOfPaymentCurrencies = _paymentCurrencyCounter.current();\r\n\r\n        for (uint256 i = 0; i < numOfPaymentCurrencies; i++) {\r\n            if (_paymentWhitelist[i].currencyAddress == currency && _paymentWhitelist[i].isAvailable == true) {\r\n                return true;\r\n            }\r\n        }\r\n        return false;\r\n    }\r\n\r\n    function _executePayment(\r\n        address currency,\r\n        uint256 amount,\r\n        address from,\r\n        address to\r\n    ) internal {\r\n        if (currency == address(0)) {\r\n            _transferEther(amount, payable(to));\r\n        } else {\r\n            IERC20 paymentToken = IERC20(currency);\r\n            paymentToken.transferFrom(from, to, amount);\r\n        }\r\n    }\r\n\r\n    function _transferEther(uint256 amount, address payable to) internal {\r\n        (bool success, ) = to.call{value: amount}(\"\");\r\n        require(success, \"TransferExecutor: Native token transfer failed\");\r\n    }\r\n}\r\n",
  "sourcePath": "E:\\LamViec\\STECH_Corp\\nft-marketplace\\truffle\\contracts\\TransferExecutor.sol",
  "compiler": {
    "name": "solc",
    "version": "0.8.4+commit.c7e474f2.Emscripten.clang"
  },
  "schemaVersion": "3.4.5",
  "updatedAt": "2022-02-23T07:56:48.948Z",
  "devdoc": {
    "kind": "dev",
    "methods": {
      "constructor": {
        "details": "Convention that the address of native token is 0"
      },
      "owner()": {
        "details": "Returns the address of the current owner."
      },
      "renounceOwnership()": {
        "details": "Leaves the contract without owner. It will not be possible to call `onlyOwner` functions anymore. Can only be called by the current owner. NOTE: Renouncing ownership will leave the contract without an owner, thereby removing any functionality that is only available to the owner."
      },
      "transferOwnership(address)": {
        "details": "Transfers ownership of the contract to a new account (`newOwner`). Can only be called by the current owner."
      }
    },
    "stateVariables": {
      "_paymentCurrencyCounter": {
        "details": "payment whitelist index, start from 0"
      },
      "_paymentWhitelist": {
        "details": "currency whitelist for payment on marketplace"
      }
    },
    "version": 1
  },
  "userdoc": {
    "kind": "user",
    "methods": {},
    "version": 1
  }
}