{
  "contractName": "AssetLib",
  "abi": [
    {
      "inputs": [],
      "name": "ERC1155",
      "outputs": [
        {
          "internalType": "bytes32",
          "name": "",
          "type": "bytes32"
        }
      ],
      "stateMutability": "view",
      "type": "function"
    },
    {
      "inputs": [],
      "name": "ERC721",
      "outputs": [
        {
          "internalType": "bytes32",
          "name": "",
          "type": "bytes32"
        }
      ],
      "stateMutability": "view",
      "type": "function"
    },
    {
      "inputs": [],
      "name": "NATIVE",
      "outputs": [
        {
          "internalType": "bytes32",
          "name": "",
          "type": "bytes32"
        }
      ],
      "stateMutability": "view",
      "type": "function"
    }
  ],
  "bytecode": "0x610180610053600b82828239805160001a607314610046577f4e487b7100000000000000000000000000000000000000000000000000000000600052600060045260246000fd5b30600052607381538281f3fe730000000000000000000000000000000000000000301460806040526004361061004b5760003560e01c80632d255471146100505780638425abff1461006e578063a0cf0aea1461008c575b600080fd5b6100586100aa565b6040516100659190610125565b60405180910390f35b6100766100ce565b6040516100839190610125565b60405180910390f35b6100946100f2565b6040516100a19190610125565b60405180910390f35b7f973bb64086f173ec8099b7ed3d43da984f4a332e4417a08bc6a286e6402b058681565b7f73ad2146b3d3a286642c794379d750360a2d53a3459a11b3e5d6cc900f55f44a81565b7ffdae1ba7c826abdc4c99903c8056f82a1a04a615c94c895c32d24a82e8ecf7cd81565b61011f81610140565b82525050565b600060208201905061013a6000830184610116565b92915050565b600081905091905056fea26469706673582212208f1dd5531847133d56bcd3b1adac77f0cffac54e257b0af2069d64a6349ae36664736f6c63430008040033",
  "immutableReferences": {},
  "source": "// SPDX-License-Identifier: MIT\r\npragma solidity >=0.4.22 <0.9.0;\r\n\r\nlibrary AssetLib {\r\n    bytes32 public constant ERC721 = keccak256(\"ERC721\");\r\n    bytes32 public constant ERC1155 = keccak256(\"ERC1155\");\r\n    bytes32 public constant NATIVE = keccak256(\"NATIVE\");\r\n}",
  "sourcePath": "E:\\LamViec\\STECH_Corp\\nft-marketplace\\src\\contracts\\contracts\\libs\\AssetLib.sol",
  "compiler": {
    "name": "solc",
    "version": "0.8.4+commit.c7e474f2.Emscripten.clang"
  },
  "schemaVersion": "3.4.4",
  "updatedAt": "2022-02-19T07:31:10.740Z",
  "devdoc": {
    "kind": "dev",
    "methods": {},
    "version": 1
  },
  "userdoc": {
    "kind": "user",
    "methods": {},
    "version": 1
  }
}