{
  "contractName": "Marketplace",
  "abi": [
    {
      "anonymous": false,
      "inputs": [
        {
          "indexed": true,
          "internalType": "address",
          "name": "buyer",
          "type": "address"
        },
        {
          "indexed": true,
          "internalType": "uint256",
          "name": "itemIndex",
          "type": "uint256"
        }
      ],
      "name": "BoughtNFT",
      "type": "event"
    },
    {
      "anonymous": false,
      "inputs": [
        {
          "indexed": true,
          "internalType": "uint256",
          "name": "itemIndex",
          "type": "uint256"
        },
        {
          "indexed": true,
          "internalType": "address",
          "name": "assetContract",
          "type": "address"
        },
        {
          "indexed": true,
          "internalType": "uint256",
          "name": "tokenId",
          "type": "uint256"
        }
      ],
      "name": "ListedNFT",
      "type": "event"
    },
    {
      "anonymous": false,
      "inputs": [
        {
          "indexed": true,
          "internalType": "uint256",
          "name": "itemIndex",
          "type": "uint256"
        },
        {
          "indexed": true,
          "internalType": "address",
          "name": "assetContract",
          "type": "address"
        },
        {
          "indexed": true,
          "internalType": "uint256",
          "name": "tokenId",
          "type": "uint256"
        }
      ],
      "name": "UnlistedNFT",
      "type": "event"
    },
    {
      "inputs": [
        {
          "internalType": "bytes32",
          "name": "",
          "type": "bytes32"
        }
      ],
      "name": "listings",
      "outputs": [
        {
          "internalType": "uint256",
          "name": "",
          "type": "uint256"
        }
      ],
      "stateMutability": "view",
      "type": "function"
    },
    {
      "inputs": [
        {
          "internalType": "uint256",
          "name": "",
          "type": "uint256"
        }
      ],
      "name": "marketItems",
      "outputs": [
        {
          "internalType": "uint256",
          "name": "itemIndex",
          "type": "uint256"
        },
        {
          "internalType": "address",
          "name": "seller",
          "type": "address"
        },
        {
          "internalType": "address",
          "name": "assetContract",
          "type": "address"
        },
        {
          "internalType": "uint256",
          "name": "tokenId",
          "type": "uint256"
        },
        {
          "internalType": "address",
          "name": "currency",
          "type": "address"
        },
        {
          "internalType": "uint256",
          "name": "price",
          "type": "uint256"
        },
        {
          "internalType": "uint256",
          "name": "saleStart",
          "type": "uint256"
        },
        {
          "internalType": "uint256",
          "name": "saleEnd",
          "type": "uint256"
        }
      ],
      "stateMutability": "view",
      "type": "function"
    },
    {
      "inputs": [
        {
          "internalType": "address",
          "name": "",
          "type": "address"
        },
        {
          "internalType": "address",
          "name": "",
          "type": "address"
        },
        {
          "internalType": "uint256",
          "name": "",
          "type": "uint256"
        },
        {
          "internalType": "bytes",
          "name": "",
          "type": "bytes"
        }
      ],
      "name": "onERC721Received",
      "outputs": [
        {
          "internalType": "bytes4",
          "name": "",
          "type": "bytes4"
        }
      ],
      "stateMutability": "nonpayable",
      "type": "function"
    },
    {
      "inputs": [
        {
          "internalType": "address",
          "name": "assetContract",
          "type": "address"
        },
        {
          "internalType": "uint256",
          "name": "tokenId",
          "type": "uint256"
        },
        {
          "internalType": "address",
          "name": "currency",
          "type": "address"
        },
        {
          "internalType": "uint256",
          "name": "price",
          "type": "uint256"
        },
        {
          "internalType": "uint256",
          "name": "saleStart",
          "type": "uint256"
        },
        {
          "internalType": "uint256",
          "name": "saleEnd",
          "type": "uint256"
        }
      ],
      "name": "listNft",
      "outputs": [],
      "stateMutability": "nonpayable",
      "type": "function"
    },
    {
      "inputs": [
        {
          "internalType": "uint256",
          "name": "itemIndex",
          "type": "uint256"
        }
      ],
      "name": "unlistNft",
      "outputs": [],
      "stateMutability": "nonpayable",
      "type": "function"
    },
    {
      "inputs": [
        {
          "internalType": "uint256",
          "name": "itemIndex",
          "type": "uint256"
        }
      ],
      "name": "buy",
      "outputs": [],
      "stateMutability": "nonpayable",
      "type": "function"
    },
    {
      "inputs": [],
      "name": "getAllItems",
      "outputs": [
        {
          "components": [
            {
              "internalType": "uint256",
              "name": "itemIndex",
              "type": "uint256"
            },
            {
              "internalType": "address",
              "name": "seller",
              "type": "address"
            },
            {
              "internalType": "address",
              "name": "assetContract",
              "type": "address"
            },
            {
              "internalType": "uint256",
              "name": "tokenId",
              "type": "uint256"
            },
            {
              "internalType": "address",
              "name": "currency",
              "type": "address"
            },
            {
              "internalType": "uint256",
              "name": "price",
              "type": "uint256"
            },
            {
              "internalType": "uint256",
              "name": "saleStart",
              "type": "uint256"
            },
            {
              "internalType": "uint256",
              "name": "saleEnd",
              "type": "uint256"
            }
          ],
          "internalType": "struct Marketplace.MarketItem[]",
          "name": "items",
          "type": "tuple[]"
        }
      ],
      "stateMutability": "view",
      "type": "function"
    },
    {
      "inputs": [
        {
          "internalType": "address",
          "name": "seller",
          "type": "address"
        }
      ],
      "name": "getItemsBySeller",
      "outputs": [
        {
          "components": [
            {
              "internalType": "uint256",
              "name": "itemIndex",
              "type": "uint256"
            },
            {
              "internalType": "address",
              "name": "seller",
              "type": "address"
            },
            {
              "internalType": "address",
              "name": "assetContract",
              "type": "address"
            },
            {
              "internalType": "uint256",
              "name": "tokenId",
              "type": "uint256"
            },
            {
              "internalType": "address",
              "name": "currency",
              "type": "address"
            },
            {
              "internalType": "uint256",
              "name": "price",
              "type": "uint256"
            },
            {
              "internalType": "uint256",
              "name": "saleStart",
              "type": "uint256"
            },
            {
              "internalType": "uint256",
              "name": "saleEnd",
              "type": "uint256"
            }
          ],
          "internalType": "struct Marketplace.MarketItem[]",
          "name": "items",
          "type": "tuple[]"
        }
      ],
      "stateMutability": "view",
      "type": "function"
    }
  ],
  "bytecode": "0x608060405234801561001057600080fd5b506001600081905550612e17806100286000396000f3fe608060405234801561001057600080fd5b50600436106100885760003560e01c80639e75689c1161005b5780639e75689c14610142578063a19b80d31461015e578063c18b8db41461017a578063d96a094a146101aa57610088565b8063150b7a021461008d57806349bf3efb146100bd5780634ba1d6aa146100ed57806351f28e141461010b575b600080fd5b6100a760048036038101906100a29190612051565b6101c6565b6040516100b491906125c9565b60405180910390f35b6100d760048036038101906100d29190611fff565b6101da565b6040516100e491906125a7565b60405180910390f35b6100f5610859565b60405161010291906125a7565b60405180910390f35b610125600480360381019061012091906121a7565b610e5f565b60405161013998979695949392919061275f565b60405180910390f35b61015c600480360381019061015791906121a7565b610f07565b005b610178600480360381019061017391906120cc565b6112c4565b005b610194600480360381019061018f919061217e565b61186f565b6040516101a19190612744565b60405180910390f35b6101c460048036038101906101bf91906121a7565b611887565b005b600063150b7a0260e01b9050949350505050565b606060006101e86001611e83565b9050600080600190505b8281116104135760006002600083815260200190815260200160002060405180610100016040529081600082015481526020016001820160009054906101000a900473ffffffffffffffffffffffffffffffffffffffff1673ffffffffffffffffffffffffffffffffffffffff1673ffffffffffffffffffffffffffffffffffffffff1681526020016002820160009054906101000a900473ffffffffffffffffffffffffffffffffffffffff1673ffffffffffffffffffffffffffffffffffffffff1673ffffffffffffffffffffffffffffffffffffffff168152602001600382015481526020016004820160009054906101000a900473ffffffffffffffffffffffffffffffffffffffff1673ffffffffffffffffffffffffffffffffffffffff1673ffffffffffffffffffffffffffffffffffffffff1681526020016005820154815260200160068201548152602001600782015481525050905060008160400151826060015160405160200161036d929190612506565b604051602081830303815290604052805190602001209050428260e001511180156103ae575060036000828152602001908152602001600020548260000151145b80156103e957508673ffffffffffffffffffffffffffffffffffffffff16826020015173ffffffffffffffffffffffffffffffffffffffff16145b156103fe576001846103fb9190612888565b93505b5050808061040b9061299c565b9150506101f2565b508067ffffffffffffffff811115610454577f4e487b7100000000000000000000000000000000000000000000000000000000600052604160045260246000fd5b60405190808252806020026020018201604052801561048d57816020015b61047a611ea7565b8152602001906001900390816104725790505b509250600080600190505b8381116108505760006002600083815260200190815260200160002060405180610100016040529081600082015481526020016001820160009054906101000a900473ffffffffffffffffffffffffffffffffffffffff1673ffffffffffffffffffffffffffffffffffffffff1673ffffffffffffffffffffffffffffffffffffffff1681526020016002820160009054906101000a900473ffffffffffffffffffffffffffffffffffffffff1673ffffffffffffffffffffffffffffffffffffffff1673ffffffffffffffffffffffffffffffffffffffff168152602001600382015481526020016004820160009054906101000a900473ffffffffffffffffffffffffffffffffffffffff1673ffffffffffffffffffffffffffffffffffffffff1673ffffffffffffffffffffffffffffffffffffffff16815260200160058201548152602001600682015481526020016007820154815250509050600081604001518260600151604051602001610613929190612506565b604051602081830303815290604052805190602001209050428260e00151118015610654575060036000828152602001908152602001600020548260000151145b801561068f57508773ffffffffffffffffffffffffffffffffffffffff16826020015173ffffffffffffffffffffffffffffffffffffffff16145b1561083b576002600084815260200190815260200160002060405180610100016040529081600082015481526020016001820160009054906101000a900473ffffffffffffffffffffffffffffffffffffffff1673ffffffffffffffffffffffffffffffffffffffff1673ffffffffffffffffffffffffffffffffffffffff1681526020016002820160009054906101000a900473ffffffffffffffffffffffffffffffffffffffff1673ffffffffffffffffffffffffffffffffffffffff1673ffffffffffffffffffffffffffffffffffffffff168152602001600382015481526020016004820160009054906101000a900473ffffffffffffffffffffffffffffffffffffffff1673ffffffffffffffffffffffffffffffffffffffff1673ffffffffffffffffffffffffffffffffffffffff1681526020016005820154815260200160068201548152602001600782015481525050878581518110610820577f4e487b7100000000000000000000000000000000000000000000000000000000600052603260045260246000fd5b60200260200101819052506001846108389190612888565b93505b505080806108489061299c565b915050610498565b50505050919050565b606060006108676001611e83565b9050600080600190505b828111610a565760006002600083815260200190815260200160002060405180610100016040529081600082015481526020016001820160009054906101000a900473ffffffffffffffffffffffffffffffffffffffff1673ffffffffffffffffffffffffffffffffffffffff1673ffffffffffffffffffffffffffffffffffffffff1681526020016002820160009054906101000a900473ffffffffffffffffffffffffffffffffffffffff1673ffffffffffffffffffffffffffffffffffffffff1673ffffffffffffffffffffffffffffffffffffffff168152602001600382015481526020016004820160009054906101000a900473ffffffffffffffffffffffffffffffffffffffff1673ffffffffffffffffffffffffffffffffffffffff1673ffffffffffffffffffffffffffffffffffffffff168152602001600582015481526020016006820154815260200160078201548152505090506000816040015182606001516040516020016109ec929190612506565b604051602081830303815290604052805190602001209050428260e001511180610a2c575060036000828152602001908152602001600020548260000151145b15610a4157600184610a3e9190612888565b93505b50508080610a4e9061299c565b915050610871565b508067ffffffffffffffff811115610a97577f4e487b7100000000000000000000000000000000000000000000000000000000600052604160045260246000fd5b604051908082528060200260200182016040528015610ad057816020015b610abd611ea7565b815260200190600190039081610ab55790505b509250600080600190505b838111610e585760006002600083815260200190815260200160002060405180610100016040529081600082015481526020016001820160009054906101000a900473ffffffffffffffffffffffffffffffffffffffff1673ffffffffffffffffffffffffffffffffffffffff1673ffffffffffffffffffffffffffffffffffffffff1681526020016002820160009054906101000a900473ffffffffffffffffffffffffffffffffffffffff1673ffffffffffffffffffffffffffffffffffffffff1673ffffffffffffffffffffffffffffffffffffffff168152602001600382015481526020016004820160009054906101000a900473ffffffffffffffffffffffffffffffffffffffff1673ffffffffffffffffffffffffffffffffffffffff1673ffffffffffffffffffffffffffffffffffffffff16815260200160058201548152602001600682015481526020016007820154815250509050600081604001518260600151604051602001610c56929190612506565b604051602081830303815290604052805190602001209050428260e00151118015610c97575060036000828152602001908152602001600020548260000151145b15610e43576002600084815260200190815260200160002060405180610100016040529081600082015481526020016001820160009054906101000a900473ffffffffffffffffffffffffffffffffffffffff1673ffffffffffffffffffffffffffffffffffffffff1673ffffffffffffffffffffffffffffffffffffffff1681526020016002820160009054906101000a900473ffffffffffffffffffffffffffffffffffffffff1673ffffffffffffffffffffffffffffffffffffffff1673ffffffffffffffffffffffffffffffffffffffff168152602001600382015481526020016004820160009054906101000a900473ffffffffffffffffffffffffffffffffffffffff1673ffffffffffffffffffffffffffffffffffffffff1673ffffffffffffffffffffffffffffffffffffffff1681526020016005820154815260200160068201548152602001600782015481525050878581518110610e28577f4e487b7100000000000000000000000000000000000000000000000000000000600052603260045260246000fd5b6020026020010181905250600184610e409190612888565b93505b50508080610e509061299c565b915050610adb565b5050505090565b60026020528060005260406000206000915090508060000154908060010160009054906101000a900473ffffffffffffffffffffffffffffffffffffffff16908060020160009054906101000a900473ffffffffffffffffffffffffffffffffffffffff16908060030154908060040160009054906101000a900473ffffffffffffffffffffffffffffffffffffffff16908060050154908060060154908060070154905088565b610f116001611e83565b8111610f52576040517f08c379a0000000000000000000000000000000000000000000000000000000008152600401610f49906126c4565b60405180910390fd5b60006002600083815260200190815260200160002060405180610100016040529081600082015481526020016001820160009054906101000a900473ffffffffffffffffffffffffffffffffffffffff1673ffffffffffffffffffffffffffffffffffffffff1673ffffffffffffffffffffffffffffffffffffffff1681526020016002820160009054906101000a900473ffffffffffffffffffffffffffffffffffffffff1673ffffffffffffffffffffffffffffffffffffffff1673ffffffffffffffffffffffffffffffffffffffff168152602001600382015481526020016004820160009054906101000a900473ffffffffffffffffffffffffffffffffffffffff1673ffffffffffffffffffffffffffffffffffffffff1673ffffffffffffffffffffffffffffffffffffffff168152602001600582015481526020016006820154815260200160078201548152505090508060e0015142116110ef576040517f08c379a00000000000000000000000000000000000000000000000000000000081526004016110e6906126a4565b60405180910390fd5b60008160400151826060015160405160200161110c929190612506565b60405160208183030381529060405280519060200120905060006003600083815260200190815260200160002054141561117b576040517f08c379a0000000000000000000000000000000000000000000000000000000008152600401611172906125e4565b60405180910390fd5b816020015173ffffffffffffffffffffffffffffffffffffffff163373ffffffffffffffffffffffffffffffffffffffff16146111ed576040517f08c379a00000000000000000000000000000000000000000000000000000000081526004016111e490612664565b60405180910390fd5b6000826040015190508073ffffffffffffffffffffffffffffffffffffffff166342842e0e30856020015186606001516040518463ffffffff1660e01b815260040161123b93929190612547565b600060405180830381600087803b15801561125557600080fd5b505af1158015611269573d6000803e3d6000fd5b505050508260600151836040015173ffffffffffffffffffffffffffffffffffffffff1684600001517fa91854031867c01ff8c6d177e7d62482cf06dab93205e907bc96ff373ff9276d60405160405180910390a450505050565b6002600054141561130a576040517f08c379a000000000000000000000000000000000000000000000000000000000815260040161130190612724565b60405180910390fd5b600260008190555060008311611355576040517f08c379a000000000000000000000000000000000000000000000000000000000815260040161134c90612704565b60405180910390fd5b808211611397576040517f08c379a000000000000000000000000000000000000000000000000000000000815260040161138e90612624565b60405180910390fd5b600086866040516020016113ac929190612506565b604051602081830303815290604052805190602001209050600060036000838152602001908152602001600020541461141a576040517f08c379a0000000000000000000000000000000000000000000000000000000008152600401611411906126e4565b60405180910390fd5b600087905060008173ffffffffffffffffffffffffffffffffffffffff16636352211e896040518263ffffffff1660e01b815260040161145a9190612744565b60206040518083038186803b15801561147257600080fd5b505afa158015611486573d6000803e3d6000fd5b505050506040513d601f19601f820116820180604052508101906114aa9190612028565b905060008273ffffffffffffffffffffffffffffffffffffffff1663081812fc8a6040518263ffffffff1660e01b81526004016114e79190612744565b60206040518083038186803b1580156114ff57600080fd5b505afa158015611513573d6000803e3d6000fd5b505050506040513d601f19601f820116820180604052508101906115379190612028565b90508173ffffffffffffffffffffffffffffffffffffffff163373ffffffffffffffffffffffffffffffffffffffff16148061159e57508073ffffffffffffffffffffffffffffffffffffffff163373ffffffffffffffffffffffffffffffffffffffff16145b6115dd576040517f08c379a00000000000000000000000000000000000000000000000000000000081526004016115d490612604565b60405180910390fd5b6115e76001611e91565b60006115f36001611e83565b90506040518061010001604052808281526020013373ffffffffffffffffffffffffffffffffffffffff1681526020018c73ffffffffffffffffffffffffffffffffffffffff1681526020018b81526020018a73ffffffffffffffffffffffffffffffffffffffff16815260200189815260200188815260200187815250600260008381526020019081526020016000206000820151816000015560208201518160010160006101000a81548173ffffffffffffffffffffffffffffffffffffffff021916908373ffffffffffffffffffffffffffffffffffffffff16021790555060408201518160020160006101000a81548173ffffffffffffffffffffffffffffffffffffffff021916908373ffffffffffffffffffffffffffffffffffffffff1602179055506060820151816003015560808201518160040160006101000a81548173ffffffffffffffffffffffffffffffffffffffff021916908373ffffffffffffffffffffffffffffffffffffffff16021790555060a0820151816005015560c0820151816006015560e082015181600701559050508060036000878152602001908152602001600020819055508373ffffffffffffffffffffffffffffffffffffffff166342842e0e84308d6040518463ffffffff1660e01b81526004016117e393929190612547565b600060405180830381600087803b1580156117fd57600080fd5b505af1158015611811573d6000803e3d6000fd5b50505050898b73ffffffffffffffffffffffffffffffffffffffff16827f9b38a1b73ac8663f048cd3694ee3a188efca9dd57aa5ea17eaf329cd5e3d3cf860405160405180910390a450505050506001600081905550505050505050565b60036020528060005260406000206000915090505481565b600260005414156118cd576040517f08c379a00000000000000000000000000000000000000000000000000000000081526004016118c490612724565b60405180910390fd5b60026000819055506118df6001611e83565b8111611920576040517f08c379a0000000000000000000000000000000000000000000000000000000008152600401611917906126c4565b60405180910390fd5b60006002600083815260200190815260200160002060405180610100016040529081600082015481526020016001820160009054906101000a900473ffffffffffffffffffffffffffffffffffffffff1673ffffffffffffffffffffffffffffffffffffffff1673ffffffffffffffffffffffffffffffffffffffff1681526020016002820160009054906101000a900473ffffffffffffffffffffffffffffffffffffffff1673ffffffffffffffffffffffffffffffffffffffff1673ffffffffffffffffffffffffffffffffffffffff168152602001600382015481526020016004820160009054906101000a900473ffffffffffffffffffffffffffffffffffffffff1673ffffffffffffffffffffffffffffffffffffffff1673ffffffffffffffffffffffffffffffffffffffff168152602001600582015481526020016006820154815260200160078201548152505090508060e001514211611abd576040517f08c379a0000000000000000000000000000000000000000000000000000000008152600401611ab4906126a4565b60405180910390fd5b600081604001518260600151604051602001611ada929190612506565b604051602081830303815290604052805190602001209050600060036000838152602001908152602001600020541415611b49576040517f08c379a0000000000000000000000000000000000000000000000000000000008152600401611b40906125e4565b60405180910390fd5b600073ffffffffffffffffffffffffffffffffffffffff16826080015173ffffffffffffffffffffffffffffffffffffffff161415611c425760008260200151905060008173ffffffffffffffffffffffffffffffffffffffff168460a00151604051611bb590612532565b60006040518083038185875af1925050503d8060008114611bf2576040519150601f19603f3d011682016040523d82523d6000602084013e611bf7565b606091505b5050905080611c3b576040517f08c379a0000000000000000000000000000000000000000000000000000000008152600401611c3290612644565b60405180910390fd5b5050611db5565b6000826080015190508073ffffffffffffffffffffffffffffffffffffffff1663095ea7b3308560a001516040518363ffffffff1660e01b8152600401611c8a92919061257e565b602060405180830381600087803b158015611ca457600080fd5b505af1158015611cb8573d6000803e3d6000fd5b505050506040513d601f19601f82011682018060405250810190611cdc9190612155565b611d1b576040517f08c379a0000000000000000000000000000000000000000000000000000000008152600401611d1290612684565b60405180910390fd5b8073ffffffffffffffffffffffffffffffffffffffff166323b872dd3385602001518660a001516040518463ffffffff1660e01b8152600401611d6093929190612547565b602060405180830381600087803b158015611d7a57600080fd5b505af1158015611d8e573d6000803e3d6000fd5b505050506040513d601f19601f82011682018060405250810190611db29190612155565b50505b6000826040015190508073ffffffffffffffffffffffffffffffffffffffff166342842e0e303386606001516040518463ffffffff1660e01b8152600401611dff93929190612547565b600060405180830381600087803b158015611e1957600080fd5b505af1158015611e2d573d6000803e3d6000fd5b50505050833373ffffffffffffffffffffffffffffffffffffffff167f98cc0dcb37970d6ccb77508e214da5eb06dca04b81cf934ab6352701b4c996ff60405160405180910390a3505050600160008190555050565b600081600001549050919050565b6001816000016000828254019250508190555050565b60405180610100016040528060008152602001600073ffffffffffffffffffffffffffffffffffffffff168152602001600073ffffffffffffffffffffffffffffffffffffffff16815260200160008152602001600073ffffffffffffffffffffffffffffffffffffffff1681526020016000815260200160008152602001600081525090565b6000611f41611f3c84612802565b6127dd565b905082815260208101848484011115611f5957600080fd5b611f6484828561295c565b509392505050565b600081359050611f7b81612d85565b92915050565b600081519050611f9081612d85565b92915050565b600081519050611fa581612d9c565b92915050565b600081359050611fba81612db3565b92915050565b600082601f830112611fd157600080fd5b8135611fe1848260208601611f2e565b91505092915050565b600081359050611ff981612dca565b92915050565b60006020828403121561201157600080fd5b600061201f84828501611f6c565b91505092915050565b60006020828403121561203a57600080fd5b600061204884828501611f81565b91505092915050565b6000806000806080858703121561206757600080fd5b600061207587828801611f6c565b945050602061208687828801611f6c565b935050604061209787828801611fea565b925050606085013567ffffffffffffffff8111156120b457600080fd5b6120c087828801611fc0565b91505092959194509250565b60008060008060008060c087890312156120e557600080fd5b60006120f389828a01611f6c565b965050602061210489828a01611fea565b955050604061211589828a01611f6c565b945050606061212689828a01611fea565b935050608061213789828a01611fea565b92505060a061214889828a01611fea565b9150509295509295509295565b60006020828403121561216757600080fd5b600061217584828501611f96565b91505092915050565b60006020828403121561219057600080fd5b600061219e84828501611fab565b91505092915050565b6000602082840312156121b957600080fd5b60006121c784828501611fea565b91505092915050565b60006121dc838361242f565b6101008301905092915050565b6121f2816128de565b82525050565b612201816128de565b82525050565b612218612213826128de565b6129e5565b82525050565b600061222982612843565b612233818561285b565b935061223e83612833565b8060005b8381101561226f57815161225688826121d0565b97506122618361284e565b925050600181019050612242565b5085935050505092915050565b61228581612906565b82525050565b6000612298602c83612877565b91506122a382612a8f565b604082019050919050565b60006122bb603583612877565b91506122c682612ade565b604082019050919050565b60006122de603183612877565b91506122e982612b2d565b604082019050919050565b6000612301602983612877565b915061230c82612b7c565b604082019050919050565b6000612324602183612877565b915061232f82612bcb565b604082019050919050565b6000612347603383612877565b915061235282612c1a565b604082019050919050565b600061236a60008361286c565b915061237582612c69565b600082019050919050565b600061238d601d83612877565b915061239882612c6c565b602082019050919050565b60006123b0601f83612877565b91506123bb82612c95565b602082019050919050565b60006123d3603483612877565b91506123de82612cbe565b604082019050919050565b60006123f6602683612877565b915061240182612d0d565b604082019050919050565b6000612419601f83612877565b915061242482612d5c565b602082019050919050565b6101008201600082015161244660008501826124d1565b50602082015161245960208501826121e9565b50604082015161246c60408501826121e9565b50606082015161247f60608501826124d1565b50608082015161249260808501826121e9565b5060a08201516124a560a08501826124d1565b5060c08201516124b860c08501826124d1565b5060e08201516124cb60e08501826124d1565b50505050565b6124da81612952565b82525050565b6124e981612952565b82525050565b6125006124fb82612952565b612a09565b82525050565b60006125128285612207565b60148201915061252282846124ef565b6020820191508190509392505050565b600061253d8261235d565b9150819050919050565b600060608201905061255c60008301866121f8565b61256960208301856121f8565b61257660408301846124e0565b949350505050565b600060408201905061259360008301856121f8565b6125a060208301846124e0565b9392505050565b600060208201905081810360008301526125c1818461221e565b905092915050565b60006020820190506125de600083018461227c565b92915050565b600060208201905081810360008301526125fd8161228b565b9050919050565b6000602082019050818103600083015261261d816122ae565b9050919050565b6000602082019050818103600083015261263d816122d1565b9050919050565b6000602082019050818103600083015261265d816122f4565b9050919050565b6000602082019050818103600083015261267d81612317565b9050919050565b6000602082019050818103600083015261269d8161233a565b9050919050565b600060208201905081810360008301526126bd81612380565b9050919050565b600060208201905081810360008301526126dd816123a3565b9050919050565b600060208201905081810360008301526126fd816123c6565b9050919050565b6000602082019050818103600083015261271d816123e9565b9050919050565b6000602082019050818103600083015261273d8161240c565b9050919050565b600060208201905061275960008301846124e0565b92915050565b600061010082019050612775600083018b6124e0565b612782602083018a6121f8565b61278f60408301896121f8565b61279c60608301886124e0565b6127a960808301876121f8565b6127b660a08301866124e0565b6127c360c08301856124e0565b6127d060e08301846124e0565b9998505050505050505050565b60006127e76127f8565b90506127f3828261296b565b919050565b6000604051905090565b600067ffffffffffffffff82111561281d5761281c612a42565b5b61282682612a71565b9050602081019050919050565b6000819050602082019050919050565b600081519050919050565b6000602082019050919050565b600082825260208201905092915050565b600081905092915050565b600082825260208201905092915050565b600061289382612952565b915061289e83612952565b9250827fffffffffffffffffffffffffffffffffffffffffffffffffffffffffffffffff038211156128d3576128d2612a13565b5b828201905092915050565b60006128e982612932565b9050919050565b60008115159050919050565b6000819050919050565b60007fffffffff0000000000000000000000000000000000000000000000000000000082169050919050565b600073ffffffffffffffffffffffffffffffffffffffff82169050919050565b6000819050919050565b82818337600083830152505050565b61297482612a71565b810181811067ffffffffffffffff8211171561299357612992612a42565b5b80604052505050565b60006129a782612952565b91507fffffffffffffffffffffffffffffffffffffffffffffffffffffffffffffffff8214156129da576129d9612a13565b5b600182019050919050565b60006129f0826129f7565b9050919050565b6000612a0282612a82565b9050919050565b6000819050919050565b7f4e487b7100000000000000000000000000000000000000000000000000000000600052601160045260246000fd5b7f4e487b7100000000000000000000000000000000000000000000000000000000600052604160045260246000fd5b6000601f19601f8301169050919050565b60008160601b9050919050565b7f4d61726b6574706c6163653a204974656d206973206e6f74206c69737465642060008201527f796574206e6f7220736f6c640000000000000000000000000000000000000000602082015250565b7f4d61726b6574706c6163653a2043616c6c6572206973206e6f74206f776e657260008201527f206e6f7220617070726f76656420666f7220616c6c0000000000000000000000602082015250565b7f4d61726b6574706c6163653a2053616c65207374617274206d7573742067726160008201527f746572207468616e2073616c6520656e64000000000000000000000000000000602082015250565b7f4d61726b6574706c6163653a204e617469766520746f6b656e207472616e736660008201527f6572206661696c65640000000000000000000000000000000000000000000000602082015250565b7f4d61726b6574706c6163653a2043616c6c6572206973206e6f742073656c6c6560008201527f7200000000000000000000000000000000000000000000000000000000000000602082015250565b7f4d61726b6574706c6163653a2043616c6c6572206973206e6f7420617070726f60008201527f76656420666f72206d61726b6574706c61636500000000000000000000000000602082015250565b50565b7f4d61726b6574706c6163653a204974656d206861732065787069726564000000600082015250565b7f4d61726b6574706c6163653a204974656d20646f6573206e6f74206578697400600082015250565b7f4d61726b6574706c6163653a204974656d206861766520616c7265616479206c60008201527f6973746564206f6e206d61726b6574706c616365000000000000000000000000602082015250565b7f4d61726b6574706c6163653a205072696365206d75737420677265617465722060008201527f7468616e20300000000000000000000000000000000000000000000000000000602082015250565b7f5265656e7472616e637947756172643a207265656e7472616e742063616c6c00600082015250565b612d8e816128de565b8114612d9957600080fd5b50565b612da5816128f0565b8114612db057600080fd5b50565b612dbc816128fc565b8114612dc757600080fd5b50565b612dd381612952565b8114612dde57600080fd5b5056fea264697066735822122013739efeabec234c13588bdbed2fcc64d759dd4d0b17b1c13a31597aca4d168264736f6c63430008040033",
  "immutableReferences": {},
  "source": "// SPDX-License-Identifier: MIT\r\npragma solidity >=0.4.22 <0.9.0;\r\n\r\nimport \"@openzeppelin/contracts/utils/Counters.sol\";\r\nimport \"@openzeppelin/contracts/security/ReentrancyGuard.sol\";\r\nimport \"@openzeppelin/contracts/token/ERC721/utils/ERC721Holder.sol\";\r\nimport \"@openzeppelin/contracts/token/ERC20/IERC20.sol\";\r\nimport \"./NFT721.sol\";\r\n\r\ncontract Marketplace is ReentrancyGuard, ERC721Holder {\r\n    using CountersUpgradeable for CountersUpgradeable.Counter;\r\n\r\n    ///@dev item index, start from 1\r\n    CountersUpgradeable.Counter private _itemIdCounter;\r\n\r\n    struct MarketItem {\r\n        uint256 itemIndex;\r\n        address seller;\r\n        address assetContract;\r\n        uint256 tokenId;\r\n        address currency; // if currency == 0x..0, it is native token\r\n        uint256 price;\r\n        uint256 saleStart;\r\n        uint256 saleEnd;\r\n    }\r\n\r\n    ///@dev itemIndex => item item\r\n    mapping(uint256 => MarketItem) public marketItems;\r\n\r\n    ///@dev hash(assetContract, tokenId) => listingIndex;\r\n    mapping(bytes32 => uint256) public listings;\r\n\r\n    event ListedNFT(uint256 indexed itemIndex, address indexed assetContract, uint256 indexed tokenId);\r\n    event UnlistedNFT(uint256 indexed itemIndex, address indexed assetContract, uint256 indexed tokenId);\r\n    event BoughtNFT(address indexed buyer, uint256 indexed itemIndex);\r\n\r\n    function listNft(\r\n        address assetContract,\r\n        uint256 tokenId,\r\n        address currency,\r\n        uint256 price,\r\n        uint256 saleStart,\r\n        uint256 saleEnd\r\n    ) external nonReentrant {\r\n        require(price > 0, \"Marketplace: Price must greater than 0\");\r\n        require(saleStart > saleEnd, \"Marketplace: Sale start must grater than sale end\");\r\n\r\n        bytes32 itemHash = keccak256(abi.encodePacked(assetContract, tokenId));\r\n        require(listings[itemHash] == 0, \"Marketplace: Item have already listed on marketplace\");\r\n\r\n        NFT721 nft = NFT721(assetContract);\r\n        address owner = nft.ownerOf(tokenId);\r\n        address accountApproved = nft.getApproved(tokenId);\r\n        require(msg.sender == owner || msg.sender == accountApproved, \"Marketplace: Caller is not owner nor approved for all\");\r\n\r\n        _itemIdCounter.increment();\r\n        uint256 itemIndex = _itemIdCounter.current();\r\n        marketItems[itemIndex] = MarketItem(\r\n            itemIndex, \r\n            msg.sender, \r\n            assetContract, \r\n            tokenId, \r\n            currency, \r\n            price, \r\n            saleStart, \r\n            saleEnd\r\n        );\r\n        listings[itemHash] = itemIndex;\r\n\r\n        nft.safeTransferFrom(owner, address(this), tokenId);\r\n\r\n        emit ListedNFT(itemIndex, assetContract, tokenId);\r\n    }\r\n\r\n    function unlistNft(uint256 itemIndex) external {\r\n        require(itemIndex > _itemIdCounter.current(), \"Marketplace: Item does not exit\");\r\n        \r\n        MarketItem memory item = marketItems[itemIndex];\r\n        require(block.timestamp > item.saleEnd, \"Marketplace: Item has expired\");\r\n        bytes32 itemHash = keccak256(abi.encodePacked(item.assetContract, item.tokenId));\r\n        require(listings[itemHash] != 0, \"Marketplace: Item is not listed yet nor sold\");\r\n        require(msg.sender == item.seller, \"Marketplace: Caller is not seller\");\r\n\r\n        NFT721 nft = NFT721(item.assetContract);\r\n        nft.safeTransferFrom(address(this), item.seller, item.tokenId);\r\n\r\n        emit UnlistedNFT(item.itemIndex, item.assetContract, item.tokenId);\r\n    }\r\n\r\n    function buy(uint256 itemIndex) external nonReentrant {\r\n        require(itemIndex > _itemIdCounter.current(), \"Marketplace: Item does not exit\");\r\n        \r\n        MarketItem memory item = marketItems[itemIndex];\r\n        require(block.timestamp > item.saleEnd, \"Marketplace: Item has expired\");\r\n        bytes32 itemHash = keccak256(abi.encodePacked(item.assetContract, item.tokenId));\r\n        require(listings[itemHash] != 0, \"Marketplace: Item is not listed yet nor sold\");\r\n\r\n        // payment with native token\r\n        if (item.currency == address(0)){\r\n            address payable to = payable(item.seller);\r\n            (bool success, ) = to.call{ value: item.price }(\"\");\r\n            require(success, \"Marketplace: Native token transfer failed\");\r\n        }\r\n        // payment with erc20 token\r\n        else {\r\n            IERC20 paymentToken = IERC20(item.currency);\r\n            require(paymentToken.approve(address(this), item.price), \"Marketplace: Caller is not approved for marketplace\");\r\n            paymentToken.transferFrom(msg.sender, item.seller, item.price);\r\n        }\r\n        NFT721 nft = NFT721(item.assetContract);\r\n        nft.safeTransferFrom(address(this), msg.sender, item.tokenId);\r\n\r\n        emit BoughtNFT(msg.sender, itemIndex);\r\n    }\r\n\r\n    ///@dev get all available items\r\n    function getAllItems() external view returns(MarketItem[] memory items) {\r\n        uint256 numOfItems = _itemIdCounter.current();\r\n        uint256 numOfAvailableItems = 0;\r\n\r\n        for(uint256 i = 1; i <= numOfItems; i++){\r\n            MarketItem memory item = marketItems[i];\r\n            bytes32 itemHash = keccak256(abi.encodePacked(item.assetContract, item.tokenId));\r\n           if (item.saleEnd > block.timestamp || item.itemIndex == listings[itemHash]){\r\n               numOfAvailableItems += 1;\r\n           }\r\n        }\r\n\r\n        items = new MarketItem[](numOfAvailableItems);\r\n        uint256 counter = 0;\r\n        for(uint256 i = 1; i <= numOfItems; i++){\r\n            MarketItem memory item = marketItems[i];\r\n            bytes32 itemHash = keccak256(abi.encodePacked(item.assetContract, item.tokenId));\r\n           if (item.saleEnd > block.timestamp && item.itemIndex == listings[itemHash]){\r\n               items[counter] = marketItems[i];\r\n               counter += 1;\r\n           }\r\n        }\r\n    }\r\n\r\n    ///@dev get all available items of `seller`\r\n    function getItemsBySeller(address seller) external view returns(MarketItem[] memory items){\r\n        uint256 numOfItems = _itemIdCounter.current();\r\n        uint256 numOfAvailableItems = 0;\r\n\r\n        for(uint256 i = 1; i <= numOfItems; i++){\r\n            MarketItem memory item = marketItems[i];\r\n            bytes32 itemHash = keccak256(abi.encodePacked(item.assetContract, item.tokenId));\r\n           if (item.saleEnd > block.timestamp && item.itemIndex == listings[itemHash] && item.seller == seller){\r\n               numOfAvailableItems += 1;\r\n           }\r\n        }\r\n\r\n        items = new MarketItem[](numOfAvailableItems);\r\n        uint256 counter = 0;\r\n        for(uint256 i = 1; i <= numOfItems; i++){\r\n            MarketItem memory item = marketItems[i];\r\n            bytes32 itemHash = keccak256(abi.encodePacked(item.assetContract, item.tokenId));\r\n           if (item.saleEnd > block.timestamp && item.itemIndex == listings[itemHash] && item.seller == seller){\r\n               items[counter] = marketItems[i];\r\n               counter += 1;\r\n           }\r\n        }\r\n    }\r\n}\r\n",
  "sourcePath": "E:\\LamViec\\STECH_Corp\\nft-marketplace\\src\\contracts\\contracts\\Marketplace.sol",
  "compiler": {
    "name": "solc",
    "version": "0.8.4+commit.c7e474f2.Emscripten.clang"
  },
  "schemaVersion": "3.4.4",
  "updatedAt": "2022-02-19T07:40:02.820Z",
  "devdoc": {
    "kind": "dev",
    "methods": {
      "getAllItems()": {
        "details": "get all available items"
      },
      "getItemsBySeller(address)": {
        "details": "get all available items of `seller`"
      },
      "onERC721Received(address,address,uint256,bytes)": {
        "details": "See {IERC721Receiver-onERC721Received}. Always returns `IERC721Receiver.onERC721Received.selector`."
      }
    },
    "stateVariables": {
      "_itemIdCounter": {
        "details": "item index, start from 1"
      },
      "listings": {
        "details": "hash(assetContract, tokenId) => listingIndex;"
      },
      "marketItems": {
        "details": "itemIndex => item item"
      }
    },
    "version": 1
  },
  "userdoc": {
    "kind": "user",
    "methods": {},
    "version": 1
  }
}