{
  "contractName": "Marketplace",
  "abi": [
    {
      "inputs": [],
      "stateMutability": "nonpayable",
      "type": "constructor"
    },
    {
      "anonymous": false,
      "inputs": [
        {
          "indexed": true,
          "internalType": "uint256",
          "name": "index",
          "type": "uint256"
        },
        {
          "indexed": true,
          "internalType": "address",
          "name": "currency",
          "type": "address"
        }
      ],
      "name": "AddedWhitelist",
      "type": "event"
    },
    {
      "anonymous": false,
      "inputs": [
        {
          "indexed": true,
          "internalType": "address",
          "name": "buyer",
          "type": "address"
        },
        {
          "indexed": true,
          "internalType": "uint256",
          "name": "itemIndex",
          "type": "uint256"
        }
      ],
      "name": "BoughtNFT",
      "type": "event"
    },
    {
      "anonymous": false,
      "inputs": [
        {
          "indexed": true,
          "internalType": "uint256",
          "name": "itemIndex",
          "type": "uint256"
        },
        {
          "indexed": true,
          "internalType": "address",
          "name": "assetContract",
          "type": "address"
        },
        {
          "indexed": true,
          "internalType": "uint256",
          "name": "tokenId",
          "type": "uint256"
        }
      ],
      "name": "ListedNFT",
      "type": "event"
    },
    {
      "anonymous": false,
      "inputs": [
        {
          "indexed": true,
          "internalType": "address",
          "name": "previousOwner",
          "type": "address"
        },
        {
          "indexed": true,
          "internalType": "address",
          "name": "newOwner",
          "type": "address"
        }
      ],
      "name": "OwnershipTransferred",
      "type": "event"
    },
    {
      "anonymous": false,
      "inputs": [
        {
          "indexed": true,
          "internalType": "uint256",
          "name": "itemIndex",
          "type": "uint256"
        },
        {
          "indexed": true,
          "internalType": "address",
          "name": "assetContract",
          "type": "address"
        },
        {
          "indexed": true,
          "internalType": "uint256",
          "name": "tokenId",
          "type": "uint256"
        }
      ],
      "name": "UnlistedNFT",
      "type": "event"
    },
    {
      "anonymous": false,
      "inputs": [
        {
          "indexed": true,
          "internalType": "uint256",
          "name": "index",
          "type": "uint256"
        },
        {
          "indexed": true,
          "internalType": "address",
          "name": "currency",
          "type": "address"
        },
        {
          "indexed": false,
          "internalType": "bool",
          "name": "isAvailable",
          "type": "bool"
        }
      ],
      "name": "UpdatedWhitelist",
      "type": "event"
    },
    {
      "inputs": [
        {
          "internalType": "address",
          "name": "currency",
          "type": "address"
        }
      ],
      "name": "addWhitelist",
      "outputs": [],
      "stateMutability": "nonpayable",
      "type": "function"
    },
    {
      "inputs": [],
      "name": "getWhitelist",
      "outputs": [
        {
          "components": [
            {
              "internalType": "uint256",
              "name": "index",
              "type": "uint256"
            },
            {
              "internalType": "address",
              "name": "currencyAddress",
              "type": "address"
            },
            {
              "internalType": "bool",
              "name": "isAvailable",
              "type": "bool"
            }
          ],
          "internalType": "struct TransferExecutor.PaymentCurrency[]",
          "name": "whitelist",
          "type": "tuple[]"
        }
      ],
      "stateMutability": "view",
      "type": "function"
    },
    {
      "inputs": [
        {
          "internalType": "bytes32",
          "name": "",
          "type": "bytes32"
        }
      ],
      "name": "listings",
      "outputs": [
        {
          "internalType": "uint256",
          "name": "",
          "type": "uint256"
        }
      ],
      "stateMutability": "view",
      "type": "function"
    },
    {
      "inputs": [
        {
          "internalType": "uint256",
          "name": "",
          "type": "uint256"
        }
      ],
      "name": "marketItems",
      "outputs": [
        {
          "internalType": "uint256",
          "name": "itemIndex",
          "type": "uint256"
        },
        {
          "internalType": "address",
          "name": "seller",
          "type": "address"
        },
        {
          "internalType": "address",
          "name": "assetContract",
          "type": "address"
        },
        {
          "internalType": "uint256",
          "name": "tokenId",
          "type": "uint256"
        },
        {
          "internalType": "address",
          "name": "currency",
          "type": "address"
        },
        {
          "internalType": "uint256",
          "name": "price",
          "type": "uint256"
        },
        {
          "internalType": "uint256",
          "name": "saleStart",
          "type": "uint256"
        },
        {
          "internalType": "uint256",
          "name": "saleEnd",
          "type": "uint256"
        }
      ],
      "stateMutability": "view",
      "type": "function"
    },
    {
      "inputs": [
        {
          "internalType": "address",
          "name": "",
          "type": "address"
        },
        {
          "internalType": "address",
          "name": "",
          "type": "address"
        },
        {
          "internalType": "uint256",
          "name": "",
          "type": "uint256"
        },
        {
          "internalType": "bytes",
          "name": "",
          "type": "bytes"
        }
      ],
      "name": "onERC721Received",
      "outputs": [
        {
          "internalType": "bytes4",
          "name": "",
          "type": "bytes4"
        }
      ],
      "stateMutability": "nonpayable",
      "type": "function"
    },
    {
      "inputs": [],
      "name": "owner",
      "outputs": [
        {
          "internalType": "address",
          "name": "",
          "type": "address"
        }
      ],
      "stateMutability": "view",
      "type": "function"
    },
    {
      "inputs": [],
      "name": "renounceOwnership",
      "outputs": [],
      "stateMutability": "nonpayable",
      "type": "function"
    },
    {
      "inputs": [
        {
          "internalType": "address",
          "name": "newOwner",
          "type": "address"
        }
      ],
      "name": "transferOwnership",
      "outputs": [],
      "stateMutability": "nonpayable",
      "type": "function"
    },
    {
      "inputs": [
        {
          "internalType": "uint256",
          "name": "index",
          "type": "uint256"
        },
        {
          "internalType": "bool",
          "name": "_isAvailable",
          "type": "bool"
        }
      ],
      "name": "updateWhitelist",
      "outputs": [],
      "stateMutability": "nonpayable",
      "type": "function"
    },
    {
      "inputs": [
        {
          "internalType": "address",
          "name": "assetContract",
          "type": "address"
        },
        {
          "internalType": "uint256",
          "name": "tokenId",
          "type": "uint256"
        },
        {
          "internalType": "address",
          "name": "currency",
          "type": "address"
        },
        {
          "internalType": "uint256",
          "name": "price",
          "type": "uint256"
        },
        {
          "internalType": "uint256",
          "name": "saleStart",
          "type": "uint256"
        },
        {
          "internalType": "uint256",
          "name": "saleEnd",
          "type": "uint256"
        }
      ],
      "name": "listNft",
      "outputs": [],
      "stateMutability": "nonpayable",
      "type": "function"
    },
    {
      "inputs": [
        {
          "internalType": "uint256",
          "name": "itemIndex",
          "type": "uint256"
        }
      ],
      "name": "unlistNft",
      "outputs": [],
      "stateMutability": "nonpayable",
      "type": "function"
    },
    {
      "inputs": [
        {
          "internalType": "uint256",
          "name": "itemIndex",
          "type": "uint256"
        }
      ],
      "name": "buy",
      "outputs": [],
      "stateMutability": "nonpayable",
      "type": "function"
    },
    {
      "inputs": [],
      "name": "getAllItems",
      "outputs": [
        {
          "components": [
            {
              "internalType": "uint256",
              "name": "itemIndex",
              "type": "uint256"
            },
            {
              "internalType": "address",
              "name": "seller",
              "type": "address"
            },
            {
              "internalType": "address",
              "name": "assetContract",
              "type": "address"
            },
            {
              "internalType": "uint256",
              "name": "tokenId",
              "type": "uint256"
            },
            {
              "internalType": "address",
              "name": "currency",
              "type": "address"
            },
            {
              "internalType": "uint256",
              "name": "price",
              "type": "uint256"
            },
            {
              "internalType": "uint256",
              "name": "saleStart",
              "type": "uint256"
            },
            {
              "internalType": "uint256",
              "name": "saleEnd",
              "type": "uint256"
            }
          ],
          "internalType": "struct Marketplace.MarketItem[]",
          "name": "items",
          "type": "tuple[]"
        }
      ],
      "stateMutability": "view",
      "type": "function"
    },
    {
      "inputs": [
        {
          "internalType": "address",
          "name": "seller",
          "type": "address"
        }
      ],
      "name": "getItemsBySeller",
      "outputs": [
        {
          "components": [
            {
              "internalType": "uint256",
              "name": "itemIndex",
              "type": "uint256"
            },
            {
              "internalType": "address",
              "name": "seller",
              "type": "address"
            },
            {
              "internalType": "address",
              "name": "assetContract",
              "type": "address"
            },
            {
              "internalType": "uint256",
              "name": "tokenId",
              "type": "uint256"
            },
            {
              "internalType": "address",
              "name": "currency",
              "type": "address"
            },
            {
              "internalType": "uint256",
              "name": "price",
              "type": "uint256"
            },
            {
              "internalType": "uint256",
              "name": "saleStart",
              "type": "uint256"
            },
            {
              "internalType": "uint256",
              "name": "saleEnd",
              "type": "uint256"
            }
          ],
          "internalType": "struct Marketplace.MarketItem[]",
          "name": "items",
          "type": "tuple[]"
        }
      ],
      "stateMutability": "view",
      "type": "function"
    }
  ],
  "bytecode": "0x60806040523480156200001157600080fd5b5060016000819055506200003a6200002e6200005260201b60201c565b6200005a60201b60201c565b6200004c60006200012060201b60201c565b62000279565b600033905090565b6000600160009054906101000a900473ffffffffffffffffffffffffffffffffffffffff16905081600160006101000a81548173ffffffffffffffffffffffffffffffffffffffff021916908373ffffffffffffffffffffffffffffffffffffffff1602179055508173ffffffffffffffffffffffffffffffffffffffff168173ffffffffffffffffffffffffffffffffffffffff167f8be0079c531659141344cd1fd0a4f28419497f9722a3daafe3b4186f6b6457e060405160405180910390a35050565b60006200013960026200025560201b6200236a1760201c565b905060405180606001604052808281526020018373ffffffffffffffffffffffffffffffffffffffff16815260200160011515815250600360008381526020019081526020016000206000820151816000015560208201518160010160006101000a81548173ffffffffffffffffffffffffffffffffffffffff021916908373ffffffffffffffffffffffffffffffffffffffff16021790555060408201518160010160146101000a81548160ff0219169083151502179055509050506200020d60026200026360201b620023781760201c565b8173ffffffffffffffffffffffffffffffffffffffff16817fb2760a271cede39b7df6c9c00b82b20a64f6dcddec53762dd0da9be314a6a9cb60405160405180910390a35050565b600081600001549050919050565b6001816000016000828254019250508190555050565b613ace80620002896000396000f3fe608060405234801561001057600080fd5b50600436106100ea5760003560e01c8063a19b80d31161008c578063d01f63f511610066578063d01f63f514610250578063d96a094a1461026e578063f2fde38b1461028a578063f80f5dd5146102a6576100ea565b8063a19b80d3146101e8578063c18b8db414610204578063c8b2734914610234576100ea565b806351f28e14116100c857806351f28e141461016d578063715018a6146101a45780638da5cb5b146101ae5780639e75689c146101cc576100ea565b8063150b7a02146100ef57806349bf3efb1461011f5780634ba1d6aa1461014f575b600080fd5b610109600480360381019061010491906129f7565b6102c2565b6040516101169190613132565b60405180910390f35b610139600480360381019061013491906129a5565b6102d6565b60405161014691906130d3565b60405180910390f35b61015761094f565b60405161016491906130d3565b60405180910390f35b61018760048036038101906101829190612b89565b610f4f565b60405161019b989796959493929190613308565b60405180910390f35b6101ac610ff7565b005b6101b661107f565b6040516101c39190613081565b60405180910390f35b6101e660048036038101906101e19190612b89565b6110a9565b005b61020260048036038101906101fd9190612aae565b61147f565b005b61021e60048036038101906102199190612b60565b611a79565b60405161022b91906132ed565b60405180910390f35b61024e60048036038101906102499190612bb2565b611a91565b005b610258611be7565b60405161026591906130f5565b60405180910390f35b61028860048036038101906102839190612b89565b611d73565b005b6102a4600480360381019061029f91906129a5565b6121ea565b005b6102c060048036038101906102bb91906129a5565b6122e2565b005b600063150b7a0260e01b9050949350505050565b606060006102e4600461236a565b90506000805b8281101561050c5760006005600083815260200190815260200160002060405180610100016040529081600082015481526020016001820160009054906101000a900473ffffffffffffffffffffffffffffffffffffffff1673ffffffffffffffffffffffffffffffffffffffff1673ffffffffffffffffffffffffffffffffffffffff1681526020016002820160009054906101000a900473ffffffffffffffffffffffffffffffffffffffff1673ffffffffffffffffffffffffffffffffffffffff1673ffffffffffffffffffffffffffffffffffffffff168152602001600382015481526020016004820160009054906101000a900473ffffffffffffffffffffffffffffffffffffffff1673ffffffffffffffffffffffffffffffffffffffff1673ffffffffffffffffffffffffffffffffffffffff16815260200160058201548152602001600682015481526020016007820154815250509050600081604001518260600151604051602001610466929190613040565b604051602081830303815290604052805190602001209050428260e001511180156104a7575060066000828152602001908152602001600020548260000151145b80156104e257508673ffffffffffffffffffffffffffffffffffffffff16826020015173ffffffffffffffffffffffffffffffffffffffff16145b156104f7576001846104f49190613493565b93505b50508080610504906135db565b9150506102ea565b508067ffffffffffffffff81111561054d577f4e487b7100000000000000000000000000000000000000000000000000000000600052604160045260246000fd5b60405190808252806020026020018201604052801561058657816020015b6105736127ea565b81526020019060019003908161056b5790505b5092506000805b838110156109465760006005600083815260200190815260200160002060405180610100016040529081600082015481526020016001820160009054906101000a900473ffffffffffffffffffffffffffffffffffffffff1673ffffffffffffffffffffffffffffffffffffffff1673ffffffffffffffffffffffffffffffffffffffff1681526020016002820160009054906101000a900473ffffffffffffffffffffffffffffffffffffffff1673ffffffffffffffffffffffffffffffffffffffff1673ffffffffffffffffffffffffffffffffffffffff168152602001600382015481526020016004820160009054906101000a900473ffffffffffffffffffffffffffffffffffffffff1673ffffffffffffffffffffffffffffffffffffffff1673ffffffffffffffffffffffffffffffffffffffff16815260200160058201548152602001600682015481526020016007820154815250509050600081604001518260600151604051602001610709929190613040565b604051602081830303815290604052805190602001209050428260e0015111801561074a575060066000828152602001908152602001600020548260000151145b801561078557508773ffffffffffffffffffffffffffffffffffffffff16826020015173ffffffffffffffffffffffffffffffffffffffff16145b15610931576005600084815260200190815260200160002060405180610100016040529081600082015481526020016001820160009054906101000a900473ffffffffffffffffffffffffffffffffffffffff1673ffffffffffffffffffffffffffffffffffffffff1673ffffffffffffffffffffffffffffffffffffffff1681526020016002820160009054906101000a900473ffffffffffffffffffffffffffffffffffffffff1673ffffffffffffffffffffffffffffffffffffffff1673ffffffffffffffffffffffffffffffffffffffff168152602001600382015481526020016004820160009054906101000a900473ffffffffffffffffffffffffffffffffffffffff1673ffffffffffffffffffffffffffffffffffffffff1673ffffffffffffffffffffffffffffffffffffffff1681526020016005820154815260200160068201548152602001600782015481525050878581518110610916577f4e487b7100000000000000000000000000000000000000000000000000000000600052603260045260246000fd5b602002602001018190525060018461092e9190613493565b93505b5050808061093e906135db565b91505061058d565b50505050919050565b6060600061095d600461236a565b90506000805b82811015610b495760006005600083815260200190815260200160002060405180610100016040529081600082015481526020016001820160009054906101000a900473ffffffffffffffffffffffffffffffffffffffff1673ffffffffffffffffffffffffffffffffffffffff1673ffffffffffffffffffffffffffffffffffffffff1681526020016002820160009054906101000a900473ffffffffffffffffffffffffffffffffffffffff1673ffffffffffffffffffffffffffffffffffffffff1673ffffffffffffffffffffffffffffffffffffffff168152602001600382015481526020016004820160009054906101000a900473ffffffffffffffffffffffffffffffffffffffff1673ffffffffffffffffffffffffffffffffffffffff1673ffffffffffffffffffffffffffffffffffffffff16815260200160058201548152602001600682015481526020016007820154815250509050600081604001518260600151604051602001610adf929190613040565b604051602081830303815290604052805190602001209050428260e001511180610b1f575060066000828152602001908152602001600020548260000151145b15610b3457600184610b319190613493565b93505b50508080610b41906135db565b915050610963565b508067ffffffffffffffff811115610b8a577f4e487b7100000000000000000000000000000000000000000000000000000000600052604160045260246000fd5b604051908082528060200260200182016040528015610bc357816020015b610bb06127ea565b815260200190600190039081610ba85790505b5092506000805b83811015610f485760006005600083815260200190815260200160002060405180610100016040529081600082015481526020016001820160009054906101000a900473ffffffffffffffffffffffffffffffffffffffff1673ffffffffffffffffffffffffffffffffffffffff1673ffffffffffffffffffffffffffffffffffffffff1681526020016002820160009054906101000a900473ffffffffffffffffffffffffffffffffffffffff1673ffffffffffffffffffffffffffffffffffffffff1673ffffffffffffffffffffffffffffffffffffffff168152602001600382015481526020016004820160009054906101000a900473ffffffffffffffffffffffffffffffffffffffff1673ffffffffffffffffffffffffffffffffffffffff1673ffffffffffffffffffffffffffffffffffffffff16815260200160058201548152602001600682015481526020016007820154815250509050600081604001518260600151604051602001610d46929190613040565b604051602081830303815290604052805190602001209050428260e00151118015610d87575060066000828152602001908152602001600020548260000151145b15610f33576005600084815260200190815260200160002060405180610100016040529081600082015481526020016001820160009054906101000a900473ffffffffffffffffffffffffffffffffffffffff1673ffffffffffffffffffffffffffffffffffffffff1673ffffffffffffffffffffffffffffffffffffffff1681526020016002820160009054906101000a900473ffffffffffffffffffffffffffffffffffffffff1673ffffffffffffffffffffffffffffffffffffffff1673ffffffffffffffffffffffffffffffffffffffff168152602001600382015481526020016004820160009054906101000a900473ffffffffffffffffffffffffffffffffffffffff1673ffffffffffffffffffffffffffffffffffffffff1673ffffffffffffffffffffffffffffffffffffffff1681526020016005820154815260200160068201548152602001600782015481525050878581518110610f18577f4e487b7100000000000000000000000000000000000000000000000000000000600052603260045260246000fd5b6020026020010181905250600184610f309190613493565b93505b50508080610f40906135db565b915050610bca565b5050505090565b60056020528060005260406000206000915090508060000154908060010160009054906101000a900473ffffffffffffffffffffffffffffffffffffffff16908060020160009054906101000a900473ffffffffffffffffffffffffffffffffffffffff16908060030154908060040160009054906101000a900473ffffffffffffffffffffffffffffffffffffffff16908060050154908060060154908060070154905088565b610fff61238e565b73ffffffffffffffffffffffffffffffffffffffff1661101d61107f565b73ffffffffffffffffffffffffffffffffffffffff1614611073576040517f08c379a000000000000000000000000000000000000000000000000000000000815260040161106a9061320d565b60405180910390fd5b61107d6000612396565b565b6000600160009054906101000a900473ffffffffffffffffffffffffffffffffffffffff16905090565b6110b3600461236a565b81116110f4576040517f08c379a00000000000000000000000000000000000000000000000000000000081526004016110eb9061326d565b60405180910390fd5b60006005600083815260200190815260200160002060405180610100016040529081600082015481526020016001820160009054906101000a900473ffffffffffffffffffffffffffffffffffffffff1673ffffffffffffffffffffffffffffffffffffffff1673ffffffffffffffffffffffffffffffffffffffff1681526020016002820160009054906101000a900473ffffffffffffffffffffffffffffffffffffffff1673ffffffffffffffffffffffffffffffffffffffff1673ffffffffffffffffffffffffffffffffffffffff168152602001600382015481526020016004820160009054906101000a900473ffffffffffffffffffffffffffffffffffffffff1673ffffffffffffffffffffffffffffffffffffffff1673ffffffffffffffffffffffffffffffffffffffff168152602001600582015481526020016006820154815260200160078201548152505090508060e001514211611291576040517f08c379a00000000000000000000000000000000000000000000000000000000081526004016112889061324d565b60405180910390fd5b6000816040015182606001516040516020016112ae929190613040565b60405160208183030381529060405280519060200120905060006006600083815260200190815260200160002054141561131d576040517f08c379a00000000000000000000000000000000000000000000000000000000081526004016113149061318d565b60405180910390fd5b816020015173ffffffffffffffffffffffffffffffffffffffff163373ffffffffffffffffffffffffffffffffffffffff161461138f576040517f08c379a00000000000000000000000000000000000000000000000000000000081526004016113869061322d565b60405180910390fd5b6000826040015190508073ffffffffffffffffffffffffffffffffffffffff166342842e0e30856020015186606001516040518463ffffffff1660e01b81526004016113dd9392919061309c565b600060405180830381600087803b1580156113f757600080fd5b505af115801561140b573d6000803e3d6000fd5b50505050600060066000848152602001908152602001600020819055508260600151836040015173ffffffffffffffffffffffffffffffffffffffff1684600001517fa91854031867c01ff8c6d177e7d62482cf06dab93205e907bc96ff373ff9276d60405160405180910390a450505050565b600260005414156114c5576040517f08c379a00000000000000000000000000000000000000000000000000000000081526004016114bc906132cd565b60405180910390fd5b600260008190555060008311611510576040517f08c379a0000000000000000000000000000000000000000000000000000000008152600401611507906132ad565b60405180910390fd5b808211611552576040517f08c379a0000000000000000000000000000000000000000000000000000000008152600401611549906131cd565b60405180910390fd5b60008686604051602001611567929190613040565b60405160208183030381529060405280519060200120905060006006600083815260200190815260200160002054146115d5576040517f08c379a00000000000000000000000000000000000000000000000000000000081526004016115cc9061328d565b60405180910390fd5b600115156115e28661245c565b151514611624576040517f08c379a000000000000000000000000000000000000000000000000000000000815260040161161b9061314d565b60405180910390fd5b600087905060008173ffffffffffffffffffffffffffffffffffffffff16636352211e896040518263ffffffff1660e01b815260040161166491906132ed565b60206040518083038186803b15801561167c57600080fd5b505afa158015611690573d6000803e3d6000fd5b505050506040513d601f19601f820116820180604052508101906116b491906129ce565b905060008273ffffffffffffffffffffffffffffffffffffffff1663081812fc8a6040518263ffffffff1660e01b81526004016116f191906132ed565b60206040518083038186803b15801561170957600080fd5b505afa15801561171d573d6000803e3d6000fd5b505050506040513d601f19601f8201168201806040525081019061174191906129ce565b90508173ffffffffffffffffffffffffffffffffffffffff163373ffffffffffffffffffffffffffffffffffffffff1614806117a857508073ffffffffffffffffffffffffffffffffffffffff163373ffffffffffffffffffffffffffffffffffffffff16145b6117e7576040517f08c379a00000000000000000000000000000000000000000000000000000000081526004016117de906131ad565b60405180910390fd5b60006117f3600461236a565b90506040518061010001604052808281526020013373ffffffffffffffffffffffffffffffffffffffff1681526020018c73ffffffffffffffffffffffffffffffffffffffff1681526020018b81526020018a73ffffffffffffffffffffffffffffffffffffffff16815260200189815260200188815260200187815250600560008381526020019081526020016000206000820151816000015560208201518160010160006101000a81548173ffffffffffffffffffffffffffffffffffffffff021916908373ffffffffffffffffffffffffffffffffffffffff16021790555060408201518160020160006101000a81548173ffffffffffffffffffffffffffffffffffffffff021916908373ffffffffffffffffffffffffffffffffffffffff1602179055506060820151816003015560808201518160040160006101000a81548173ffffffffffffffffffffffffffffffffffffffff021916908373ffffffffffffffffffffffffffffffffffffffff16021790555060a0820151816005015560c0820151816006015560e082015181600701559050506119986004612378565b8060066000878152602001908152602001600020819055508373ffffffffffffffffffffffffffffffffffffffff166342842e0e84308d6040518463ffffffff1660e01b81526004016119ed9392919061309c565b600060405180830381600087803b158015611a0757600080fd5b505af1158015611a1b573d6000803e3d6000fd5b50505050898b73ffffffffffffffffffffffffffffffffffffffff16827f9b38a1b73ac8663f048cd3694ee3a188efca9dd57aa5ea17eaf329cd5e3d3cf860405160405180910390a450505050506001600081905550505050505050565b60066020528060005260406000206000915090505481565b611a9961238e565b73ffffffffffffffffffffffffffffffffffffffff16611ab761107f565b73ffffffffffffffffffffffffffffffffffffffff1614611b0d576040517f08c379a0000000000000000000000000000000000000000000000000000000008152600401611b049061320d565b60405180910390fd5b806003600084815260200190815260200160002060010160146101000a81548160ff0219169083151502179055506003600083815260200190815260200160002060010160009054906101000a900473ffffffffffffffffffffffffffffffffffffffff1673ffffffffffffffffffffffffffffffffffffffff16827fa46b89b0bcc9f0e561748cec4b69730ca745236a36e81ed47be32f025f94daf16003600086815260200190815260200160002060010160149054906101000a900460ff16604051611bdb9190613117565b60405180910390a35050565b60606000611bf5600261236a565b90508067ffffffffffffffff811115611c37577f4e487b7100000000000000000000000000000000000000000000000000000000600052604160045260246000fd5b604051908082528060200260200182016040528015611c7057816020015b611c5d612871565b815260200190600190039081611c555790505b50915060005b81811015611d6e5760036000828152602001908152602001600020604051806060016040529081600082015481526020016001820160009054906101000a900473ffffffffffffffffffffffffffffffffffffffff1673ffffffffffffffffffffffffffffffffffffffff1673ffffffffffffffffffffffffffffffffffffffff1681526020016001820160149054906101000a900460ff161515151581525050838281518110611d50577f4e487b7100000000000000000000000000000000000000000000000000000000600052603260045260246000fd5b60200260200101819052508080611d66906135db565b915050611c76565b505090565b60026000541415611db9576040517f08c379a0000000000000000000000000000000000000000000000000000000008152600401611db0906132cd565b60405180910390fd5b6002600081905550611dcb600461236a565b8111611e0c576040517f08c379a0000000000000000000000000000000000000000000000000000000008152600401611e039061326d565b60405180910390fd5b60006005600083815260200190815260200160002060405180610100016040529081600082015481526020016001820160009054906101000a900473ffffffffffffffffffffffffffffffffffffffff1673ffffffffffffffffffffffffffffffffffffffff1673ffffffffffffffffffffffffffffffffffffffff1681526020016002820160009054906101000a900473ffffffffffffffffffffffffffffffffffffffff1673ffffffffffffffffffffffffffffffffffffffff1673ffffffffffffffffffffffffffffffffffffffff168152602001600382015481526020016004820160009054906101000a900473ffffffffffffffffffffffffffffffffffffffff1673ffffffffffffffffffffffffffffffffffffffff1673ffffffffffffffffffffffffffffffffffffffff168152602001600582015481526020016006820154815260200160078201548152505090508060e001514211611fa9576040517f08c379a0000000000000000000000000000000000000000000000000000000008152600401611fa09061324d565b60405180910390fd5b600081604001518260600151604051602001611fc6929190613040565b604051602081830303815290604052805190602001209050600060066000838152602001908152602001600020541415612035576040517f08c379a000000000000000000000000000000000000000000000000000000000815260040161202c9061318d565b60405180910390fd5b6000826040015190508073ffffffffffffffffffffffffffffffffffffffff166342842e0e303386606001516040518463ffffffff1660e01b815260040161207f9392919061309c565b600060405180830381600087803b15801561209957600080fd5b505af11580156120ad573d6000803e3d6000fd5b505050506000808273ffffffffffffffffffffffffffffffffffffffff16632a55205a86606001518760a001516040518363ffffffff1660e01b81526004016120f7929190613386565b604080518083038186803b15801561210e57600080fd5b505afa158015612122573d6000803e3d6000fd5b505050506040513d601f19601f820116820180604052508101906121469190612a72565b9150915061215a856080015182338561253d565b61217d8560800151828760a0015161217291906134e9565b33886020015161253d565b60006006600086815260200190815260200160002081905550853373ffffffffffffffffffffffffffffffffffffffff167f98cc0dcb37970d6ccb77508e214da5eb06dca04b81cf934ab6352701b4c996ff60405160405180910390a35050505050600160008190555050565b6121f261238e565b73ffffffffffffffffffffffffffffffffffffffff1661221061107f565b73ffffffffffffffffffffffffffffffffffffffff1614612266576040517f08c379a000000000000000000000000000000000000000000000000000000000815260040161225d9061320d565b60405180910390fd5b600073ffffffffffffffffffffffffffffffffffffffff168173ffffffffffffffffffffffffffffffffffffffff1614156122d6576040517f08c379a00000000000000000000000000000000000000000000000000000000081526004016122cd9061316d565b60405180910390fd5b6122df81612396565b50565b6122ea61238e565b73ffffffffffffffffffffffffffffffffffffffff1661230861107f565b73ffffffffffffffffffffffffffffffffffffffff161461235e576040517f08c379a00000000000000000000000000000000000000000000000000000000081526004016123559061320d565b60405180910390fd5b6123678161261e565b50565b600081600001549050919050565b6001816000016000828254019250508190555050565b600033905090565b6000600160009054906101000a900473ffffffffffffffffffffffffffffffffffffffff16905081600160006101000a81548173ffffffffffffffffffffffffffffffffffffffff021916908373ffffffffffffffffffffffffffffffffffffffff1602179055508173ffffffffffffffffffffffffffffffffffffffff168173ffffffffffffffffffffffffffffffffffffffff167f8be0079c531659141344cd1fd0a4f28419497f9722a3daafe3b4186f6b6457e060405160405180910390a35050565b600080612469600261236a565b905060005b81811015612531578373ffffffffffffffffffffffffffffffffffffffff166003600083815260200190815260200160002060010160009054906101000a900473ffffffffffffffffffffffffffffffffffffffff1673ffffffffffffffffffffffffffffffffffffffff1614801561250e5750600115156003600083815260200190815260200160002060010160149054906101000a900460ff161515145b1561251e57600192505050612538565b8080612529906135db565b91505061246e565b5060009150505b919050565b600073ffffffffffffffffffffffffffffffffffffffff168473ffffffffffffffffffffffffffffffffffffffff1614156125815761257c8382612739565b612618565b60008490508073ffffffffffffffffffffffffffffffffffffffff166323b872dd8484876040518463ffffffff1660e01b81526004016125c39392919061309c565b602060405180830381600087803b1580156125dd57600080fd5b505af11580156125f1573d6000803e3d6000fd5b505050506040513d601f19601f820116820180604052508101906126159190612b37565b50505b50505050565b600061262a600261236a565b905060405180606001604052808281526020018373ffffffffffffffffffffffffffffffffffffffff16815260200160011515815250600360008381526020019081526020016000206000820151816000015560208201518160010160006101000a81548173ffffffffffffffffffffffffffffffffffffffff021916908373ffffffffffffffffffffffffffffffffffffffff16021790555060408201518160010160146101000a81548160ff0219169083151502179055509050506126f16002612378565b8173ffffffffffffffffffffffffffffffffffffffff16817fb2760a271cede39b7df6c9c00b82b20a64f6dcddec53762dd0da9be314a6a9cb60405160405180910390a35050565b60008173ffffffffffffffffffffffffffffffffffffffff168360405161275f9061306c565b60006040518083038185875af1925050503d806000811461279c576040519150601f19603f3d011682016040523d82523d6000602084013e6127a1565b606091505b50509050806127e5576040517f08c379a00000000000000000000000000000000000000000000000000000000081526004016127dc906131ed565b60405180910390fd5b505050565b60405180610100016040528060008152602001600073ffffffffffffffffffffffffffffffffffffffff168152602001600073ffffffffffffffffffffffffffffffffffffffff16815260200160008152602001600073ffffffffffffffffffffffffffffffffffffffff1681526020016000815260200160008152602001600081525090565b604051806060016040528060008152602001600073ffffffffffffffffffffffffffffffffffffffff1681526020016000151581525090565b60006128bd6128b8846133d4565b6133af565b9050828152602081018484840111156128d557600080fd5b6128e084828561359b565b509392505050565b6000813590506128f781613a3c565b92915050565b60008151905061290c81613a3c565b92915050565b60008135905061292181613a53565b92915050565b60008151905061293681613a53565b92915050565b60008135905061294b81613a6a565b92915050565b600082601f83011261296257600080fd5b81356129728482602086016128aa565b91505092915050565b60008135905061298a81613a81565b92915050565b60008151905061299f81613a81565b92915050565b6000602082840312156129b757600080fd5b60006129c5848285016128e8565b91505092915050565b6000602082840312156129e057600080fd5b60006129ee848285016128fd565b91505092915050565b60008060008060808587031215612a0d57600080fd5b6000612a1b878288016128e8565b9450506020612a2c878288016128e8565b9350506040612a3d8782880161297b565b925050606085013567ffffffffffffffff811115612a5a57600080fd5b612a6687828801612951565b91505092959194509250565b60008060408385031215612a8557600080fd5b6000612a93858286016128fd565b9250506020612aa485828601612990565b9150509250929050565b60008060008060008060c08789031215612ac757600080fd5b6000612ad589828a016128e8565b9650506020612ae689828a0161297b565b9550506040612af789828a016128e8565b9450506060612b0889828a0161297b565b9350506080612b1989828a0161297b565b92505060a0612b2a89828a0161297b565b9150509295509295509295565b600060208284031215612b4957600080fd5b6000612b5784828501612927565b91505092915050565b600060208284031215612b7257600080fd5b6000612b808482850161293c565b91505092915050565b600060208284031215612b9b57600080fd5b6000612ba98482850161297b565b91505092915050565b60008060408385031215612bc557600080fd5b6000612bd38582860161297b565b9250506020612be485828601612912565b9150509250929050565b6000612bfa8383612f27565b6101008301905092915050565b6000612c138383612fc9565b60608301905092915050565b612c288161351d565b82525050565b612c378161351d565b82525050565b612c4e612c498261351d565b613624565b82525050565b6000612c5f82613425565b612c698185613455565b9350612c7483613405565b8060005b83811015612ca5578151612c8c8882612bee565b9750612c978361343b565b925050600181019050612c78565b5085935050505092915050565b6000612cbd82613430565b612cc78185613466565b9350612cd283613415565b8060005b83811015612d03578151612cea8882612c07565b9750612cf583613448565b925050600181019050612cd6565b5085935050505092915050565b612d198161352f565b82525050565b612d288161352f565b82525050565b612d3781613545565b82525050565b6000612d4a602983613482565b9150612d55826136ce565b604082019050919050565b6000612d6d602683613482565b9150612d788261371d565b604082019050919050565b6000612d90602c83613482565b9150612d9b8261376c565b604082019050919050565b6000612db3603583613482565b9150612dbe826137bb565b604082019050919050565b6000612dd6603183613482565b9150612de18261380a565b604082019050919050565b6000612df9602e83613482565b9150612e0482613859565b604082019050919050565b6000612e1c602083613482565b9150612e27826138a8565b602082019050919050565b6000612e3f602183613482565b9150612e4a826138d1565b604082019050919050565b6000612e62600083613477565b9150612e6d82613920565b600082019050919050565b6000612e85601d83613482565b9150612e9082613923565b602082019050919050565b6000612ea8601f83613482565b9150612eb38261394c565b602082019050919050565b6000612ecb603483613482565b9150612ed682613975565b604082019050919050565b6000612eee602683613482565b9150612ef9826139c4565b604082019050919050565b6000612f11601f83613482565b9150612f1c82613a13565b602082019050919050565b61010082016000820151612f3e600085018261300b565b506020820151612f516020850182612c1f565b506040820151612f646040850182612c1f565b506060820151612f77606085018261300b565b506080820151612f8a6080850182612c1f565b5060a0820151612f9d60a085018261300b565b5060c0820151612fb060c085018261300b565b5060e0820151612fc360e085018261300b565b50505050565b606082016000820151612fdf600085018261300b565b506020820151612ff26020850182612c1f565b5060408201516130056040850182612d10565b50505050565b61301481613591565b82525050565b61302381613591565b82525050565b61303a61303582613591565b613648565b82525050565b600061304c8285612c3d565b60148201915061305c8284613029565b6020820191508190509392505050565b600061307782612e55565b9150819050919050565b60006020820190506130966000830184612c2e565b92915050565b60006060820190506130b16000830186612c2e565b6130be6020830185612c2e565b6130cb604083018461301a565b949350505050565b600060208201905081810360008301526130ed8184612c54565b905092915050565b6000602082019050818103600083015261310f8184612cb2565b905092915050565b600060208201905061312c6000830184612d1f565b92915050565b60006020820190506131476000830184612d2e565b92915050565b6000602082019050818103600083015261316681612d3d565b9050919050565b6000602082019050818103600083015261318681612d60565b9050919050565b600060208201905081810360008301526131a681612d83565b9050919050565b600060208201905081810360008301526131c681612da6565b9050919050565b600060208201905081810360008301526131e681612dc9565b9050919050565b6000602082019050818103600083015261320681612dec565b9050919050565b6000602082019050818103600083015261322681612e0f565b9050919050565b6000602082019050818103600083015261324681612e32565b9050919050565b6000602082019050818103600083015261326681612e78565b9050919050565b6000602082019050818103600083015261328681612e9b565b9050919050565b600060208201905081810360008301526132a681612ebe565b9050919050565b600060208201905081810360008301526132c681612ee1565b9050919050565b600060208201905081810360008301526132e681612f04565b9050919050565b6000602082019050613302600083018461301a565b92915050565b60006101008201905061331e600083018b61301a565b61332b602083018a612c2e565b6133386040830189612c2e565b613345606083018861301a565b6133526080830187612c2e565b61335f60a083018661301a565b61336c60c083018561301a565b61337960e083018461301a565b9998505050505050505050565b600060408201905061339b600083018561301a565b6133a8602083018461301a565b9392505050565b60006133b96133ca565b90506133c582826135aa565b919050565b6000604051905090565b600067ffffffffffffffff8211156133ef576133ee613681565b5b6133f8826136b0565b9050602081019050919050565b6000819050602082019050919050565b6000819050602082019050919050565b600081519050919050565b600081519050919050565b6000602082019050919050565b6000602082019050919050565b600082825260208201905092915050565b600082825260208201905092915050565b600081905092915050565b600082825260208201905092915050565b600061349e82613591565b91506134a983613591565b9250827fffffffffffffffffffffffffffffffffffffffffffffffffffffffffffffffff038211156134de576134dd613652565b5b828201905092915050565b60006134f482613591565b91506134ff83613591565b92508282101561351257613511613652565b5b828203905092915050565b600061352882613571565b9050919050565b60008115159050919050565b6000819050919050565b60007fffffffff0000000000000000000000000000000000000000000000000000000082169050919050565b600073ffffffffffffffffffffffffffffffffffffffff82169050919050565b6000819050919050565b82818337600083830152505050565b6135b3826136b0565b810181811067ffffffffffffffff821117156135d2576135d1613681565b5b80604052505050565b60006135e682613591565b91507fffffffffffffffffffffffffffffffffffffffffffffffffffffffffffffffff82141561361957613618613652565b5b600182019050919050565b600061362f82613636565b9050919050565b6000613641826136c1565b9050919050565b6000819050919050565b7f4e487b7100000000000000000000000000000000000000000000000000000000600052601160045260246000fd5b7f4e487b7100000000000000000000000000000000000000000000000000000000600052604160045260246000fd5b6000601f19601f8301169050919050565b60008160601b9050919050565b7f4d61726b6574706c6163653a2043757272656e6379206973206e6f7420696e2060008201527f77686974656c6973740000000000000000000000000000000000000000000000602082015250565b7f4f776e61626c653a206e6577206f776e657220697320746865207a65726f206160008201527f6464726573730000000000000000000000000000000000000000000000000000602082015250565b7f4d61726b6574706c6163653a204974656d206973206e6f74206c69737465642060008201527f796574206e6f7220736f6c640000000000000000000000000000000000000000602082015250565b7f4d61726b6574706c6163653a2043616c6c6572206973206e6f74206f776e657260008201527f206e6f7220617070726f76656420666f7220616c6c0000000000000000000000602082015250565b7f4d61726b6574706c6163653a2053616c65207374617274206d7573742067726160008201527f746572207468616e2073616c6520656e64000000000000000000000000000000602082015250565b7f5472616e736665724578656375746f723a204e617469766520746f6b656e207460008201527f72616e73666572206661696c6564000000000000000000000000000000000000602082015250565b7f4f776e61626c653a2063616c6c6572206973206e6f7420746865206f776e6572600082015250565b7f4d61726b6574706c6163653a2043616c6c6572206973206e6f742073656c6c6560008201527f7200000000000000000000000000000000000000000000000000000000000000602082015250565b50565b7f4d61726b6574706c6163653a204974656d206861732065787069726564000000600082015250565b7f4d61726b6574706c6163653a204974656d20646f6573206e6f74206578697400600082015250565b7f4d61726b6574706c6163653a204974656d206861766520616c7265616479206c60008201527f6973746564206f6e206d61726b6574706c616365000000000000000000000000602082015250565b7f4d61726b6574706c6163653a205072696365206d75737420677265617465722060008201527f7468616e20300000000000000000000000000000000000000000000000000000602082015250565b7f5265656e7472616e637947756172643a207265656e7472616e742063616c6c00600082015250565b613a458161351d565b8114613a5057600080fd5b50565b613a5c8161352f565b8114613a6757600080fd5b50565b613a738161353b565b8114613a7e57600080fd5b50565b613a8a81613591565b8114613a9557600080fd5b5056fea26469706673582212201c8acd2e7bc1bc947045a24bae6932ee7e24a8c2745dc47aa9643cb2f473939a64736f6c63430008040033",
  "immutableReferences": {},
  "source": "// SPDX-License-Identifier: MIT\r\npragma solidity >=0.4.22 <0.9.0;\r\n\r\nimport \"@openzeppelin/contracts/utils/Counters.sol\";\r\nimport \"@openzeppelin/contracts/security/ReentrancyGuard.sol\";\r\nimport \"@openzeppelin/contracts/token/ERC721/utils/ERC721Holder.sol\";\r\nimport \"@openzeppelin/contracts/token/ERC20/IERC20.sol\";\r\nimport \"./NFT721.sol\";\r\nimport \"./TransferExecutor.sol\";\r\n\r\ncontract Marketplace is ReentrancyGuard, ERC721Holder, TransferExecutor {\r\n    using Counters for Counters.Counter;\r\n    ///@dev item index, start from 0\r\n    Counters.Counter private _itemIdCounter;\r\n    struct MarketItem {\r\n        uint256 itemIndex;\r\n        address seller;\r\n        address assetContract;\r\n        uint256 tokenId;\r\n        address currency; // if currency == 0x..0, it is native token\r\n        uint256 price;\r\n        uint256 saleStart;\r\n        uint256 saleEnd;\r\n    }\r\n\r\n    ///@dev itemIndex => item item\r\n    mapping(uint256 => MarketItem) public marketItems;\r\n\r\n    ///@dev hash(assetContract, tokenId) => listingIndex;\r\n    mapping(bytes32 => uint256) public listings;\r\n\r\n    event ListedNFT(uint256 indexed itemIndex, address indexed assetContract, uint256 indexed tokenId);\r\n    event UnlistedNFT(uint256 indexed itemIndex, address indexed assetContract, uint256 indexed tokenId);\r\n    event BoughtNFT(address indexed buyer, uint256 indexed itemIndex);\r\n\r\n    constructor() {}\r\n\r\n    function listNft(\r\n        address assetContract,\r\n        uint256 tokenId,\r\n        address currency,\r\n        uint256 price,\r\n        uint256 saleStart,\r\n        uint256 saleEnd\r\n    ) external nonReentrant {\r\n        require(price > 0, \"Marketplace: Price must greater than 0\");\r\n        require(saleStart > saleEnd, \"Marketplace: Sale start must grater than sale end\");\r\n\r\n        bytes32 itemHash = keccak256(abi.encodePacked(assetContract, tokenId));\r\n        require(listings[itemHash] == 0, \"Marketplace: Item have already listed on marketplace\");\r\n\r\n        require(isAvailable(currency) == true, \"Marketplace: Currency is not in whitelist\");\r\n\r\n        NFT721 nft = NFT721(assetContract);\r\n        address tokenOwner = nft.ownerOf(tokenId);\r\n        address accountApproved = nft.getApproved(tokenId);\r\n        require(msg.sender == tokenOwner || msg.sender == accountApproved, \"Marketplace: Caller is not owner nor approved for all\");\r\n\r\n        uint256 itemIndex = _itemIdCounter.current();\r\n        marketItems[itemIndex] = MarketItem(\r\n            itemIndex, \r\n            msg.sender, \r\n            assetContract, \r\n            tokenId, \r\n            currency, \r\n            price, \r\n            saleStart, \r\n            saleEnd\r\n        );\r\n        _itemIdCounter.increment();\r\n        listings[itemHash] = itemIndex;\r\n\r\n        nft.safeTransferFrom(tokenOwner, address(this), tokenId);\r\n\r\n        emit ListedNFT(itemIndex, assetContract, tokenId);\r\n    }\r\n\r\n    function unlistNft(uint256 itemIndex) external {\r\n        require(itemIndex > _itemIdCounter.current(), \"Marketplace: Item does not exit\");\r\n        \r\n        MarketItem memory item = marketItems[itemIndex];\r\n        require(block.timestamp > item.saleEnd, \"Marketplace: Item has expired\");\r\n        bytes32 itemHash = keccak256(abi.encodePacked(item.assetContract, item.tokenId));\r\n        require(listings[itemHash] != 0, \"Marketplace: Item is not listed yet nor sold\");\r\n        require(msg.sender == item.seller, \"Marketplace: Caller is not seller\");\r\n\r\n        NFT721 nft = NFT721(item.assetContract);\r\n        nft.safeTransferFrom(address(this), item.seller, item.tokenId);\r\n        listings[itemHash] = 0;\r\n\r\n        emit UnlistedNFT(item.itemIndex, item.assetContract, item.tokenId);\r\n    }\r\n\r\n    function buy(uint256 itemIndex) external nonReentrant {\r\n        require(itemIndex > _itemIdCounter.current(), \"Marketplace: Item does not exit\");\r\n        \r\n        MarketItem memory item = marketItems[itemIndex];\r\n        require(block.timestamp > item.saleEnd, \"Marketplace: Item has expired\");\r\n        bytes32 itemHash = keccak256(abi.encodePacked(item.assetContract, item.tokenId));\r\n        require(listings[itemHash] != 0, \"Marketplace: Item is not listed yet nor sold\");\r\n\r\n        NFT721 nft = NFT721(item.assetContract);\r\n        nft.safeTransferFrom(address(this), msg.sender, item.tokenId);\r\n\r\n        (address receiver, uint256 royalty) = nft.royaltyInfo(item.tokenId, item.price);\r\n\r\n        ///@dev pay royalty for creator\r\n        _executePayment(item.currency, royalty, msg.sender, receiver);\r\n\r\n        ///@dev pay for seller\r\n        _executePayment(item.currency, item.price - royalty, msg.sender, item.seller);\r\n\r\n        listings[itemHash] = 0;\r\n\r\n        emit BoughtNFT(msg.sender, itemIndex);\r\n    }\r\n\r\n    ///@dev get all available items\r\n    function getAllItems() external view returns(MarketItem[] memory items) {\r\n        uint256 numOfItems = _itemIdCounter.current();\r\n        uint256 numOfAvailableItems = 0;\r\n\r\n        for(uint256 i = 0; i < numOfItems; i++){\r\n            MarketItem memory item = marketItems[i];\r\n            bytes32 itemHash = keccak256(abi.encodePacked(item.assetContract, item.tokenId));\r\n           if (item.saleEnd > block.timestamp || item.itemIndex == listings[itemHash]){\r\n               numOfAvailableItems += 1;\r\n           }\r\n        }\r\n\r\n        items = new MarketItem[](numOfAvailableItems);\r\n        uint256 counter = 0;\r\n        for(uint256 i = 0; i < numOfItems; i++){\r\n            MarketItem memory item = marketItems[i];\r\n            bytes32 itemHash = keccak256(abi.encodePacked(item.assetContract, item.tokenId));\r\n           if (item.saleEnd > block.timestamp && item.itemIndex == listings[itemHash]){\r\n               items[counter] = marketItems[i];\r\n               counter += 1;\r\n           }\r\n        }\r\n    }\r\n\r\n    ///@dev get all available items of `seller`\r\n    function getItemsBySeller(address seller) external view returns(MarketItem[] memory items){\r\n        uint256 numOfItems = _itemIdCounter.current();\r\n        uint256 numOfAvailableItems = 0;\r\n\r\n        for(uint256 i = 0; i < numOfItems; i++){\r\n            MarketItem memory item = marketItems[i];\r\n            bytes32 itemHash = keccak256(abi.encodePacked(item.assetContract, item.tokenId));\r\n           if (item.saleEnd > block.timestamp && item.itemIndex == listings[itemHash] && item.seller == seller){\r\n               numOfAvailableItems += 1;\r\n           }\r\n        }\r\n\r\n        items = new MarketItem[](numOfAvailableItems);\r\n        uint256 counter = 0;\r\n        for(uint256 i = 0; i < numOfItems; i++){\r\n            MarketItem memory item = marketItems[i];\r\n            bytes32 itemHash = keccak256(abi.encodePacked(item.assetContract, item.tokenId));\r\n           if (item.saleEnd > block.timestamp && item.itemIndex == listings[itemHash] && item.seller == seller){\r\n               items[counter] = marketItems[i];\r\n               counter += 1;\r\n           }\r\n        }\r\n    }\r\n}\r\n",
  "sourcePath": "E:\\LamViec\\STECH_Corp\\nft-marketplace\\src\\contracts\\contracts\\Marketplace.sol",
  "compiler": {
    "name": "solc",
    "version": "0.8.4+commit.c7e474f2.Emscripten.clang"
  },
  "schemaVersion": "3.4.4",
  "updatedAt": "2022-02-21T07:39:32.694Z",
  "devdoc": {
    "kind": "dev",
    "methods": {
      "getAllItems()": {
        "details": "get all available items"
      },
      "getItemsBySeller(address)": {
        "details": "get all available items of `seller`"
      },
      "onERC721Received(address,address,uint256,bytes)": {
        "details": "See {IERC721Receiver-onERC721Received}. Always returns `IERC721Receiver.onERC721Received.selector`."
      },
      "owner()": {
        "details": "Returns the address of the current owner."
      },
      "renounceOwnership()": {
        "details": "Leaves the contract without owner. It will not be possible to call `onlyOwner` functions anymore. Can only be called by the current owner. NOTE: Renouncing ownership will leave the contract without an owner, thereby removing any functionality that is only available to the owner."
      },
      "transferOwnership(address)": {
        "details": "Transfers ownership of the contract to a new account (`newOwner`). Can only be called by the current owner."
      }
    },
    "stateVariables": {
      "_itemIdCounter": {
        "details": "item index, start from 0"
      },
      "listings": {
        "details": "hash(assetContract, tokenId) => listingIndex;"
      },
      "marketItems": {
        "details": "itemIndex => item item"
      }
    },
    "version": 1
  },
  "userdoc": {
    "kind": "user",
    "methods": {},
    "version": 1
  }
}