{
  "contractName": "NFT721",
  "abi": [
    {
      "inputs": [],
      "stateMutability": "nonpayable",
      "type": "constructor"
    },
    {
      "anonymous": false,
      "inputs": [
        {
          "indexed": true,
          "internalType": "address",
          "name": "owner",
          "type": "address"
        },
        {
          "indexed": true,
          "internalType": "address",
          "name": "approved",
          "type": "address"
        },
        {
          "indexed": true,
          "internalType": "uint256",
          "name": "tokenId",
          "type": "uint256"
        }
      ],
      "name": "Approval",
      "type": "event"
    },
    {
      "anonymous": false,
      "inputs": [
        {
          "indexed": true,
          "internalType": "address",
          "name": "owner",
          "type": "address"
        },
        {
          "indexed": true,
          "internalType": "address",
          "name": "operator",
          "type": "address"
        },
        {
          "indexed": false,
          "internalType": "bool",
          "name": "approved",
          "type": "bool"
        }
      ],
      "name": "ApprovalForAll",
      "type": "event"
    },
    {
      "anonymous": false,
      "inputs": [
        {
          "indexed": true,
          "internalType": "address",
          "name": "previousOwner",
          "type": "address"
        },
        {
          "indexed": true,
          "internalType": "address",
          "name": "newOwner",
          "type": "address"
        }
      ],
      "name": "OwnershipTransferred",
      "type": "event"
    },
    {
      "anonymous": false,
      "inputs": [
        {
          "indexed": true,
          "internalType": "address",
          "name": "from",
          "type": "address"
        },
        {
          "indexed": true,
          "internalType": "address",
          "name": "to",
          "type": "address"
        },
        {
          "indexed": true,
          "internalType": "uint256",
          "name": "tokenId",
          "type": "uint256"
        }
      ],
      "name": "Transfer",
      "type": "event"
    },
    {
      "inputs": [
        {
          "internalType": "address",
          "name": "to",
          "type": "address"
        },
        {
          "internalType": "uint256",
          "name": "tokenId",
          "type": "uint256"
        }
      ],
      "name": "approve",
      "outputs": [],
      "stateMutability": "nonpayable",
      "type": "function"
    },
    {
      "inputs": [
        {
          "internalType": "address",
          "name": "owner",
          "type": "address"
        }
      ],
      "name": "balanceOf",
      "outputs": [
        {
          "internalType": "uint256",
          "name": "",
          "type": "uint256"
        }
      ],
      "stateMutability": "view",
      "type": "function"
    },
    {
      "inputs": [
        {
          "internalType": "uint256",
          "name": "tokenId",
          "type": "uint256"
        }
      ],
      "name": "burn",
      "outputs": [],
      "stateMutability": "nonpayable",
      "type": "function"
    },
    {
      "inputs": [],
      "name": "contractURI",
      "outputs": [
        {
          "internalType": "string",
          "name": "",
          "type": "string"
        }
      ],
      "stateMutability": "view",
      "type": "function"
    },
    {
      "inputs": [
        {
          "internalType": "uint256",
          "name": "tokenId",
          "type": "uint256"
        }
      ],
      "name": "getApproved",
      "outputs": [
        {
          "internalType": "address",
          "name": "",
          "type": "address"
        }
      ],
      "stateMutability": "view",
      "type": "function"
    },
    {
      "inputs": [
        {
          "internalType": "address",
          "name": "owner",
          "type": "address"
        },
        {
          "internalType": "address",
          "name": "operator",
          "type": "address"
        }
      ],
      "name": "isApprovedForAll",
      "outputs": [
        {
          "internalType": "bool",
          "name": "",
          "type": "bool"
        }
      ],
      "stateMutability": "view",
      "type": "function"
    },
    {
      "inputs": [],
      "name": "name",
      "outputs": [
        {
          "internalType": "string",
          "name": "",
          "type": "string"
        }
      ],
      "stateMutability": "view",
      "type": "function"
    },
    {
      "inputs": [],
      "name": "owner",
      "outputs": [
        {
          "internalType": "address",
          "name": "",
          "type": "address"
        }
      ],
      "stateMutability": "view",
      "type": "function"
    },
    {
      "inputs": [
        {
          "internalType": "uint256",
          "name": "tokenId",
          "type": "uint256"
        }
      ],
      "name": "ownerOf",
      "outputs": [
        {
          "internalType": "address",
          "name": "",
          "type": "address"
        }
      ],
      "stateMutability": "view",
      "type": "function"
    },
    {
      "inputs": [],
      "name": "renounceOwnership",
      "outputs": [],
      "stateMutability": "nonpayable",
      "type": "function"
    },
    {
      "inputs": [
        {
          "internalType": "uint256",
          "name": "_tokenId",
          "type": "uint256"
        },
        {
          "internalType": "uint256",
          "name": "_salePrice",
          "type": "uint256"
        }
      ],
      "name": "royaltyInfo",
      "outputs": [
        {
          "internalType": "address",
          "name": "",
          "type": "address"
        },
        {
          "internalType": "uint256",
          "name": "",
          "type": "uint256"
        }
      ],
      "stateMutability": "view",
      "type": "function"
    },
    {
      "inputs": [
        {
          "internalType": "address",
          "name": "from",
          "type": "address"
        },
        {
          "internalType": "address",
          "name": "to",
          "type": "address"
        },
        {
          "internalType": "uint256",
          "name": "tokenId",
          "type": "uint256"
        }
      ],
      "name": "safeTransferFrom",
      "outputs": [],
      "stateMutability": "nonpayable",
      "type": "function"
    },
    {
      "inputs": [
        {
          "internalType": "address",
          "name": "from",
          "type": "address"
        },
        {
          "internalType": "address",
          "name": "to",
          "type": "address"
        },
        {
          "internalType": "uint256",
          "name": "tokenId",
          "type": "uint256"
        },
        {
          "internalType": "bytes",
          "name": "_data",
          "type": "bytes"
        }
      ],
      "name": "safeTransferFrom",
      "outputs": [],
      "stateMutability": "nonpayable",
      "type": "function"
    },
    {
      "inputs": [
        {
          "internalType": "address",
          "name": "operator",
          "type": "address"
        },
        {
          "internalType": "bool",
          "name": "approved",
          "type": "bool"
        }
      ],
      "name": "setApprovalForAll",
      "outputs": [],
      "stateMutability": "nonpayable",
      "type": "function"
    },
    {
      "inputs": [],
      "name": "symbol",
      "outputs": [
        {
          "internalType": "string",
          "name": "",
          "type": "string"
        }
      ],
      "stateMutability": "view",
      "type": "function"
    },
    {
      "inputs": [
        {
          "internalType": "address",
          "name": "from",
          "type": "address"
        },
        {
          "internalType": "address",
          "name": "to",
          "type": "address"
        },
        {
          "internalType": "uint256",
          "name": "tokenId",
          "type": "uint256"
        }
      ],
      "name": "transferFrom",
      "outputs": [],
      "stateMutability": "nonpayable",
      "type": "function"
    },
    {
      "inputs": [
        {
          "internalType": "address",
          "name": "newOwner",
          "type": "address"
        }
      ],
      "name": "transferOwnership",
      "outputs": [],
      "stateMutability": "nonpayable",
      "type": "function"
    },
    {
      "inputs": [
        {
          "internalType": "string",
          "name": "_name",
          "type": "string"
        },
        {
          "internalType": "string",
          "name": "_symbol",
          "type": "string"
        },
        {
          "internalType": "string",
          "name": "_uri",
          "type": "string"
        },
        {
          "internalType": "address",
          "name": "deployer",
          "type": "address"
        }
      ],
      "name": "initialize",
      "outputs": [],
      "stateMutability": "nonpayable",
      "type": "function"
    },
    {
      "inputs": [
        {
          "internalType": "address",
          "name": "to",
          "type": "address"
        },
        {
          "internalType": "string",
          "name": "uri",
          "type": "string"
        }
      ],
      "name": "safeMint",
      "outputs": [],
      "stateMutability": "nonpayable",
      "type": "function"
    },
    {
      "inputs": [
        {
          "internalType": "uint256",
          "name": "tokenId",
          "type": "uint256"
        }
      ],
      "name": "tokenURI",
      "outputs": [
        {
          "internalType": "string",
          "name": "",
          "type": "string"
        }
      ],
      "stateMutability": "view",
      "type": "function"
    },
    {
      "inputs": [
        {
          "internalType": "bytes4",
          "name": "interfaceId",
          "type": "bytes4"
        }
      ],
      "name": "supportsInterface",
      "outputs": [
        {
          "internalType": "bool",
          "name": "",
          "type": "bool"
        }
      ],
      "stateMutability": "view",
      "type": "function"
    }
  ],
  "bytecode": "0x60806040523480156200001157600080fd5b50600060019054906101000a900460ff166200003c5760008054906101000a900460ff16156200004d565b6200004c6200010960201b60201c565b5b6200008f576040517f08c379a0000000000000000000000000000000000000000000000000000000008152600401620000869062000171565b60405180910390fd5b60008060019054906101000a900460ff161590508015620000e0576001600060016101000a81548160ff02191690831515021790555060016000806101000a81548160ff0219169083151502179055505b8015620001025760008060016101000a81548160ff0219169083151502179055505b50620001f3565b600062000121306200012760201b620010491760201c565b15905090565b6000808273ffffffffffffffffffffffffffffffffffffffff163b119050919050565b600062000159602e8362000193565b91506200016682620001a4565b604082019050919050565b600060208201905081810360008301526200018c816200014a565b9050919050565b600082825260208201905092915050565b7f496e697469616c697a61626c653a20636f6e747261637420697320616c72656160008201527f647920696e697469616c697a6564000000000000000000000000000000000000602082015250565b613dae80620002036000396000f3fe608060405234801561001057600080fd5b50600436106101375760003560e01c806370a08231116100b8578063b88d4fde1161007c578063b88d4fde14610339578063c87b56dd14610355578063d204c45e14610385578063e8a3d485146103a1578063e985e9c5146103bf578063f2fde38b146103ef57610137565b806370a08231146102a7578063715018a6146102d75780638da5cb5b146102e157806395d89b41146102ff578063a22cb4651461031d57610137565b80632a55205a116100ff5780632a55205a146101f257806342842e0e1461022357806342966c681461023f5780635c6d8da11461025b5780636352211e1461027757610137565b806301ffc9a71461013c57806306fdde031461016c578063081812fc1461018a578063095ea7b3146101ba57806323b872dd146101d6575b600080fd5b61015660048036038101906101519190612a3d565b61040b565b6040516101639190613002565b60405180910390f35b61017461041d565b604051610181919061301d565b60405180910390f35b6101a4600480360381019061019f9190612b3a565b6104af565b6040516101b19190612f72565b60405180910390f35b6101d460048036038101906101cf9190612a01565b610534565b005b6101f060048036038101906101eb91906128a7565b61064c565b005b61020c60048036038101906102079190612b63565b6106ac565b60405161021a929190612fd9565b60405180910390f35b61023d600480360381019061023891906128a7565b610897565b005b61025960048036038101906102549190612b3a565b6108b7565b005b61027560048036038101906102709190612a8f565b610913565b005b610291600480360381019061028c9190612b3a565b610a46565b60405161029e9190612f72565b60405180910390f35b6102c160048036038101906102bc9190612842565b610af8565b6040516102ce91906132df565b60405180910390f35b6102df610bb0565b005b6102e9610c38565b6040516102f69190612f72565b60405180910390f35b610307610c63565b604051610314919061301d565b60405180910390f35b61033760048036038101906103329190612971565b610cf5565b005b610353600480360381019061034e91906128f6565b610d0b565b005b61036f600480360381019061036a9190612b3a565b610d6d565b60405161037c919061301d565b60405180910390f35b61039f600480360381019061039a91906129ad565b610d7f565b005b6103a9610e2e565b6040516103b6919061301d565b60405180910390f35b6103d960048036038101906103d4919061286b565b610ebd565b6040516103e69190613002565b60405180910390f35b61040960048036038101906104049190612842565b610f51565b005b60006104168261106c565b9050919050565b60606097805461042c9061358f565b80601f01602080910402602001604051908101604052809291908181526020018280546104589061358f565b80156104a55780601f1061047a576101008083540402835291602001916104a5565b820191906000526020600020905b81548152906001019060200180831161048857829003601f168201915b5050505050905090565b60006104ba8261107e565b6104f9576040517f08c379a00000000000000000000000000000000000000000000000000000000081526004016104f0906131ff565b60405180910390fd5b609b600083815260200190815260200160002060009054906101000a900473ffffffffffffffffffffffffffffffffffffffff169050919050565b600061053f82610a46565b90508073ffffffffffffffffffffffffffffffffffffffff168373ffffffffffffffffffffffffffffffffffffffff1614156105b0576040517f08c379a00000000000000000000000000000000000000000000000000000000081526004016105a79061325f565b60405180910390fd5b8073ffffffffffffffffffffffffffffffffffffffff166105cf6110ea565b73ffffffffffffffffffffffffffffffffffffffff1614806105fe57506105fd816105f86110ea565b610ebd565b5b61063d576040517f08c379a00000000000000000000000000000000000000000000000000000000081526004016106349061311f565b60405180910390fd5b61064783836110f2565b505050565b61065d6106576110ea565b826111ab565b61069c576040517f08c379a00000000000000000000000000000000000000000000000000000000081526004016106939061327f565b60405180910390fd5b6106a7838383611289565b505050565b6000806000606660008681526020019081526020016000206040518060400160405290816000820160009054906101000a900473ffffffffffffffffffffffffffffffffffffffff1673ffffffffffffffffffffffffffffffffffffffff1673ffffffffffffffffffffffffffffffffffffffff1681526020016000820160149054906101000a90046bffffffffffffffffffffffff166bffffffffffffffffffffffff166bffffffffffffffffffffffff16815250509050600073ffffffffffffffffffffffffffffffffffffffff16816000015173ffffffffffffffffffffffffffffffffffffffff1614156108425760656040518060400160405290816000820160009054906101000a900473ffffffffffffffffffffffffffffffffffffffff1673ffffffffffffffffffffffffffffffffffffffff1673ffffffffffffffffffffffffffffffffffffffff1681526020016000820160149054906101000a90046bffffffffffffffffffffffff166bffffffffffffffffffffffff166bffffffffffffffffffffffff168152505090505b600061084c6114f0565b6bffffffffffffffffffffffff1682602001516bffffffffffffffffffffffff1686610878919061344b565b610882919061341a565b90508160000151819350935050509250929050565b6108b283838360405180602001604052806000815250610d0b565b505050565b6108c86108c26110ea565b826111ab565b610907576040517f08c379a00000000000000000000000000000000000000000000000000000000081526004016108fe906132bf565b60405180910390fd5b610910816114fa565b50565b600060019054906101000a900460ff1661093b5760008054906101000a900460ff1615610944565b610943611506565b5b610983576040517f08c379a000000000000000000000000000000000000000000000000000000000815260040161097a9061319f565b60405180910390fd5b60008060019054906101000a900460ff1615905080156109d3576001600060016101000a81548160ff02191690831515021790555060016000806101000a81548160ff0219169083151502179055505b6109dd8585611517565b6109e5611574565b6109ed6115c5565b6109f5611616565b6109fd61166f565b826101929080519060200190610a14929190612626565b50610a1e826116c0565b8015610a3f5760008060016101000a81548160ff0219169083151502179055505b5050505050565b6000806099600084815260200190815260200160002060009054906101000a900473ffffffffffffffffffffffffffffffffffffffff169050600073ffffffffffffffffffffffffffffffffffffffff168173ffffffffffffffffffffffffffffffffffffffff161415610aef576040517f08c379a0000000000000000000000000000000000000000000000000000000008152600401610ae69061315f565b60405180910390fd5b80915050919050565b60008073ffffffffffffffffffffffffffffffffffffffff168273ffffffffffffffffffffffffffffffffffffffff161415610b69576040517f08c379a0000000000000000000000000000000000000000000000000000000008152600401610b609061313f565b60405180910390fd5b609a60008373ffffffffffffffffffffffffffffffffffffffff1673ffffffffffffffffffffffffffffffffffffffff168152602001908152602001600020549050919050565b610bb86110ea565b73ffffffffffffffffffffffffffffffffffffffff16610bd6610c38565b73ffffffffffffffffffffffffffffffffffffffff1614610c2c576040517f08c379a0000000000000000000000000000000000000000000000000000000008152600401610c239061321f565b60405180910390fd5b610c3660006116c0565b565b600061012d60009054906101000a900473ffffffffffffffffffffffffffffffffffffffff16905090565b606060988054610c729061358f565b80601f0160208091040260200160405190810160405280929190818152602001828054610c9e9061358f565b8015610ceb5780601f10610cc057610100808354040283529160200191610ceb565b820191906000526020600020905b815481529060010190602001808311610cce57829003601f168201915b5050505050905090565b610d07610d006110ea565b8383611788565b5050565b610d1c610d166110ea565b836111ab565b610d5b576040517f08c379a0000000000000000000000000000000000000000000000000000000008152600401610d529061327f565b60405180910390fd5b610d67848484846118f5565b50505050565b6060610d7882611951565b9050919050565b610d876110ea565b73ffffffffffffffffffffffffffffffffffffffff16610da5610c38565b73ffffffffffffffffffffffffffffffffffffffff1614610dfb576040517f08c379a0000000000000000000000000000000000000000000000000000000008152600401610df29061321f565b60405180910390fd5b6000610e08610191611aa3565b9050610e15610191611ab1565b610e1f8382611ac7565b610e298183611ae5565b505050565b6101928054610e3c9061358f565b80601f0160208091040260200160405190810160405280929190818152602001828054610e689061358f565b8015610eb55780601f10610e8a57610100808354040283529160200191610eb5565b820191906000526020600020905b815481529060010190602001808311610e9857829003601f168201915b505050505081565b6000609c60008473ffffffffffffffffffffffffffffffffffffffff1673ffffffffffffffffffffffffffffffffffffffff16815260200190815260200160002060008373ffffffffffffffffffffffffffffffffffffffff1673ffffffffffffffffffffffffffffffffffffffff16815260200190815260200160002060009054906101000a900460ff16905092915050565b610f596110ea565b73ffffffffffffffffffffffffffffffffffffffff16610f77610c38565b73ffffffffffffffffffffffffffffffffffffffff1614610fcd576040517f08c379a0000000000000000000000000000000000000000000000000000000008152600401610fc49061321f565b60405180910390fd5b600073ffffffffffffffffffffffffffffffffffffffff168173ffffffffffffffffffffffffffffffffffffffff16141561103d576040517f08c379a00000000000000000000000000000000000000000000000000000000081526004016110349061305f565b60405180910390fd5b611046816116c0565b50565b6000808273ffffffffffffffffffffffffffffffffffffffff163b119050919050565b600061107782611b59565b9050919050565b60008073ffffffffffffffffffffffffffffffffffffffff166099600084815260200190815260200160002060009054906101000a900473ffffffffffffffffffffffffffffffffffffffff1673ffffffffffffffffffffffffffffffffffffffff1614159050919050565b600033905090565b81609b600083815260200190815260200160002060006101000a81548173ffffffffffffffffffffffffffffffffffffffff021916908373ffffffffffffffffffffffffffffffffffffffff160217905550808273ffffffffffffffffffffffffffffffffffffffff1661116583610a46565b73ffffffffffffffffffffffffffffffffffffffff167f8c5be1e5ebec7d5bd14f71427d1e84f3dd0314c0f7b2291e5b200ac8c7c3b92560405160405180910390a45050565b60006111b68261107e565b6111f5576040517f08c379a00000000000000000000000000000000000000000000000000000000081526004016111ec906130ff565b60405180910390fd5b600061120083610a46565b90508073ffffffffffffffffffffffffffffffffffffffff168473ffffffffffffffffffffffffffffffffffffffff16148061126f57508373ffffffffffffffffffffffffffffffffffffffff16611257846104af565b73ffffffffffffffffffffffffffffffffffffffff16145b80611280575061127f8185610ebd565b5b91505092915050565b8273ffffffffffffffffffffffffffffffffffffffff166112a982610a46565b73ffffffffffffffffffffffffffffffffffffffff16146112ff576040517f08c379a00000000000000000000000000000000000000000000000000000000081526004016112f69061307f565b60405180910390fd5b600073ffffffffffffffffffffffffffffffffffffffff168273ffffffffffffffffffffffffffffffffffffffff16141561136f576040517f08c379a0000000000000000000000000000000000000000000000000000000008152600401611366906130bf565b60405180910390fd5b61137a838383611c3b565b6113856000826110f2565b6001609a60008573ffffffffffffffffffffffffffffffffffffffff1673ffffffffffffffffffffffffffffffffffffffff16815260200190815260200160002060008282546113d591906134a5565b925050819055506001609a60008473ffffffffffffffffffffffffffffffffffffffff1673ffffffffffffffffffffffffffffffffffffffff168152602001908152602001600020600082825461142c91906133c4565b92505081905550816099600083815260200190815260200160002060006101000a81548173ffffffffffffffffffffffffffffffffffffffff021916908373ffffffffffffffffffffffffffffffffffffffff160217905550808273ffffffffffffffffffffffffffffffffffffffff168473ffffffffffffffffffffffffffffffffffffffff167fddf252ad1be2c89b69c2b068fc378daa952ba7f163c4a11628f55a4df523b3ef60405160405180910390a46114eb838383611c40565b505050565b6000612710905090565b61150381611c45565b50565b600061151130611049565b15905090565b600060019054906101000a900460ff16611566576040517f08c379a000000000000000000000000000000000000000000000000000000000815260040161155d9061329f565b60405180910390fd5b6115708282611c5a565b5050565b600060019054906101000a900460ff166115c3576040517f08c379a00000000000000000000000000000000000000000000000000000000081526004016115ba9061329f565b60405180910390fd5b565b600060019054906101000a900460ff16611614576040517f08c379a000000000000000000000000000000000000000000000000000000000815260040161160b9061329f565b60405180910390fd5b565b600060019054906101000a900460ff16611665576040517f08c379a000000000000000000000000000000000000000000000000000000000815260040161165c9061329f565b60405180910390fd5b61166d611cdb565b565b600060019054906101000a900460ff166116be576040517f08c379a00000000000000000000000000000000000000000000000000000000081526004016116b59061329f565b60405180910390fd5b565b600061012d60009054906101000a900473ffffffffffffffffffffffffffffffffffffffff1690508161012d60006101000a81548173ffffffffffffffffffffffffffffffffffffffff021916908373ffffffffffffffffffffffffffffffffffffffff1602179055508173ffffffffffffffffffffffffffffffffffffffff168173ffffffffffffffffffffffffffffffffffffffff167f8be0079c531659141344cd1fd0a4f28419497f9722a3daafe3b4186f6b6457e060405160405180910390a35050565b8173ffffffffffffffffffffffffffffffffffffffff168373ffffffffffffffffffffffffffffffffffffffff1614156117f7576040517f08c379a00000000000000000000000000000000000000000000000000000000081526004016117ee906130df565b60405180910390fd5b80609c60008573ffffffffffffffffffffffffffffffffffffffff1673ffffffffffffffffffffffffffffffffffffffff16815260200190815260200160002060008473ffffffffffffffffffffffffffffffffffffffff1673ffffffffffffffffffffffffffffffffffffffff16815260200190815260200160002060006101000a81548160ff0219169083151502179055508173ffffffffffffffffffffffffffffffffffffffff168373ffffffffffffffffffffffffffffffffffffffff167f17307eab39ab6107e8899845ad3d59bd9653f200f220920489ca2b5937696c31836040516118e89190613002565b60405180910390a3505050565b611900848484611289565b61190c84848484611d3c565b61194b576040517f08c379a00000000000000000000000000000000000000000000000000000000081526004016119429061303f565b60405180910390fd5b50505050565b606061195c8261107e565b61199b576040517f08c379a0000000000000000000000000000000000000000000000000000000008152600401611992906131df565b60405180910390fd5b600060c9600084815260200190815260200160002080546119bb9061358f565b80601f01602080910402602001604051908101604052809291908181526020018280546119e79061358f565b8015611a345780601f10611a0957610100808354040283529160200191611a34565b820191906000526020600020905b815481529060010190602001808311611a1757829003601f168201915b505050505090506000611a45611ed3565b9050600081511415611a5b578192505050611a9e565b600082511115611a90578082604051602001611a78929190612f4e565b60405160208183030381529060405292505050611a9e565b611a9984611eea565b925050505b919050565b600081600001549050919050565b6001816000016000828254019250508190555050565b611ae1828260405180602001604052806000815250611f91565b5050565b611aee8261107e565b611b2d576040517f08c379a0000000000000000000000000000000000000000000000000000000008152600401611b249061317f565b60405180910390fd5b8060c960008481526020019081526020016000209080519060200190611b54929190612626565b505050565b60007f80ac58cd000000000000000000000000000000000000000000000000000000007bffffffffffffffffffffffffffffffffffffffffffffffffffffffff1916827bffffffffffffffffffffffffffffffffffffffffffffffffffffffff19161480611c2457507f5b5e139f000000000000000000000000000000000000000000000000000000007bffffffffffffffffffffffffffffffffffffffffffffffffffffffff1916827bffffffffffffffffffffffffffffffffffffffffffffffffffffffff1916145b80611c345750611c3382611fec565b5b9050919050565b505050565b505050565b611c4e81612066565b611c57816120b9565b50565b600060019054906101000a900460ff16611ca9576040517f08c379a0000000000000000000000000000000000000000000000000000000008152600401611ca09061329f565b60405180910390fd5b8160979080519060200190611cbf929190612626565b508060989080519060200190611cd6929190612626565b505050565b600060019054906101000a900460ff16611d2a576040517f08c379a0000000000000000000000000000000000000000000000000000000008152600401611d219061329f565b60405180910390fd5b611d3a611d356110ea565b6116c0565b565b6000611d5d8473ffffffffffffffffffffffffffffffffffffffff16611049565b15611ec6578373ffffffffffffffffffffffffffffffffffffffff1663150b7a02611d866110ea565b8786866040518563ffffffff1660e01b8152600401611da89493929190612f8d565b602060405180830381600087803b158015611dc257600080fd5b505af1925050508015611df357506040513d601f19601f82011682018060405250810190611df09190612a66565b60015b611e76573d8060008114611e23576040519150601f19603f3d011682016040523d82523d6000602084013e611e28565b606091505b50600081511415611e6e576040517f08c379a0000000000000000000000000000000000000000000000000000000008152600401611e659061303f565b60405180910390fd5b805181602001fd5b63150b7a0260e01b7bffffffffffffffffffffffffffffffffffffffffffffffffffffffff1916817bffffffffffffffffffffffffffffffffffffffffffffffffffffffff191614915050611ecb565b600190505b949350505050565b606060405180602001604052806000815250905090565b6060611ef58261107e565b611f34576040517f08c379a0000000000000000000000000000000000000000000000000000000008152600401611f2b9061323f565b60405180910390fd5b6000611f3e611ed3565b90506000815111611f5e5760405180602001604052806000815250611f89565b80611f6884612118565b604051602001611f79929190612f4e565b6040516020818303038152906040525b915050919050565b611f9b83836122c5565b611fa86000848484611d3c565b611fe7576040517f08c379a0000000000000000000000000000000000000000000000000000000008152600401611fde9061303f565b60405180910390fd5b505050565b60007f2a55205a000000000000000000000000000000000000000000000000000000007bffffffffffffffffffffffffffffffffffffffffffffffffffffffff1916827bffffffffffffffffffffffffffffffffffffffffffffffffffffffff1916148061205f575061205e8261249f565b5b9050919050565b61206f81612509565b600060c96000838152602001908152602001600020805461208f9061358f565b9050146120b65760c9600082815260200190815260200160002060006120b591906126ac565b5b50565b60666000828152602001908152602001600020600080820160006101000a81549073ffffffffffffffffffffffffffffffffffffffff02191690556000820160146101000a8154906bffffffffffffffffffffffff0219169055505050565b60606000821415612160576040518060400160405280600181526020017f300000000000000000000000000000000000000000000000000000000000000081525090506122c0565b600082905060005b6000821461219257808061217b906135f2565b915050600a8261218b919061341a565b9150612168565b60008167ffffffffffffffff8111156121d4577f4e487b7100000000000000000000000000000000000000000000000000000000600052604160045260246000fd5b6040519080825280601f01601f1916602001820160405280156122065781602001600182028036833780820191505090505b5090505b600085146122b95760018261221f91906134a5565b9150600a8561222e919061363b565b603061223a91906133c4565b60f81b818381518110612276577f4e487b7100000000000000000000000000000000000000000000000000000000600052603260045260246000fd5b60200101907effffffffffffffffffffffffffffffffffffffffffffffffffffffffffffff1916908160001a905350600a856122b2919061341a565b945061220a565b8093505050505b919050565b600073ffffffffffffffffffffffffffffffffffffffff168273ffffffffffffffffffffffffffffffffffffffff161415612335576040517f08c379a000000000000000000000000000000000000000000000000000000000815260040161232c906131bf565b60405180910390fd5b61233e8161107e565b1561237e576040517f08c379a00000000000000000000000000000000000000000000000000000000081526004016123759061309f565b60405180910390fd5b61238a60008383611c3b565b6001609a60008473ffffffffffffffffffffffffffffffffffffffff1673ffffffffffffffffffffffffffffffffffffffff16815260200190815260200160002060008282546123da91906133c4565b92505081905550816099600083815260200190815260200160002060006101000a81548173ffffffffffffffffffffffffffffffffffffffff021916908373ffffffffffffffffffffffffffffffffffffffff160217905550808273ffffffffffffffffffffffffffffffffffffffff16600073ffffffffffffffffffffffffffffffffffffffff167fddf252ad1be2c89b69c2b068fc378daa952ba7f163c4a11628f55a4df523b3ef60405160405180910390a461249b60008383611c40565b5050565b60007f01ffc9a7000000000000000000000000000000000000000000000000000000007bffffffffffffffffffffffffffffffffffffffffffffffffffffffff1916827bffffffffffffffffffffffffffffffffffffffffffffffffffffffff1916149050919050565b600061251482610a46565b905061252281600084611c3b565b61252d6000836110f2565b6001609a60008373ffffffffffffffffffffffffffffffffffffffff1673ffffffffffffffffffffffffffffffffffffffff168152602001908152602001600020600082825461257d91906134a5565b925050819055506099600083815260200190815260200160002060006101000a81549073ffffffffffffffffffffffffffffffffffffffff021916905581600073ffffffffffffffffffffffffffffffffffffffff168273ffffffffffffffffffffffffffffffffffffffff167fddf252ad1be2c89b69c2b068fc378daa952ba7f163c4a11628f55a4df523b3ef60405160405180910390a461262281600084611c40565b5050565b8280546126329061358f565b90600052602060002090601f016020900481019282612654576000855561269b565b82601f1061266d57805160ff191683800117855561269b565b8280016001018555821561269b579182015b8281111561269a57825182559160200191906001019061267f565b5b5090506126a891906126ec565b5090565b5080546126b89061358f565b6000825580601f106126ca57506126e9565b601f0160209004906000526020600020908101906126e891906126ec565b5b50565b5b808211156127055760008160009055506001016126ed565b5090565b600061271c6127178461331f565b6132fa565b90508281526020810184848401111561273457600080fd5b61273f84828561354d565b509392505050565b600061275a61275584613350565b6132fa565b90508281526020810184848401111561277257600080fd5b61277d84828561354d565b509392505050565b60008135905061279481613d1c565b92915050565b6000813590506127a981613d33565b92915050565b6000813590506127be81613d4a565b92915050565b6000815190506127d381613d4a565b92915050565b600082601f8301126127ea57600080fd5b81356127fa848260208601612709565b91505092915050565b600082601f83011261281457600080fd5b8135612824848260208601612747565b91505092915050565b60008135905061283c81613d61565b92915050565b60006020828403121561285457600080fd5b600061286284828501612785565b91505092915050565b6000806040838503121561287e57600080fd5b600061288c85828601612785565b925050602061289d85828601612785565b9150509250929050565b6000806000606084860312156128bc57600080fd5b60006128ca86828701612785565b93505060206128db86828701612785565b92505060406128ec8682870161282d565b9150509250925092565b6000806000806080858703121561290c57600080fd5b600061291a87828801612785565b945050602061292b87828801612785565b935050604061293c8782880161282d565b925050606085013567ffffffffffffffff81111561295957600080fd5b612965878288016127d9565b91505092959194509250565b6000806040838503121561298457600080fd5b600061299285828601612785565b92505060206129a38582860161279a565b9150509250929050565b600080604083850312156129c057600080fd5b60006129ce85828601612785565b925050602083013567ffffffffffffffff8111156129eb57600080fd5b6129f785828601612803565b9150509250929050565b60008060408385031215612a1457600080fd5b6000612a2285828601612785565b9250506020612a338582860161282d565b9150509250929050565b600060208284031215612a4f57600080fd5b6000612a5d848285016127af565b91505092915050565b600060208284031215612a7857600080fd5b6000612a86848285016127c4565b91505092915050565b60008060008060808587031215612aa557600080fd5b600085013567ffffffffffffffff811115612abf57600080fd5b612acb87828801612803565b945050602085013567ffffffffffffffff811115612ae857600080fd5b612af487828801612803565b935050604085013567ffffffffffffffff811115612b1157600080fd5b612b1d87828801612803565b9250506060612b2e87828801612785565b91505092959194509250565b600060208284031215612b4c57600080fd5b6000612b5a8482850161282d565b91505092915050565b60008060408385031215612b7657600080fd5b6000612b848582860161282d565b9250506020612b958582860161282d565b9150509250929050565b612ba8816134d9565b82525050565b612bb7816134eb565b82525050565b6000612bc882613381565b612bd28185613397565b9350612be281856020860161355c565b612beb81613728565b840191505092915050565b6000612c018261338c565b612c0b81856133a8565b9350612c1b81856020860161355c565b612c2481613728565b840191505092915050565b6000612c3a8261338c565b612c4481856133b9565b9350612c5481856020860161355c565b80840191505092915050565b6000612c6d6032836133a8565b9150612c7882613739565b604082019050919050565b6000612c906026836133a8565b9150612c9b82613788565b604082019050919050565b6000612cb36025836133a8565b9150612cbe826137d7565b604082019050919050565b6000612cd6601c836133a8565b9150612ce182613826565b602082019050919050565b6000612cf96024836133a8565b9150612d048261384f565b604082019050919050565b6000612d1c6019836133a8565b9150612d278261389e565b602082019050919050565b6000612d3f602c836133a8565b9150612d4a826138c7565b604082019050919050565b6000612d626038836133a8565b9150612d6d82613916565b604082019050919050565b6000612d85602a836133a8565b9150612d9082613965565b604082019050919050565b6000612da86029836133a8565b9150612db3826139b4565b604082019050919050565b6000612dcb602e836133a8565b9150612dd682613a03565b604082019050919050565b6000612dee602e836133a8565b9150612df982613a52565b604082019050919050565b6000612e116020836133a8565b9150612e1c82613aa1565b602082019050919050565b6000612e346031836133a8565b9150612e3f82613aca565b604082019050919050565b6000612e57602c836133a8565b9150612e6282613b19565b604082019050919050565b6000612e7a6020836133a8565b9150612e8582613b68565b602082019050919050565b6000612e9d602f836133a8565b9150612ea882613b91565b604082019050919050565b6000612ec06021836133a8565b9150612ecb82613be0565b604082019050919050565b6000612ee36031836133a8565b9150612eee82613c2f565b604082019050919050565b6000612f06602b836133a8565b9150612f1182613c7e565b604082019050919050565b6000612f296030836133a8565b9150612f3482613ccd565b604082019050919050565b612f4881613543565b82525050565b6000612f5a8285612c2f565b9150612f668284612c2f565b91508190509392505050565b6000602082019050612f876000830184612b9f565b92915050565b6000608082019050612fa26000830187612b9f565b612faf6020830186612b9f565b612fbc6040830185612f3f565b8181036060830152612fce8184612bbd565b905095945050505050565b6000604082019050612fee6000830185612b9f565b612ffb6020830184612f3f565b9392505050565b60006020820190506130176000830184612bae565b92915050565b600060208201905081810360008301526130378184612bf6565b905092915050565b6000602082019050818103600083015261305881612c60565b9050919050565b6000602082019050818103600083015261307881612c83565b9050919050565b6000602082019050818103600083015261309881612ca6565b9050919050565b600060208201905081810360008301526130b881612cc9565b9050919050565b600060208201905081810360008301526130d881612cec565b9050919050565b600060208201905081810360008301526130f881612d0f565b9050919050565b6000602082019050818103600083015261311881612d32565b9050919050565b6000602082019050818103600083015261313881612d55565b9050919050565b6000602082019050818103600083015261315881612d78565b9050919050565b6000602082019050818103600083015261317881612d9b565b9050919050565b6000602082019050818103600083015261319881612dbe565b9050919050565b600060208201905081810360008301526131b881612de1565b9050919050565b600060208201905081810360008301526131d881612e04565b9050919050565b600060208201905081810360008301526131f881612e27565b9050919050565b6000602082019050818103600083015261321881612e4a565b9050919050565b6000602082019050818103600083015261323881612e6d565b9050919050565b6000602082019050818103600083015261325881612e90565b9050919050565b6000602082019050818103600083015261327881612eb3565b9050919050565b6000602082019050818103600083015261329881612ed6565b9050919050565b600060208201905081810360008301526132b881612ef9565b9050919050565b600060208201905081810360008301526132d881612f1c565b9050919050565b60006020820190506132f46000830184612f3f565b92915050565b6000613304613315565b905061331082826135c1565b919050565b6000604051905090565b600067ffffffffffffffff82111561333a576133396136f9565b5b61334382613728565b9050602081019050919050565b600067ffffffffffffffff82111561336b5761336a6136f9565b5b61337482613728565b9050602081019050919050565b600081519050919050565b600081519050919050565b600082825260208201905092915050565b600082825260208201905092915050565b600081905092915050565b60006133cf82613543565b91506133da83613543565b9250827fffffffffffffffffffffffffffffffffffffffffffffffffffffffffffffffff0382111561340f5761340e61366c565b5b828201905092915050565b600061342582613543565b915061343083613543565b9250826134405761343f61369b565b5b828204905092915050565b600061345682613543565b915061346183613543565b9250817fffffffffffffffffffffffffffffffffffffffffffffffffffffffffffffffff048311821515161561349a5761349961366c565b5b828202905092915050565b60006134b082613543565b91506134bb83613543565b9250828210156134ce576134cd61366c565b5b828203905092915050565b60006134e482613523565b9050919050565b60008115159050919050565b60007fffffffff0000000000000000000000000000000000000000000000000000000082169050919050565b600073ffffffffffffffffffffffffffffffffffffffff82169050919050565b6000819050919050565b82818337600083830152505050565b60005b8381101561357a57808201518184015260208101905061355f565b83811115613589576000848401525b50505050565b600060028204905060018216806135a757607f821691505b602082108114156135bb576135ba6136ca565b5b50919050565b6135ca82613728565b810181811067ffffffffffffffff821117156135e9576135e86136f9565b5b80604052505050565b60006135fd82613543565b91507fffffffffffffffffffffffffffffffffffffffffffffffffffffffffffffffff8214156136305761362f61366c565b5b600182019050919050565b600061364682613543565b915061365183613543565b9250826136615761366061369b565b5b828206905092915050565b7f4e487b7100000000000000000000000000000000000000000000000000000000600052601160045260246000fd5b7f4e487b7100000000000000000000000000000000000000000000000000000000600052601260045260246000fd5b7f4e487b7100000000000000000000000000000000000000000000000000000000600052602260045260246000fd5b7f4e487b7100000000000000000000000000000000000000000000000000000000600052604160045260246000fd5b6000601f19601f8301169050919050565b7f4552433732313a207472616e7366657220746f206e6f6e20455243373231526560008201527f63656976657220696d706c656d656e7465720000000000000000000000000000602082015250565b7f4f776e61626c653a206e6577206f776e657220697320746865207a65726f206160008201527f6464726573730000000000000000000000000000000000000000000000000000602082015250565b7f4552433732313a207472616e736665722066726f6d20696e636f72726563742060008201527f6f776e6572000000000000000000000000000000000000000000000000000000602082015250565b7f4552433732313a20746f6b656e20616c7265616479206d696e74656400000000600082015250565b7f4552433732313a207472616e7366657220746f20746865207a65726f2061646460008201527f7265737300000000000000000000000000000000000000000000000000000000602082015250565b7f4552433732313a20617070726f766520746f2063616c6c657200000000000000600082015250565b7f4552433732313a206f70657261746f7220717565727920666f72206e6f6e657860008201527f697374656e7420746f6b656e0000000000000000000000000000000000000000602082015250565b7f4552433732313a20617070726f76652063616c6c6572206973206e6f74206f7760008201527f6e6572206e6f7220617070726f76656420666f7220616c6c0000000000000000602082015250565b7f4552433732313a2062616c616e636520717565727920666f7220746865207a6560008201527f726f206164647265737300000000000000000000000000000000000000000000602082015250565b7f4552433732313a206f776e657220717565727920666f72206e6f6e657869737460008201527f656e7420746f6b656e0000000000000000000000000000000000000000000000602082015250565b7f45524337323155524953746f726167653a2055524920736574206f66206e6f6e60008201527f6578697374656e7420746f6b656e000000000000000000000000000000000000602082015250565b7f496e697469616c697a61626c653a20636f6e747261637420697320616c72656160008201527f647920696e697469616c697a6564000000000000000000000000000000000000602082015250565b7f4552433732313a206d696e7420746f20746865207a65726f2061646472657373600082015250565b7f45524337323155524953746f726167653a2055524920717565727920666f722060008201527f6e6f6e6578697374656e7420746f6b656e000000000000000000000000000000602082015250565b7f4552433732313a20617070726f76656420717565727920666f72206e6f6e657860008201527f697374656e7420746f6b656e0000000000000000000000000000000000000000602082015250565b7f4f776e61626c653a2063616c6c6572206973206e6f7420746865206f776e6572600082015250565b7f4552433732314d657461646174613a2055524920717565727920666f72206e6f60008201527f6e6578697374656e7420746f6b656e0000000000000000000000000000000000602082015250565b7f4552433732313a20617070726f76616c20746f2063757272656e74206f776e6560008201527f7200000000000000000000000000000000000000000000000000000000000000602082015250565b7f4552433732313a207472616e736665722063616c6c6572206973206e6f74206f60008201527f776e6572206e6f7220617070726f766564000000000000000000000000000000602082015250565b7f496e697469616c697a61626c653a20636f6e7472616374206973206e6f74206960008201527f6e697469616c697a696e67000000000000000000000000000000000000000000602082015250565b7f4552433732314275726e61626c653a2063616c6c6572206973206e6f74206f7760008201527f6e6572206e6f7220617070726f76656400000000000000000000000000000000602082015250565b613d25816134d9565b8114613d3057600080fd5b50565b613d3c816134eb565b8114613d4757600080fd5b50565b613d53816134f7565b8114613d5e57600080fd5b50565b613d6a81613543565b8114613d7557600080fd5b5056fea26469706673582212207779806aa68185e0a3f66f15d5d4ca9d4c6f886837c0eefe8a88a77c8145789a64736f6c63430008040033",
  "immutableReferences": {},
  "source": "// SPDX-License-Identifier: MIT\r\npragma solidity >=0.4.22 <0.9.0;\r\n\r\nimport \"@openzeppelin/contracts-upgradeable/token/ERC721/ERC721Upgradeable.sol\";\r\nimport \"@openzeppelin/contracts-upgradeable/token/ERC721/extensions/ERC721URIStorageUpgradeable.sol\";\r\nimport \"@openzeppelin/contracts-upgradeable/token/ERC721/extensions/ERC721BurnableUpgradeable.sol\";\r\nimport \"@openzeppelin/contracts-upgradeable/access/OwnableUpgradeable.sol\";\r\nimport \"@openzeppelin/contracts-upgradeable/proxy/utils/Initializable.sol\";\r\nimport \"@openzeppelin/contracts-upgradeable/utils/CountersUpgradeable.sol\";\r\nimport \"@openzeppelin/contracts-upgradeable/token/ERC721/extensions/ERC721RoyaltyUpgradeable.sol\";\r\n\r\ncontract NFT721 is\r\n    Initializable,\r\n    ERC721Upgradeable,\r\n    ERC721URIStorageUpgradeable,\r\n    ERC721BurnableUpgradeable,\r\n    OwnableUpgradeable,\r\n    ERC721RoyaltyUpgradeable\r\n{\r\n    using CountersUpgradeable for CountersUpgradeable.Counter;\r\n\r\n    CountersUpgradeable.Counter private _tokenIdCounter;\r\n\r\n    string public contractURI;\r\n\r\n    /// @custom:oz-upgrades-unsafe-allow constructor\r\n    constructor() initializer {}\r\n\r\n    function initialize(\r\n        string memory _name,\r\n        string memory _symbol,\r\n        string memory _uri,\r\n        address deployer\r\n    ) public initializer {\r\n        __ERC721_init(_name, _symbol);\r\n        __ERC721URIStorage_init();\r\n        __ERC721Burnable_init();\r\n        __Ownable_init();\r\n        __ERC721Royalty_init();\r\n        \r\n        contractURI = _uri;\r\n        _transferOwnership(deployer);\r\n    }\r\n\r\n    function safeMint(address to, string memory uri) public onlyOwner {\r\n        uint256 tokenId = _tokenIdCounter.current();\r\n        _tokenIdCounter.increment();\r\n        _safeMint(to, tokenId);\r\n        _setTokenURI(tokenId, uri);\r\n    }\r\n\r\n    // The following functions are overrides required by Solidity.\r\n\r\n    function _burn(uint256 tokenId)\r\n        internal\r\n        override(ERC721Upgradeable, ERC721URIStorageUpgradeable, ERC721RoyaltyUpgradeable)\r\n    {\r\n        super._burn(tokenId);\r\n    }\r\n\r\n    function tokenURI(uint256 tokenId)\r\n        public\r\n        view\r\n        override(ERC721Upgradeable, ERC721URIStorageUpgradeable)\r\n        returns (string memory)\r\n    {\r\n        return super.tokenURI(tokenId);\r\n    }\r\n\r\n    function supportsInterface(bytes4 interfaceId)\r\n        public\r\n        view\r\n        virtual\r\n        override(ERC721Upgradeable, ERC721RoyaltyUpgradeable)\r\n        returns (bool)\r\n    {\r\n        return super.supportsInterface(interfaceId);\r\n    }\r\n}\r\n",
  "sourcePath": "E:\\LamViec\\STECH_Corp\\nft-marketplace\\src\\contracts\\contracts\\NFT721.sol",
  "compiler": {
    "name": "solc",
    "version": "0.8.4+commit.c7e474f2.Emscripten.clang"
  },
  "schemaVersion": "3.4.4",
  "updatedAt": "2022-02-19T07:40:02.861Z",
  "devdoc": {
    "kind": "dev",
    "methods": {
      "approve(address,uint256)": {
        "details": "See {IERC721-approve}."
      },
      "balanceOf(address)": {
        "details": "See {IERC721-balanceOf}."
      },
      "burn(uint256)": {
        "details": "Burns `tokenId`. See {ERC721-_burn}. Requirements: - The caller must own `tokenId` or be an approved operator."
      },
      "constructor": {
        "custom:oz-upgrades-unsafe-allow": "constructor"
      },
      "getApproved(uint256)": {
        "details": "See {IERC721-getApproved}."
      },
      "isApprovedForAll(address,address)": {
        "details": "See {IERC721-isApprovedForAll}."
      },
      "name()": {
        "details": "See {IERC721Metadata-name}."
      },
      "owner()": {
        "details": "Returns the address of the current owner."
      },
      "ownerOf(uint256)": {
        "details": "See {IERC721-ownerOf}."
      },
      "renounceOwnership()": {
        "details": "Leaves the contract without owner. It will not be possible to call `onlyOwner` functions anymore. Can only be called by the current owner. NOTE: Renouncing ownership will leave the contract without an owner, thereby removing any functionality that is only available to the owner."
      },
      "royaltyInfo(uint256,uint256)": {
        "details": "Returns how much royalty is owed and to whom, based on a sale price that may be denominated in any unit of exchange. The royalty amount is denominated and should be payed in that same unit of exchange."
      },
      "safeTransferFrom(address,address,uint256)": {
        "details": "See {IERC721-safeTransferFrom}."
      },
      "safeTransferFrom(address,address,uint256,bytes)": {
        "details": "See {IERC721-safeTransferFrom}."
      },
      "setApprovalForAll(address,bool)": {
        "details": "See {IERC721-setApprovalForAll}."
      },
      "symbol()": {
        "details": "See {IERC721Metadata-symbol}."
      },
      "transferFrom(address,address,uint256)": {
        "details": "See {IERC721-transferFrom}."
      },
      "transferOwnership(address)": {
        "details": "Transfers ownership of the contract to a new account (`newOwner`). Can only be called by the current owner."
      }
    },
    "version": 1
  },
  "userdoc": {
    "kind": "user",
    "methods": {},
    "version": 1
  }
}