{
  "contractName": "NFTControl",
  "abi": [
    {
      "inputs": [],
      "stateMutability": "nonpayable",
      "type": "constructor"
    },
    {
      "anonymous": false,
      "inputs": [
        {
          "indexed": true,
          "internalType": "address",
          "name": "_deployer",
          "type": "address"
        },
        {
          "indexed": true,
          "internalType": "address",
          "name": "contractAddress",
          "type": "address"
        }
      ],
      "name": "DeployedContract",
      "type": "event"
    },
    {
      "anonymous": false,
      "inputs": [
        {
          "indexed": true,
          "internalType": "bytes32",
          "name": "role",
          "type": "bytes32"
        },
        {
          "indexed": true,
          "internalType": "bytes32",
          "name": "previousAdminRole",
          "type": "bytes32"
        },
        {
          "indexed": true,
          "internalType": "bytes32",
          "name": "newAdminRole",
          "type": "bytes32"
        }
      ],
      "name": "RoleAdminChanged",
      "type": "event"
    },
    {
      "anonymous": false,
      "inputs": [
        {
          "indexed": true,
          "internalType": "bytes32",
          "name": "role",
          "type": "bytes32"
        },
        {
          "indexed": true,
          "internalType": "address",
          "name": "account",
          "type": "address"
        },
        {
          "indexed": true,
          "internalType": "address",
          "name": "sender",
          "type": "address"
        }
      ],
      "name": "RoleGranted",
      "type": "event"
    },
    {
      "anonymous": false,
      "inputs": [
        {
          "indexed": true,
          "internalType": "bytes32",
          "name": "role",
          "type": "bytes32"
        },
        {
          "indexed": true,
          "internalType": "address",
          "name": "account",
          "type": "address"
        },
        {
          "indexed": true,
          "internalType": "address",
          "name": "sender",
          "type": "address"
        }
      ],
      "name": "RoleRevoked",
      "type": "event"
    },
    {
      "inputs": [],
      "name": "DEFAULT_ADMIN_ROLE",
      "outputs": [
        {
          "internalType": "bytes32",
          "name": "",
          "type": "bytes32"
        }
      ],
      "stateMutability": "view",
      "type": "function"
    },
    {
      "inputs": [],
      "name": "REGISTRY_ROLE",
      "outputs": [
        {
          "internalType": "bytes32",
          "name": "",
          "type": "bytes32"
        }
      ],
      "stateMutability": "view",
      "type": "function"
    },
    {
      "inputs": [
        {
          "internalType": "bytes32",
          "name": "role",
          "type": "bytes32"
        }
      ],
      "name": "getRoleAdmin",
      "outputs": [
        {
          "internalType": "bytes32",
          "name": "",
          "type": "bytes32"
        }
      ],
      "stateMutability": "view",
      "type": "function"
    },
    {
      "inputs": [
        {
          "internalType": "bytes32",
          "name": "role",
          "type": "bytes32"
        },
        {
          "internalType": "address",
          "name": "account",
          "type": "address"
        }
      ],
      "name": "grantRole",
      "outputs": [],
      "stateMutability": "nonpayable",
      "type": "function"
    },
    {
      "inputs": [
        {
          "internalType": "bytes32",
          "name": "role",
          "type": "bytes32"
        },
        {
          "internalType": "address",
          "name": "account",
          "type": "address"
        }
      ],
      "name": "hasRole",
      "outputs": [
        {
          "internalType": "bool",
          "name": "",
          "type": "bool"
        }
      ],
      "stateMutability": "view",
      "type": "function"
    },
    {
      "inputs": [
        {
          "internalType": "bytes32",
          "name": "role",
          "type": "bytes32"
        },
        {
          "internalType": "address",
          "name": "account",
          "type": "address"
        }
      ],
      "name": "renounceRole",
      "outputs": [],
      "stateMutability": "nonpayable",
      "type": "function"
    },
    {
      "inputs": [
        {
          "internalType": "bytes32",
          "name": "role",
          "type": "bytes32"
        },
        {
          "internalType": "address",
          "name": "account",
          "type": "address"
        }
      ],
      "name": "revokeRole",
      "outputs": [],
      "stateMutability": "nonpayable",
      "type": "function"
    },
    {
      "inputs": [
        {
          "internalType": "bytes4",
          "name": "interfaceId",
          "type": "bytes4"
        }
      ],
      "name": "supportsInterface",
      "outputs": [
        {
          "internalType": "bool",
          "name": "",
          "type": "bool"
        }
      ],
      "stateMutability": "view",
      "type": "function"
    },
    {
      "inputs": [
        {
          "internalType": "string",
          "name": "name",
          "type": "string"
        },
        {
          "internalType": "string",
          "name": "symbol",
          "type": "string"
        },
        {
          "internalType": "string",
          "name": "uri",
          "type": "string"
        }
      ],
      "name": "deployNFT",
      "outputs": [
        {
          "internalType": "address",
          "name": "contractAddress",
          "type": "address"
        }
      ],
      "stateMutability": "nonpayable",
      "type": "function"
    }
  ],
  "bytecode": "0x60a06040523480156200001157600080fd5b50604051620000209062000208565b604051809103906000f0801580156200003d573d6000803e3d6000fd5b5073ffffffffffffffffffffffffffffffffffffffff1660808173ffffffffffffffffffffffffffffffffffffffff1660601b81525050620000896000801b336200008f60201b60201c565b62000216565b620000a18282620000a560201b60201c565b5050565b620000b782826200019660201b60201c565b6200019257600160008084815260200190815260200160002060000160008373ffffffffffffffffffffffffffffffffffffffff1673ffffffffffffffffffffffffffffffffffffffff16815260200190815260200160002060006101000a81548160ff021916908315150217905550620001376200020060201b60201c565b73ffffffffffffffffffffffffffffffffffffffff168173ffffffffffffffffffffffffffffffffffffffff16837f2f8788117e7eff1d82e926ec794901d17c78024a50270940304540a733656f0d60405160405180910390a45b5050565b600080600084815260200190815260200160002060000160008373ffffffffffffffffffffffffffffffffffffffff1673ffffffffffffffffffffffffffffffffffffffff16815260200190815260200160002060009054906101000a900460ff16905092915050565b600033905090565b613fb180620017e183390190565b60805160601c6115ac62000235600039600061039d01526115ac6000f3fe608060405234801561001057600080fd5b50600436106100935760003560e01c806342f1e8791161006657806342f1e879146101305780637309fe221461014e57806391d148541461017e578063a217fddf146101ae578063d547741f146101cc57610093565b806301ffc9a714610098578063248a9ca3146100c85780632f2ff15d146100f857806336568abe14610114575b600080fd5b6100b260048036038101906100ad9190610d85565b6101e8565b6040516100bf919061103a565b60405180910390f35b6100e260048036038101906100dd9190610d20565b610262565b6040516100ef9190611055565b60405180910390f35b610112600480360381019061010d9190610d49565b610281565b005b61012e60048036038101906101299190610d49565b6102aa565b005b61013861032d565b6040516101459190611055565b60405180910390f35b61016860048036038101906101639190610dae565b610351565b604051610175919061101f565b60405180910390f35b61019860048036038101906101939190610d49565b610499565b6040516101a5919061103a565b60405180910390f35b6101b6610503565b6040516101c39190611055565b60405180910390f35b6101e660048036038101906101e19190610d49565b61050a565b005b60007f7965db0b000000000000000000000000000000000000000000000000000000007bffffffffffffffffffffffffffffffffffffffffffffffffffffffff1916827bffffffffffffffffffffffffffffffffffffffffffffffffffffffff1916148061025b575061025a82610533565b5b9050919050565b6000806000838152602001908152602001600020600101549050919050565b61028a82610262565b61029b8161029661059d565b6105a5565b6102a58383610642565b505050565b6102b261059d565b73ffffffffffffffffffffffffffffffffffffffff168173ffffffffffffffffffffffffffffffffffffffff161461031f576040517f08c379a00000000000000000000000000000000000000000000000000000000081526004016103169061112c565b60405180910390fd5b6103298282610722565b5050565b7fc2979137d1774e40fe2638d355bf7a7b092be4c67f242aad1655e1e27f9df9cc81565b60008061035c61059d565b9050600061036982610803565b905060008282604051602001610380929190610fb9565b6040516020818303038152906040528051906020012090506103c27f0000000000000000000000000000000000000000000000000000000000000000826108a8565b93508373ffffffffffffffffffffffffffffffffffffffff16635c6d8da1888888876040518563ffffffff1660e01b81526004016104039493929190611092565b600060405180830381600087803b15801561041d57600080fd5b505af1158015610431573d6000803e3d6000fd5b505050508373ffffffffffffffffffffffffffffffffffffffff168373ffffffffffffffffffffffffffffffffffffffff167f7c1c375b5d7058b70b38124731d18355d07bf2c6a6669f86da68b5ae0b547d5b60405160405180910390a35050509392505050565b600080600084815260200190815260200160002060000160008373ffffffffffffffffffffffffffffffffffffffff1673ffffffffffffffffffffffffffffffffffffffff16815260200190815260200160002060009054906101000a900460ff16905092915050565b6000801b81565b61051382610262565b6105248161051f61059d565b6105a5565b61052e8383610722565b505050565b60007f01ffc9a7000000000000000000000000000000000000000000000000000000007bffffffffffffffffffffffffffffffffffffffffffffffffffffffff1916827bffffffffffffffffffffffffffffffffffffffffffffffffffffffff1916149050919050565b600033905090565b6105af8282610499565b61063e576105d48173ffffffffffffffffffffffffffffffffffffffff16601461097f565b6105e28360001c602061097f565b6040516020016105f3929190610fe5565b6040516020818303038152906040526040517f08c379a00000000000000000000000000000000000000000000000000000000081526004016106359190611070565b60405180910390fd5b5050565b61064c8282610499565b61071e57600160008084815260200190815260200160002060000160008373ffffffffffffffffffffffffffffffffffffffff1673ffffffffffffffffffffffffffffffffffffffff16815260200190815260200160002060006101000a81548160ff0219169083151502179055506106c361059d565b73ffffffffffffffffffffffffffffffffffffffff168173ffffffffffffffffffffffffffffffffffffffff16837f2f8788117e7eff1d82e926ec794901d17c78024a50270940304540a733656f0d60405160405180910390a45b5050565b61072c8282610499565b156107ff57600080600084815260200190815260200160002060000160008373ffffffffffffffffffffffffffffffffffffffff1673ffffffffffffffffffffffffffffffffffffffff16815260200190815260200160002060006101000a81548160ff0219169083151502179055506107a461059d565b73ffffffffffffffffffffffffffffffffffffffff168173ffffffffffffffffffffffffffffffffffffffff16837ff6391f5c32d9c69d2a47ea670b442974b53935d1edc7fd64eb21e047a839171b60405160405180910390a45b5050565b600060018060008473ffffffffffffffffffffffffffffffffffffffff1673ffffffffffffffffffffffffffffffffffffffff168152602001908152602001600020600001600082825461085791906111c9565b92505081905550600160008373ffffffffffffffffffffffffffffffffffffffff1673ffffffffffffffffffffffffffffffffffffffff168152602001908152602001600020600001549050919050565b60006040517f3d602d80600a3d3981f3363d3d373d3d3d363d7300000000000000000000000081528360601b60148201527f5af43d82803e903d91602b57fd5bf300000000000000000000000000000000006028820152826037826000f5915050600073ffffffffffffffffffffffffffffffffffffffff168173ffffffffffffffffffffffffffffffffffffffff161415610979576040517f08c379a00000000000000000000000000000000000000000000000000000000081526004016109709061110c565b60405180910390fd5b92915050565b606060006002836002610992919061121f565b61099c91906111c9565b67ffffffffffffffff8111156109db577f4e487b7100000000000000000000000000000000000000000000000000000000600052604160045260246000fd5b6040519080825280601f01601f191660200182016040528015610a0d5781602001600182028036833780820191505090505b5090507f300000000000000000000000000000000000000000000000000000000000000081600081518110610a6b577f4e487b7100000000000000000000000000000000000000000000000000000000600052603260045260246000fd5b60200101907effffffffffffffffffffffffffffffffffffffffffffffffffffffffffffff1916908160001a9053507f780000000000000000000000000000000000000000000000000000000000000081600181518110610af5577f4e487b7100000000000000000000000000000000000000000000000000000000600052603260045260246000fd5b60200101907effffffffffffffffffffffffffffffffffffffffffffffffffffffffffffff1916908160001a90535060006001846002610b35919061121f565b610b3f91906111c9565b90505b6001811115610c2b577f3031323334353637383961626364656600000000000000000000000000000000600f861660108110610ba7577f4e487b7100000000000000000000000000000000000000000000000000000000600052603260045260246000fd5b1a60f81b828281518110610be4577f4e487b7100000000000000000000000000000000000000000000000000000000600052603260045260246000fd5b60200101907effffffffffffffffffffffffffffffffffffffffffffffffffffffffffffff1916908160001a905350600485901c945080610c2490611339565b9050610b42565b5060008414610c6f576040517f08c379a0000000000000000000000000000000000000000000000000000000008152600401610c66906110ec565b60405180910390fd5b8091505092915050565b6000610c8c610c8784611171565b61114c565b905082815260208101848484011115610ca457600080fd5b610caf8482856112f7565b509392505050565b600081359050610cc681611531565b92915050565b600081359050610cdb81611548565b92915050565b600081359050610cf08161155f565b92915050565b600082601f830112610d0757600080fd5b8135610d17848260208601610c79565b91505092915050565b600060208284031215610d3257600080fd5b6000610d4084828501610ccc565b91505092915050565b60008060408385031215610d5c57600080fd5b6000610d6a85828601610ccc565b9250506020610d7b85828601610cb7565b9150509250929050565b600060208284031215610d9757600080fd5b6000610da584828501610ce1565b91505092915050565b600080600060608486031215610dc357600080fd5b600084013567ffffffffffffffff811115610ddd57600080fd5b610de986828701610cf6565b935050602084013567ffffffffffffffff811115610e0657600080fd5b610e1286828701610cf6565b925050604084013567ffffffffffffffff811115610e2f57600080fd5b610e3b86828701610cf6565b9150509250925092565b610e4e81611279565b82525050565b610e65610e6082611279565b611394565b82525050565b610e748161128b565b82525050565b610e8381611297565b82525050565b6000610e94826111a2565b610e9e81856111ad565b9350610eae818560208601611306565b610eb781611420565b840191505092915050565b6000610ecd826111a2565b610ed781856111be565b9350610ee7818560208601611306565b80840191505092915050565b6000610f006020836111ad565b9150610f0b8261143e565b602082019050919050565b6000610f236017836111ad565b9150610f2e82611467565b602082019050919050565b6000610f466017836111be565b9150610f5182611490565b601782019050919050565b6000610f696011836111be565b9150610f74826114b9565b601182019050919050565b6000610f8c602f836111ad565b9150610f97826114e2565b604082019050919050565b610fb3610fae826112ed565b6113b8565b82525050565b6000610fc58285610e54565b601482019150610fd58284610fa2565b6020820191508190509392505050565b6000610ff082610f39565b9150610ffc8285610ec2565b915061100782610f5c565b91506110138284610ec2565b91508190509392505050565b60006020820190506110346000830184610e45565b92915050565b600060208201905061104f6000830184610e6b565b92915050565b600060208201905061106a6000830184610e7a565b92915050565b6000602082019050818103600083015261108a8184610e89565b905092915050565b600060808201905081810360008301526110ac8187610e89565b905081810360208301526110c08186610e89565b905081810360408301526110d48185610e89565b90506110e36060830184610e45565b95945050505050565b6000602082019050818103600083015261110581610ef3565b9050919050565b6000602082019050818103600083015261112581610f16565b9050919050565b6000602082019050818103600083015261114581610f7f565b9050919050565b6000611156611167565b90506111628282611363565b919050565b6000604051905090565b600067ffffffffffffffff82111561118c5761118b6113f1565b5b61119582611420565b9050602081019050919050565b600081519050919050565b600082825260208201905092915050565b600081905092915050565b60006111d4826112ed565b91506111df836112ed565b9250827fffffffffffffffffffffffffffffffffffffffffffffffffffffffffffffffff03821115611214576112136113c2565b5b828201905092915050565b600061122a826112ed565b9150611235836112ed565b9250817fffffffffffffffffffffffffffffffffffffffffffffffffffffffffffffffff048311821515161561126e5761126d6113c2565b5b828202905092915050565b6000611284826112cd565b9050919050565b60008115159050919050565b6000819050919050565b60007fffffffff0000000000000000000000000000000000000000000000000000000082169050919050565b600073ffffffffffffffffffffffffffffffffffffffff82169050919050565b6000819050919050565b82818337600083830152505050565b60005b83811015611324578082015181840152602081019050611309565b83811115611333576000848401525b50505050565b6000611344826112ed565b91506000821415611358576113576113c2565b5b600182039050919050565b61136c82611420565b810181811067ffffffffffffffff8211171561138b5761138a6113f1565b5b80604052505050565b600061139f826113a6565b9050919050565b60006113b182611431565b9050919050565b6000819050919050565b7f4e487b7100000000000000000000000000000000000000000000000000000000600052601160045260246000fd5b7f4e487b7100000000000000000000000000000000000000000000000000000000600052604160045260246000fd5b6000601f19601f8301169050919050565b60008160601b9050919050565b7f537472696e67733a20686578206c656e67746820696e73756666696369656e74600082015250565b7f455243313136373a2063726561746532206661696c6564000000000000000000600082015250565b7f416363657373436f6e74726f6c3a206163636f756e7420000000000000000000600082015250565b7f206973206d697373696e6720726f6c6520000000000000000000000000000000600082015250565b7f416363657373436f6e74726f6c3a2063616e206f6e6c792072656e6f756e636560008201527f20726f6c657320666f722073656c660000000000000000000000000000000000602082015250565b61153a81611279565b811461154557600080fd5b50565b61155181611297565b811461155c57600080fd5b50565b611568816112a1565b811461157357600080fd5b5056fea2646970667358221220e62b67fad76e7e9c42ff8a53083cbdea95284c9ca9f431c0e60e7125294b6e8d64736f6c6343000804003360806040523480156200001157600080fd5b50600060019054906101000a900460ff166200003c5760008054906101000a900460ff16156200004d565b6200004c6200010960201b60201c565b5b6200008f576040517f08c379a0000000000000000000000000000000000000000000000000000000008152600401620000869062000171565b60405180910390fd5b60008060019054906101000a900460ff161590508015620000e0576001600060016101000a81548160ff02191690831515021790555060016000806101000a81548160ff0219169083151502179055505b8015620001025760008060016101000a81548160ff0219169083151502179055505b50620001f3565b600062000121306200012760201b620010491760201c565b15905090565b6000808273ffffffffffffffffffffffffffffffffffffffff163b119050919050565b600062000159602e8362000193565b91506200016682620001a4565b604082019050919050565b600060208201905081810360008301526200018c816200014a565b9050919050565b600082825260208201905092915050565b7f496e697469616c697a61626c653a20636f6e747261637420697320616c72656160008201527f647920696e697469616c697a6564000000000000000000000000000000000000602082015250565b613dae80620002036000396000f3fe608060405234801561001057600080fd5b50600436106101375760003560e01c806370a08231116100b8578063b88d4fde1161007c578063b88d4fde14610339578063c87b56dd14610355578063d204c45e14610385578063e8a3d485146103a1578063e985e9c5146103bf578063f2fde38b146103ef57610137565b806370a08231146102a7578063715018a6146102d75780638da5cb5b146102e157806395d89b41146102ff578063a22cb4651461031d57610137565b80632a55205a116100ff5780632a55205a146101f257806342842e0e1461022357806342966c681461023f5780635c6d8da11461025b5780636352211e1461027757610137565b806301ffc9a71461013c57806306fdde031461016c578063081812fc1461018a578063095ea7b3146101ba57806323b872dd146101d6575b600080fd5b61015660048036038101906101519190612a3d565b61040b565b6040516101639190613002565b60405180910390f35b61017461041d565b604051610181919061301d565b60405180910390f35b6101a4600480360381019061019f9190612b3a565b6104af565b6040516101b19190612f72565b60405180910390f35b6101d460048036038101906101cf9190612a01565b610534565b005b6101f060048036038101906101eb91906128a7565b61064c565b005b61020c60048036038101906102079190612b63565b6106ac565b60405161021a929190612fd9565b60405180910390f35b61023d600480360381019061023891906128a7565b610897565b005b61025960048036038101906102549190612b3a565b6108b7565b005b61027560048036038101906102709190612a8f565b610913565b005b610291600480360381019061028c9190612b3a565b610a46565b60405161029e9190612f72565b60405180910390f35b6102c160048036038101906102bc9190612842565b610af8565b6040516102ce91906132df565b60405180910390f35b6102df610bb0565b005b6102e9610c38565b6040516102f69190612f72565b60405180910390f35b610307610c63565b604051610314919061301d565b60405180910390f35b61033760048036038101906103329190612971565b610cf5565b005b610353600480360381019061034e91906128f6565b610d0b565b005b61036f600480360381019061036a9190612b3a565b610d6d565b60405161037c919061301d565b60405180910390f35b61039f600480360381019061039a91906129ad565b610d7f565b005b6103a9610e2e565b6040516103b6919061301d565b60405180910390f35b6103d960048036038101906103d4919061286b565b610ebd565b6040516103e69190613002565b60405180910390f35b61040960048036038101906104049190612842565b610f51565b005b60006104168261106c565b9050919050565b60606097805461042c9061358f565b80601f01602080910402602001604051908101604052809291908181526020018280546104589061358f565b80156104a55780601f1061047a576101008083540402835291602001916104a5565b820191906000526020600020905b81548152906001019060200180831161048857829003601f168201915b5050505050905090565b60006104ba8261107e565b6104f9576040517f08c379a00000000000000000000000000000000000000000000000000000000081526004016104f0906131ff565b60405180910390fd5b609b600083815260200190815260200160002060009054906101000a900473ffffffffffffffffffffffffffffffffffffffff169050919050565b600061053f82610a46565b90508073ffffffffffffffffffffffffffffffffffffffff168373ffffffffffffffffffffffffffffffffffffffff1614156105b0576040517f08c379a00000000000000000000000000000000000000000000000000000000081526004016105a79061325f565b60405180910390fd5b8073ffffffffffffffffffffffffffffffffffffffff166105cf6110ea565b73ffffffffffffffffffffffffffffffffffffffff1614806105fe57506105fd816105f86110ea565b610ebd565b5b61063d576040517f08c379a00000000000000000000000000000000000000000000000000000000081526004016106349061311f565b60405180910390fd5b61064783836110f2565b505050565b61065d6106576110ea565b826111ab565b61069c576040517f08c379a00000000000000000000000000000000000000000000000000000000081526004016106939061327f565b60405180910390fd5b6106a7838383611289565b505050565b6000806000606660008681526020019081526020016000206040518060400160405290816000820160009054906101000a900473ffffffffffffffffffffffffffffffffffffffff1673ffffffffffffffffffffffffffffffffffffffff1673ffffffffffffffffffffffffffffffffffffffff1681526020016000820160149054906101000a90046bffffffffffffffffffffffff166bffffffffffffffffffffffff166bffffffffffffffffffffffff16815250509050600073ffffffffffffffffffffffffffffffffffffffff16816000015173ffffffffffffffffffffffffffffffffffffffff1614156108425760656040518060400160405290816000820160009054906101000a900473ffffffffffffffffffffffffffffffffffffffff1673ffffffffffffffffffffffffffffffffffffffff1673ffffffffffffffffffffffffffffffffffffffff1681526020016000820160149054906101000a90046bffffffffffffffffffffffff166bffffffffffffffffffffffff166bffffffffffffffffffffffff168152505090505b600061084c6114f0565b6bffffffffffffffffffffffff1682602001516bffffffffffffffffffffffff1686610878919061344b565b610882919061341a565b90508160000151819350935050509250929050565b6108b283838360405180602001604052806000815250610d0b565b505050565b6108c86108c26110ea565b826111ab565b610907576040517f08c379a00000000000000000000000000000000000000000000000000000000081526004016108fe906132bf565b60405180910390fd5b610910816114fa565b50565b600060019054906101000a900460ff1661093b5760008054906101000a900460ff1615610944565b610943611506565b5b610983576040517f08c379a000000000000000000000000000000000000000000000000000000000815260040161097a9061319f565b60405180910390fd5b60008060019054906101000a900460ff1615905080156109d3576001600060016101000a81548160ff02191690831515021790555060016000806101000a81548160ff0219169083151502179055505b6109dd8585611517565b6109e5611574565b6109ed6115c5565b6109f5611616565b6109fd61166f565b826101929080519060200190610a14929190612626565b50610a1e826116c0565b8015610a3f5760008060016101000a81548160ff0219169083151502179055505b5050505050565b6000806099600084815260200190815260200160002060009054906101000a900473ffffffffffffffffffffffffffffffffffffffff169050600073ffffffffffffffffffffffffffffffffffffffff168173ffffffffffffffffffffffffffffffffffffffff161415610aef576040517f08c379a0000000000000000000000000000000000000000000000000000000008152600401610ae69061315f565b60405180910390fd5b80915050919050565b60008073ffffffffffffffffffffffffffffffffffffffff168273ffffffffffffffffffffffffffffffffffffffff161415610b69576040517f08c379a0000000000000000000000000000000000000000000000000000000008152600401610b609061313f565b60405180910390fd5b609a60008373ffffffffffffffffffffffffffffffffffffffff1673ffffffffffffffffffffffffffffffffffffffff168152602001908152602001600020549050919050565b610bb86110ea565b73ffffffffffffffffffffffffffffffffffffffff16610bd6610c38565b73ffffffffffffffffffffffffffffffffffffffff1614610c2c576040517f08c379a0000000000000000000000000000000000000000000000000000000008152600401610c239061321f565b60405180910390fd5b610c3660006116c0565b565b600061012d60009054906101000a900473ffffffffffffffffffffffffffffffffffffffff16905090565b606060988054610c729061358f565b80601f0160208091040260200160405190810160405280929190818152602001828054610c9e9061358f565b8015610ceb5780601f10610cc057610100808354040283529160200191610ceb565b820191906000526020600020905b815481529060010190602001808311610cce57829003601f168201915b5050505050905090565b610d07610d006110ea565b8383611788565b5050565b610d1c610d166110ea565b836111ab565b610d5b576040517f08c379a0000000000000000000000000000000000000000000000000000000008152600401610d529061327f565b60405180910390fd5b610d67848484846118f5565b50505050565b6060610d7882611951565b9050919050565b610d876110ea565b73ffffffffffffffffffffffffffffffffffffffff16610da5610c38565b73ffffffffffffffffffffffffffffffffffffffff1614610dfb576040517f08c379a0000000000000000000000000000000000000000000000000000000008152600401610df29061321f565b60405180910390fd5b6000610e08610191611aa3565b9050610e15610191611ab1565b610e1f8382611ac7565b610e298183611ae5565b505050565b6101928054610e3c9061358f565b80601f0160208091040260200160405190810160405280929190818152602001828054610e689061358f565b8015610eb55780601f10610e8a57610100808354040283529160200191610eb5565b820191906000526020600020905b815481529060010190602001808311610e9857829003601f168201915b505050505081565b6000609c60008473ffffffffffffffffffffffffffffffffffffffff1673ffffffffffffffffffffffffffffffffffffffff16815260200190815260200160002060008373ffffffffffffffffffffffffffffffffffffffff1673ffffffffffffffffffffffffffffffffffffffff16815260200190815260200160002060009054906101000a900460ff16905092915050565b610f596110ea565b73ffffffffffffffffffffffffffffffffffffffff16610f77610c38565b73ffffffffffffffffffffffffffffffffffffffff1614610fcd576040517f08c379a0000000000000000000000000000000000000000000000000000000008152600401610fc49061321f565b60405180910390fd5b600073ffffffffffffffffffffffffffffffffffffffff168173ffffffffffffffffffffffffffffffffffffffff16141561103d576040517f08c379a00000000000000000000000000000000000000000000000000000000081526004016110349061305f565b60405180910390fd5b611046816116c0565b50565b6000808273ffffffffffffffffffffffffffffffffffffffff163b119050919050565b600061107782611b59565b9050919050565b60008073ffffffffffffffffffffffffffffffffffffffff166099600084815260200190815260200160002060009054906101000a900473ffffffffffffffffffffffffffffffffffffffff1673ffffffffffffffffffffffffffffffffffffffff1614159050919050565b600033905090565b81609b600083815260200190815260200160002060006101000a81548173ffffffffffffffffffffffffffffffffffffffff021916908373ffffffffffffffffffffffffffffffffffffffff160217905550808273ffffffffffffffffffffffffffffffffffffffff1661116583610a46565b73ffffffffffffffffffffffffffffffffffffffff167f8c5be1e5ebec7d5bd14f71427d1e84f3dd0314c0f7b2291e5b200ac8c7c3b92560405160405180910390a45050565b60006111b68261107e565b6111f5576040517f08c379a00000000000000000000000000000000000000000000000000000000081526004016111ec906130ff565b60405180910390fd5b600061120083610a46565b90508073ffffffffffffffffffffffffffffffffffffffff168473ffffffffffffffffffffffffffffffffffffffff16148061126f57508373ffffffffffffffffffffffffffffffffffffffff16611257846104af565b73ffffffffffffffffffffffffffffffffffffffff16145b80611280575061127f8185610ebd565b5b91505092915050565b8273ffffffffffffffffffffffffffffffffffffffff166112a982610a46565b73ffffffffffffffffffffffffffffffffffffffff16146112ff576040517f08c379a00000000000000000000000000000000000000000000000000000000081526004016112f69061307f565b60405180910390fd5b600073ffffffffffffffffffffffffffffffffffffffff168273ffffffffffffffffffffffffffffffffffffffff16141561136f576040517f08c379a0000000000000000000000000000000000000000000000000000000008152600401611366906130bf565b60405180910390fd5b61137a838383611c3b565b6113856000826110f2565b6001609a60008573ffffffffffffffffffffffffffffffffffffffff1673ffffffffffffffffffffffffffffffffffffffff16815260200190815260200160002060008282546113d591906134a5565b925050819055506001609a60008473ffffffffffffffffffffffffffffffffffffffff1673ffffffffffffffffffffffffffffffffffffffff168152602001908152602001600020600082825461142c91906133c4565b92505081905550816099600083815260200190815260200160002060006101000a81548173ffffffffffffffffffffffffffffffffffffffff021916908373ffffffffffffffffffffffffffffffffffffffff160217905550808273ffffffffffffffffffffffffffffffffffffffff168473ffffffffffffffffffffffffffffffffffffffff167fddf252ad1be2c89b69c2b068fc378daa952ba7f163c4a11628f55a4df523b3ef60405160405180910390a46114eb838383611c40565b505050565b6000612710905090565b61150381611c45565b50565b600061151130611049565b15905090565b600060019054906101000a900460ff16611566576040517f08c379a000000000000000000000000000000000000000000000000000000000815260040161155d9061329f565b60405180910390fd5b6115708282611c5a565b5050565b600060019054906101000a900460ff166115c3576040517f08c379a00000000000000000000000000000000000000000000000000000000081526004016115ba9061329f565b60405180910390fd5b565b600060019054906101000a900460ff16611614576040517f08c379a000000000000000000000000000000000000000000000000000000000815260040161160b9061329f565b60405180910390fd5b565b600060019054906101000a900460ff16611665576040517f08c379a000000000000000000000000000000000000000000000000000000000815260040161165c9061329f565b60405180910390fd5b61166d611cdb565b565b600060019054906101000a900460ff166116be576040517f08c379a00000000000000000000000000000000000000000000000000000000081526004016116b59061329f565b60405180910390fd5b565b600061012d60009054906101000a900473ffffffffffffffffffffffffffffffffffffffff1690508161012d60006101000a81548173ffffffffffffffffffffffffffffffffffffffff021916908373ffffffffffffffffffffffffffffffffffffffff1602179055508173ffffffffffffffffffffffffffffffffffffffff168173ffffffffffffffffffffffffffffffffffffffff167f8be0079c531659141344cd1fd0a4f28419497f9722a3daafe3b4186f6b6457e060405160405180910390a35050565b8173ffffffffffffffffffffffffffffffffffffffff168373ffffffffffffffffffffffffffffffffffffffff1614156117f7576040517f08c379a00000000000000000000000000000000000000000000000000000000081526004016117ee906130df565b60405180910390fd5b80609c60008573ffffffffffffffffffffffffffffffffffffffff1673ffffffffffffffffffffffffffffffffffffffff16815260200190815260200160002060008473ffffffffffffffffffffffffffffffffffffffff1673ffffffffffffffffffffffffffffffffffffffff16815260200190815260200160002060006101000a81548160ff0219169083151502179055508173ffffffffffffffffffffffffffffffffffffffff168373ffffffffffffffffffffffffffffffffffffffff167f17307eab39ab6107e8899845ad3d59bd9653f200f220920489ca2b5937696c31836040516118e89190613002565b60405180910390a3505050565b611900848484611289565b61190c84848484611d3c565b61194b576040517f08c379a00000000000000000000000000000000000000000000000000000000081526004016119429061303f565b60405180910390fd5b50505050565b606061195c8261107e565b61199b576040517f08c379a0000000000000000000000000000000000000000000000000000000008152600401611992906131df565b60405180910390fd5b600060c9600084815260200190815260200160002080546119bb9061358f565b80601f01602080910402602001604051908101604052809291908181526020018280546119e79061358f565b8015611a345780601f10611a0957610100808354040283529160200191611a34565b820191906000526020600020905b815481529060010190602001808311611a1757829003601f168201915b505050505090506000611a45611ed3565b9050600081511415611a5b578192505050611a9e565b600082511115611a90578082604051602001611a78929190612f4e565b60405160208183030381529060405292505050611a9e565b611a9984611eea565b925050505b919050565b600081600001549050919050565b6001816000016000828254019250508190555050565b611ae1828260405180602001604052806000815250611f91565b5050565b611aee8261107e565b611b2d576040517f08c379a0000000000000000000000000000000000000000000000000000000008152600401611b249061317f565b60405180910390fd5b8060c960008481526020019081526020016000209080519060200190611b54929190612626565b505050565b60007f80ac58cd000000000000000000000000000000000000000000000000000000007bffffffffffffffffffffffffffffffffffffffffffffffffffffffff1916827bffffffffffffffffffffffffffffffffffffffffffffffffffffffff19161480611c2457507f5b5e139f000000000000000000000000000000000000000000000000000000007bffffffffffffffffffffffffffffffffffffffffffffffffffffffff1916827bffffffffffffffffffffffffffffffffffffffffffffffffffffffff1916145b80611c345750611c3382611fec565b5b9050919050565b505050565b505050565b611c4e81612066565b611c57816120b9565b50565b600060019054906101000a900460ff16611ca9576040517f08c379a0000000000000000000000000000000000000000000000000000000008152600401611ca09061329f565b60405180910390fd5b8160979080519060200190611cbf929190612626565b508060989080519060200190611cd6929190612626565b505050565b600060019054906101000a900460ff16611d2a576040517f08c379a0000000000000000000000000000000000000000000000000000000008152600401611d219061329f565b60405180910390fd5b611d3a611d356110ea565b6116c0565b565b6000611d5d8473ffffffffffffffffffffffffffffffffffffffff16611049565b15611ec6578373ffffffffffffffffffffffffffffffffffffffff1663150b7a02611d866110ea565b8786866040518563ffffffff1660e01b8152600401611da89493929190612f8d565b602060405180830381600087803b158015611dc257600080fd5b505af1925050508015611df357506040513d601f19601f82011682018060405250810190611df09190612a66565b60015b611e76573d8060008114611e23576040519150601f19603f3d011682016040523d82523d6000602084013e611e28565b606091505b50600081511415611e6e576040517f08c379a0000000000000000000000000000000000000000000000000000000008152600401611e659061303f565b60405180910390fd5b805181602001fd5b63150b7a0260e01b7bffffffffffffffffffffffffffffffffffffffffffffffffffffffff1916817bffffffffffffffffffffffffffffffffffffffffffffffffffffffff191614915050611ecb565b600190505b949350505050565b606060405180602001604052806000815250905090565b6060611ef58261107e565b611f34576040517f08c379a0000000000000000000000000000000000000000000000000000000008152600401611f2b9061323f565b60405180910390fd5b6000611f3e611ed3565b90506000815111611f5e5760405180602001604052806000815250611f89565b80611f6884612118565b604051602001611f79929190612f4e565b6040516020818303038152906040525b915050919050565b611f9b83836122c5565b611fa86000848484611d3c565b611fe7576040517f08c379a0000000000000000000000000000000000000000000000000000000008152600401611fde9061303f565b60405180910390fd5b505050565b60007f2a55205a000000000000000000000000000000000000000000000000000000007bffffffffffffffffffffffffffffffffffffffffffffffffffffffff1916827bffffffffffffffffffffffffffffffffffffffffffffffffffffffff1916148061205f575061205e8261249f565b5b9050919050565b61206f81612509565b600060c96000838152602001908152602001600020805461208f9061358f565b9050146120b65760c9600082815260200190815260200160002060006120b591906126ac565b5b50565b60666000828152602001908152602001600020600080820160006101000a81549073ffffffffffffffffffffffffffffffffffffffff02191690556000820160146101000a8154906bffffffffffffffffffffffff0219169055505050565b60606000821415612160576040518060400160405280600181526020017f300000000000000000000000000000000000000000000000000000000000000081525090506122c0565b600082905060005b6000821461219257808061217b906135f2565b915050600a8261218b919061341a565b9150612168565b60008167ffffffffffffffff8111156121d4577f4e487b7100000000000000000000000000000000000000000000000000000000600052604160045260246000fd5b6040519080825280601f01601f1916602001820160405280156122065781602001600182028036833780820191505090505b5090505b600085146122b95760018261221f91906134a5565b9150600a8561222e919061363b565b603061223a91906133c4565b60f81b818381518110612276577f4e487b7100000000000000000000000000000000000000000000000000000000600052603260045260246000fd5b60200101907effffffffffffffffffffffffffffffffffffffffffffffffffffffffffffff1916908160001a905350600a856122b2919061341a565b945061220a565b8093505050505b919050565b600073ffffffffffffffffffffffffffffffffffffffff168273ffffffffffffffffffffffffffffffffffffffff161415612335576040517f08c379a000000000000000000000000000000000000000000000000000000000815260040161232c906131bf565b60405180910390fd5b61233e8161107e565b1561237e576040517f08c379a00000000000000000000000000000000000000000000000000000000081526004016123759061309f565b60405180910390fd5b61238a60008383611c3b565b6001609a60008473ffffffffffffffffffffffffffffffffffffffff1673ffffffffffffffffffffffffffffffffffffffff16815260200190815260200160002060008282546123da91906133c4565b92505081905550816099600083815260200190815260200160002060006101000a81548173ffffffffffffffffffffffffffffffffffffffff021916908373ffffffffffffffffffffffffffffffffffffffff160217905550808273ffffffffffffffffffffffffffffffffffffffff16600073ffffffffffffffffffffffffffffffffffffffff167fddf252ad1be2c89b69c2b068fc378daa952ba7f163c4a11628f55a4df523b3ef60405160405180910390a461249b60008383611c40565b5050565b60007f01ffc9a7000000000000000000000000000000000000000000000000000000007bffffffffffffffffffffffffffffffffffffffffffffffffffffffff1916827bffffffffffffffffffffffffffffffffffffffffffffffffffffffff1916149050919050565b600061251482610a46565b905061252281600084611c3b565b61252d6000836110f2565b6001609a60008373ffffffffffffffffffffffffffffffffffffffff1673ffffffffffffffffffffffffffffffffffffffff168152602001908152602001600020600082825461257d91906134a5565b925050819055506099600083815260200190815260200160002060006101000a81549073ffffffffffffffffffffffffffffffffffffffff021916905581600073ffffffffffffffffffffffffffffffffffffffff168273ffffffffffffffffffffffffffffffffffffffff167fddf252ad1be2c89b69c2b068fc378daa952ba7f163c4a11628f55a4df523b3ef60405160405180910390a461262281600084611c40565b5050565b8280546126329061358f565b90600052602060002090601f016020900481019282612654576000855561269b565b82601f1061266d57805160ff191683800117855561269b565b8280016001018555821561269b579182015b8281111561269a57825182559160200191906001019061267f565b5b5090506126a891906126ec565b5090565b5080546126b89061358f565b6000825580601f106126ca57506126e9565b601f0160209004906000526020600020908101906126e891906126ec565b5b50565b5b808211156127055760008160009055506001016126ed565b5090565b600061271c6127178461331f565b6132fa565b90508281526020810184848401111561273457600080fd5b61273f84828561354d565b509392505050565b600061275a61275584613350565b6132fa565b90508281526020810184848401111561277257600080fd5b61277d84828561354d565b509392505050565b60008135905061279481613d1c565b92915050565b6000813590506127a981613d33565b92915050565b6000813590506127be81613d4a565b92915050565b6000815190506127d381613d4a565b92915050565b600082601f8301126127ea57600080fd5b81356127fa848260208601612709565b91505092915050565b600082601f83011261281457600080fd5b8135612824848260208601612747565b91505092915050565b60008135905061283c81613d61565b92915050565b60006020828403121561285457600080fd5b600061286284828501612785565b91505092915050565b6000806040838503121561287e57600080fd5b600061288c85828601612785565b925050602061289d85828601612785565b9150509250929050565b6000806000606084860312156128bc57600080fd5b60006128ca86828701612785565b93505060206128db86828701612785565b92505060406128ec8682870161282d565b9150509250925092565b6000806000806080858703121561290c57600080fd5b600061291a87828801612785565b945050602061292b87828801612785565b935050604061293c8782880161282d565b925050606085013567ffffffffffffffff81111561295957600080fd5b612965878288016127d9565b91505092959194509250565b6000806040838503121561298457600080fd5b600061299285828601612785565b92505060206129a38582860161279a565b9150509250929050565b600080604083850312156129c057600080fd5b60006129ce85828601612785565b925050602083013567ffffffffffffffff8111156129eb57600080fd5b6129f785828601612803565b9150509250929050565b60008060408385031215612a1457600080fd5b6000612a2285828601612785565b9250506020612a338582860161282d565b9150509250929050565b600060208284031215612a4f57600080fd5b6000612a5d848285016127af565b91505092915050565b600060208284031215612a7857600080fd5b6000612a86848285016127c4565b91505092915050565b60008060008060808587031215612aa557600080fd5b600085013567ffffffffffffffff811115612abf57600080fd5b612acb87828801612803565b945050602085013567ffffffffffffffff811115612ae857600080fd5b612af487828801612803565b935050604085013567ffffffffffffffff811115612b1157600080fd5b612b1d87828801612803565b9250506060612b2e87828801612785565b91505092959194509250565b600060208284031215612b4c57600080fd5b6000612b5a8482850161282d565b91505092915050565b60008060408385031215612b7657600080fd5b6000612b848582860161282d565b9250506020612b958582860161282d565b9150509250929050565b612ba8816134d9565b82525050565b612bb7816134eb565b82525050565b6000612bc882613381565b612bd28185613397565b9350612be281856020860161355c565b612beb81613728565b840191505092915050565b6000612c018261338c565b612c0b81856133a8565b9350612c1b81856020860161355c565b612c2481613728565b840191505092915050565b6000612c3a8261338c565b612c4481856133b9565b9350612c5481856020860161355c565b80840191505092915050565b6000612c6d6032836133a8565b9150612c7882613739565b604082019050919050565b6000612c906026836133a8565b9150612c9b82613788565b604082019050919050565b6000612cb36025836133a8565b9150612cbe826137d7565b604082019050919050565b6000612cd6601c836133a8565b9150612ce182613826565b602082019050919050565b6000612cf96024836133a8565b9150612d048261384f565b604082019050919050565b6000612d1c6019836133a8565b9150612d278261389e565b602082019050919050565b6000612d3f602c836133a8565b9150612d4a826138c7565b604082019050919050565b6000612d626038836133a8565b9150612d6d82613916565b604082019050919050565b6000612d85602a836133a8565b9150612d9082613965565b604082019050919050565b6000612da86029836133a8565b9150612db3826139b4565b604082019050919050565b6000612dcb602e836133a8565b9150612dd682613a03565b604082019050919050565b6000612dee602e836133a8565b9150612df982613a52565b604082019050919050565b6000612e116020836133a8565b9150612e1c82613aa1565b602082019050919050565b6000612e346031836133a8565b9150612e3f82613aca565b604082019050919050565b6000612e57602c836133a8565b9150612e6282613b19565b604082019050919050565b6000612e7a6020836133a8565b9150612e8582613b68565b602082019050919050565b6000612e9d602f836133a8565b9150612ea882613b91565b604082019050919050565b6000612ec06021836133a8565b9150612ecb82613be0565b604082019050919050565b6000612ee36031836133a8565b9150612eee82613c2f565b604082019050919050565b6000612f06602b836133a8565b9150612f1182613c7e565b604082019050919050565b6000612f296030836133a8565b9150612f3482613ccd565b604082019050919050565b612f4881613543565b82525050565b6000612f5a8285612c2f565b9150612f668284612c2f565b91508190509392505050565b6000602082019050612f876000830184612b9f565b92915050565b6000608082019050612fa26000830187612b9f565b612faf6020830186612b9f565b612fbc6040830185612f3f565b8181036060830152612fce8184612bbd565b905095945050505050565b6000604082019050612fee6000830185612b9f565b612ffb6020830184612f3f565b9392505050565b60006020820190506130176000830184612bae565b92915050565b600060208201905081810360008301526130378184612bf6565b905092915050565b6000602082019050818103600083015261305881612c60565b9050919050565b6000602082019050818103600083015261307881612c83565b9050919050565b6000602082019050818103600083015261309881612ca6565b9050919050565b600060208201905081810360008301526130b881612cc9565b9050919050565b600060208201905081810360008301526130d881612cec565b9050919050565b600060208201905081810360008301526130f881612d0f565b9050919050565b6000602082019050818103600083015261311881612d32565b9050919050565b6000602082019050818103600083015261313881612d55565b9050919050565b6000602082019050818103600083015261315881612d78565b9050919050565b6000602082019050818103600083015261317881612d9b565b9050919050565b6000602082019050818103600083015261319881612dbe565b9050919050565b600060208201905081810360008301526131b881612de1565b9050919050565b600060208201905081810360008301526131d881612e04565b9050919050565b600060208201905081810360008301526131f881612e27565b9050919050565b6000602082019050818103600083015261321881612e4a565b9050919050565b6000602082019050818103600083015261323881612e6d565b9050919050565b6000602082019050818103600083015261325881612e90565b9050919050565b6000602082019050818103600083015261327881612eb3565b9050919050565b6000602082019050818103600083015261329881612ed6565b9050919050565b600060208201905081810360008301526132b881612ef9565b9050919050565b600060208201905081810360008301526132d881612f1c565b9050919050565b60006020820190506132f46000830184612f3f565b92915050565b6000613304613315565b905061331082826135c1565b919050565b6000604051905090565b600067ffffffffffffffff82111561333a576133396136f9565b5b61334382613728565b9050602081019050919050565b600067ffffffffffffffff82111561336b5761336a6136f9565b5b61337482613728565b9050602081019050919050565b600081519050919050565b600081519050919050565b600082825260208201905092915050565b600082825260208201905092915050565b600081905092915050565b60006133cf82613543565b91506133da83613543565b9250827fffffffffffffffffffffffffffffffffffffffffffffffffffffffffffffffff0382111561340f5761340e61366c565b5b828201905092915050565b600061342582613543565b915061343083613543565b9250826134405761343f61369b565b5b828204905092915050565b600061345682613543565b915061346183613543565b9250817fffffffffffffffffffffffffffffffffffffffffffffffffffffffffffffffff048311821515161561349a5761349961366c565b5b828202905092915050565b60006134b082613543565b91506134bb83613543565b9250828210156134ce576134cd61366c565b5b828203905092915050565b60006134e482613523565b9050919050565b60008115159050919050565b60007fffffffff0000000000000000000000000000000000000000000000000000000082169050919050565b600073ffffffffffffffffffffffffffffffffffffffff82169050919050565b6000819050919050565b82818337600083830152505050565b60005b8381101561357a57808201518184015260208101905061355f565b83811115613589576000848401525b50505050565b600060028204905060018216806135a757607f821691505b602082108114156135bb576135ba6136ca565b5b50919050565b6135ca82613728565b810181811067ffffffffffffffff821117156135e9576135e86136f9565b5b80604052505050565b60006135fd82613543565b91507fffffffffffffffffffffffffffffffffffffffffffffffffffffffffffffffff8214156136305761362f61366c565b5b600182019050919050565b600061364682613543565b915061365183613543565b9250826136615761366061369b565b5b828206905092915050565b7f4e487b7100000000000000000000000000000000000000000000000000000000600052601160045260246000fd5b7f4e487b7100000000000000000000000000000000000000000000000000000000600052601260045260246000fd5b7f4e487b7100000000000000000000000000000000000000000000000000000000600052602260045260246000fd5b7f4e487b7100000000000000000000000000000000000000000000000000000000600052604160045260246000fd5b6000601f19601f8301169050919050565b7f4552433732313a207472616e7366657220746f206e6f6e20455243373231526560008201527f63656976657220696d706c656d656e7465720000000000000000000000000000602082015250565b7f4f776e61626c653a206e6577206f776e657220697320746865207a65726f206160008201527f6464726573730000000000000000000000000000000000000000000000000000602082015250565b7f4552433732313a207472616e736665722066726f6d20696e636f72726563742060008201527f6f776e6572000000000000000000000000000000000000000000000000000000602082015250565b7f4552433732313a20746f6b656e20616c7265616479206d696e74656400000000600082015250565b7f4552433732313a207472616e7366657220746f20746865207a65726f2061646460008201527f7265737300000000000000000000000000000000000000000000000000000000602082015250565b7f4552433732313a20617070726f766520746f2063616c6c657200000000000000600082015250565b7f4552433732313a206f70657261746f7220717565727920666f72206e6f6e657860008201527f697374656e7420746f6b656e0000000000000000000000000000000000000000602082015250565b7f4552433732313a20617070726f76652063616c6c6572206973206e6f74206f7760008201527f6e6572206e6f7220617070726f76656420666f7220616c6c0000000000000000602082015250565b7f4552433732313a2062616c616e636520717565727920666f7220746865207a6560008201527f726f206164647265737300000000000000000000000000000000000000000000602082015250565b7f4552433732313a206f776e657220717565727920666f72206e6f6e657869737460008201527f656e7420746f6b656e0000000000000000000000000000000000000000000000602082015250565b7f45524337323155524953746f726167653a2055524920736574206f66206e6f6e60008201527f6578697374656e7420746f6b656e000000000000000000000000000000000000602082015250565b7f496e697469616c697a61626c653a20636f6e747261637420697320616c72656160008201527f647920696e697469616c697a6564000000000000000000000000000000000000602082015250565b7f4552433732313a206d696e7420746f20746865207a65726f2061646472657373600082015250565b7f45524337323155524953746f726167653a2055524920717565727920666f722060008201527f6e6f6e6578697374656e7420746f6b656e000000000000000000000000000000602082015250565b7f4552433732313a20617070726f76656420717565727920666f72206e6f6e657860008201527f697374656e7420746f6b656e0000000000000000000000000000000000000000602082015250565b7f4f776e61626c653a2063616c6c6572206973206e6f7420746865206f776e6572600082015250565b7f4552433732314d657461646174613a2055524920717565727920666f72206e6f60008201527f6e6578697374656e7420746f6b656e0000000000000000000000000000000000602082015250565b7f4552433732313a20617070726f76616c20746f2063757272656e74206f776e6560008201527f7200000000000000000000000000000000000000000000000000000000000000602082015250565b7f4552433732313a207472616e736665722063616c6c6572206973206e6f74206f60008201527f776e6572206e6f7220617070726f766564000000000000000000000000000000602082015250565b7f496e697469616c697a61626c653a20636f6e7472616374206973206e6f74206960008201527f6e697469616c697a696e67000000000000000000000000000000000000000000602082015250565b7f4552433732314275726e61626c653a2063616c6c6572206973206e6f74206f7760008201527f6e6572206e6f7220617070726f76656400000000000000000000000000000000602082015250565b613d25816134d9565b8114613d3057600080fd5b50565b613d3c816134eb565b8114613d4757600080fd5b50565b613d53816134f7565b8114613d5e57600080fd5b50565b613d6a81613543565b8114613d7557600080fd5b5056fea26469706673582212207779806aa68185e0a3f66f15d5d4ca9d4c6f886837c0eefe8a88a77c8145789a64736f6c63430008040033",
  "immutableReferences": {
    "4265": [
      {
        "length": 32,
        "start": 925
      }
    ]
  },
  "source": "// SPDX-License-Identifier: MIT\r\npragma solidity >=0.4.22 <0.9.0;\r\n\r\nimport \"@openzeppelin/contracts/access/AccessControl.sol\";\r\nimport \"@openzeppelin/contracts/proxy/Clones.sol\";\r\nimport \"./NFT721.sol\";\r\n\r\ncontract NFTControl is AccessControl {\r\n\r\n    bytes32 public constant REGISTRY_ROLE = keccak256(\"REGISTRY_ROLE\");\r\n    NFT721 private immutable _implementation;\r\n\r\n    struct NFTs {\r\n        // E.g. if `lastestNFT == 2`, there are 2 `NFT` contracts deployed.\r\n        uint256 numOfContracts; \r\n        // Mapping from index => nft contract address.\r\n        mapping(uint256 => address) NFTAddress;\r\n    }\r\n\r\n    /// @dev Mapping from app deployer => index and app addresses.\r\n    mapping(address => NFTs) private _nfts;\r\n\r\n    event DeployedContract(address indexed _deployer, address indexed contractAddress);\r\n    constructor() {\r\n        _implementation = new NFT721();\r\n        _setupRole(DEFAULT_ADMIN_ROLE, msg.sender);\r\n    }\r\n\r\n    function deployNFT(string memory name, string memory symbol,string memory uri) \r\n    external \r\n    returns (address contractAddress) {\r\n        address deployer = _msgSender();\r\n        uint256 nonce = getNextIndex(deployer);\r\n        bytes32 salt = keccak256(abi.encodePacked(deployer, nonce));\r\n        contractAddress = Clones.cloneDeterministic(address(_implementation), salt);\r\n        NFT721(contractAddress).initialize(name, symbol, uri, deployer);\r\n\r\n        emit DeployedContract(deployer, contractAddress);\r\n    }\r\n\r\n    function getNextIndex(address deployer) internal returns (uint256) {\r\n        // Increment index\r\n        _nfts[deployer].numOfContracts += 1;\r\n\r\n        return _nfts[deployer].numOfContracts;\r\n    }\r\n}",
  "sourcePath": "E:\\LamViec\\STECH_Corp\\nft-marketplace\\src\\contracts\\contracts\\NFTControl.sol",
  "compiler": {
    "name": "solc",
    "version": "0.8.4+commit.c7e474f2.Emscripten.clang"
  },
  "schemaVersion": "3.4.4",
  "updatedAt": "2022-02-19T07:40:02.881Z",
  "devdoc": {
    "kind": "dev",
    "methods": {
      "getRoleAdmin(bytes32)": {
        "details": "Returns the admin role that controls `role`. See {grantRole} and {revokeRole}. To change a role's admin, use {_setRoleAdmin}."
      },
      "grantRole(bytes32,address)": {
        "details": "Grants `role` to `account`. If `account` had not been already granted `role`, emits a {RoleGranted} event. Requirements: - the caller must have ``role``'s admin role."
      },
      "hasRole(bytes32,address)": {
        "details": "Returns `true` if `account` has been granted `role`."
      },
      "renounceRole(bytes32,address)": {
        "details": "Revokes `role` from the calling account. Roles are often managed via {grantRole} and {revokeRole}: this function's purpose is to provide a mechanism for accounts to lose their privileges if they are compromised (such as when a trusted device is misplaced). If the calling account had been revoked `role`, emits a {RoleRevoked} event. Requirements: - the caller must be `account`."
      },
      "revokeRole(bytes32,address)": {
        "details": "Revokes `role` from `account`. If `account` had been granted `role`, emits a {RoleRevoked} event. Requirements: - the caller must have ``role``'s admin role."
      },
      "supportsInterface(bytes4)": {
        "details": "See {IERC165-supportsInterface}."
      }
    },
    "stateVariables": {
      "_nfts": {
        "details": "Mapping from app deployer => index and app addresses."
      }
    },
    "version": 1
  },
  "userdoc": {
    "kind": "user",
    "methods": {},
    "version": 1
  }
}