{
  "contractName": "TransferExecutor",
  "abi": [
    {
      "inputs": [],
      "stateMutability": "nonpayable",
      "type": "constructor"
    },
    {
      "anonymous": false,
      "inputs": [
        {
          "indexed": true,
          "internalType": "uint256",
          "name": "index",
          "type": "uint256"
        },
        {
          "indexed": true,
          "internalType": "address",
          "name": "currency",
          "type": "address"
        }
      ],
      "name": "AddedWhitelist",
      "type": "event"
    },
    {
      "anonymous": false,
      "inputs": [
        {
          "indexed": true,
          "internalType": "address",
          "name": "previousOwner",
          "type": "address"
        },
        {
          "indexed": true,
          "internalType": "address",
          "name": "newOwner",
          "type": "address"
        }
      ],
      "name": "OwnershipTransferred",
      "type": "event"
    },
    {
      "anonymous": false,
      "inputs": [
        {
          "indexed": true,
          "internalType": "uint256",
          "name": "index",
          "type": "uint256"
        },
        {
          "indexed": true,
          "internalType": "address",
          "name": "currency",
          "type": "address"
        },
        {
          "indexed": false,
          "internalType": "bool",
          "name": "isAvailable",
          "type": "bool"
        }
      ],
      "name": "UpdatedWhitelist",
      "type": "event"
    },
    {
      "inputs": [],
      "name": "owner",
      "outputs": [
        {
          "internalType": "address",
          "name": "",
          "type": "address"
        }
      ],
      "stateMutability": "view",
      "type": "function"
    },
    {
      "inputs": [],
      "name": "renounceOwnership",
      "outputs": [],
      "stateMutability": "nonpayable",
      "type": "function"
    },
    {
      "inputs": [
        {
          "internalType": "address",
          "name": "newOwner",
          "type": "address"
        }
      ],
      "name": "transferOwnership",
      "outputs": [],
      "stateMutability": "nonpayable",
      "type": "function"
    },
    {
      "inputs": [
        {
          "internalType": "address",
          "name": "currency",
          "type": "address"
        }
      ],
      "name": "addWhitelist",
      "outputs": [],
      "stateMutability": "nonpayable",
      "type": "function"
    },
    {
      "inputs": [
        {
          "internalType": "uint256",
          "name": "index",
          "type": "uint256"
        },
        {
          "internalType": "bool",
          "name": "_isAvailable",
          "type": "bool"
        }
      ],
      "name": "updateWhitelist",
      "outputs": [],
      "stateMutability": "nonpayable",
      "type": "function"
    },
    {
      "inputs": [],
      "name": "getWhitelist",
      "outputs": [
        {
          "components": [
            {
              "internalType": "uint256",
              "name": "index",
              "type": "uint256"
            },
            {
              "internalType": "address",
              "name": "currencyAddress",
              "type": "address"
            },
            {
              "internalType": "bool",
              "name": "isAvailable",
              "type": "bool"
            }
          ],
          "internalType": "struct TransferExecutor.PaymentCurrency[]",
          "name": "whitelist",
          "type": "tuple[]"
        }
      ],
      "stateMutability": "view",
      "type": "function"
    }
  ],
  "bytecode": "0x608060405234801561001057600080fd5b5061002d61002261004260201b60201c565b61004a60201b60201c565b61003d600061010e60201b60201c565b610261565b600033905090565b60008060009054906101000a900473ffffffffffffffffffffffffffffffffffffffff169050816000806101000a81548173ffffffffffffffffffffffffffffffffffffffff021916908373ffffffffffffffffffffffffffffffffffffffff1602179055508173ffffffffffffffffffffffffffffffffffffffff168173ffffffffffffffffffffffffffffffffffffffff167f8be0079c531659141344cd1fd0a4f28419497f9722a3daafe3b4186f6b6457e060405160405180910390a35050565b6000610124600161023d60201b6106141760201c565b905060405180606001604052808281526020018373ffffffffffffffffffffffffffffffffffffffff16815260200160011515815250600260008381526020019081526020016000206000820151816000015560208201518160010160006101000a81548173ffffffffffffffffffffffffffffffffffffffff021916908373ffffffffffffffffffffffffffffffffffffffff16021790555060408201518160010160146101000a81548160ff0219169083151502179055509050506101f5600161024b60201b6106221760201c565b8173ffffffffffffffffffffffffffffffffffffffff16817fb2760a271cede39b7df6c9c00b82b20a64f6dcddec53762dd0da9be314a6a9cb60405160405180910390a35050565b600081600001549050919050565b6001816000016000828254019250508190555050565b610cda806102706000396000f3fe608060405234801561001057600080fd5b50600436106100625760003560e01c8063715018a6146100675780638da5cb5b14610071578063c8b273491461008f578063d01f63f5146100ab578063f2fde38b146100c9578063f80f5dd5146100e5575b600080fd5b61006f610101565b005b610079610189565b6040516100869190610a45565b60405180910390f35b6100a960048036038101906100a491906108c0565b6101b2565b005b6100b3610308565b6040516100c09190610a60565b60405180910390f35b6100e360048036038101906100de9190610897565b610494565b005b6100ff60048036038101906100fa9190610897565b61058c565b005b610109610638565b73ffffffffffffffffffffffffffffffffffffffff16610127610189565b73ffffffffffffffffffffffffffffffffffffffff161461017d576040517f08c379a000000000000000000000000000000000000000000000000000000000815260040161017490610abd565b60405180910390fd5b6101876000610640565b565b60008060009054906101000a900473ffffffffffffffffffffffffffffffffffffffff16905090565b6101ba610638565b73ffffffffffffffffffffffffffffffffffffffff166101d8610189565b73ffffffffffffffffffffffffffffffffffffffff161461022e576040517f08c379a000000000000000000000000000000000000000000000000000000000815260040161022590610abd565b60405180910390fd5b806002600084815260200190815260200160002060010160146101000a81548160ff0219169083151502179055506002600083815260200190815260200160002060010160009054906101000a900473ffffffffffffffffffffffffffffffffffffffff1673ffffffffffffffffffffffffffffffffffffffff16827fa46b89b0bcc9f0e561748cec4b69730ca745236a36e81ed47be32f025f94daf16002600086815260200190815260200160002060010160149054906101000a900460ff166040516102fc9190610a82565b60405180910390a35050565b606060006103166001610614565b90508067ffffffffffffffff811115610358577f4e487b7100000000000000000000000000000000000000000000000000000000600052604160045260246000fd5b60405190808252806020026020018201604052801561039157816020015b61037e61081f565b8152602001906001900390816103765790505b50915060005b8181101561048f5760026000828152602001908152602001600020604051806060016040529081600082015481526020016001820160009054906101000a900473ffffffffffffffffffffffffffffffffffffffff1673ffffffffffffffffffffffffffffffffffffffff1673ffffffffffffffffffffffffffffffffffffffff1681526020016001820160149054906101000a900460ff161515151581525050838281518110610471577f4e487b7100000000000000000000000000000000000000000000000000000000600052603260045260246000fd5b6020026020010181905250808061048790610b6f565b915050610397565b505090565b61049c610638565b73ffffffffffffffffffffffffffffffffffffffff166104ba610189565b73ffffffffffffffffffffffffffffffffffffffff1614610510576040517f08c379a000000000000000000000000000000000000000000000000000000000815260040161050790610abd565b60405180910390fd5b600073ffffffffffffffffffffffffffffffffffffffff168173ffffffffffffffffffffffffffffffffffffffff161415610580576040517f08c379a000000000000000000000000000000000000000000000000000000000815260040161057790610a9d565b60405180910390fd5b61058981610640565b50565b610594610638565b73ffffffffffffffffffffffffffffffffffffffff166105b2610189565b73ffffffffffffffffffffffffffffffffffffffff1614610608576040517f08c379a00000000000000000000000000000000000000000000000000000000081526004016105ff90610abd565b60405180910390fd5b61061181610704565b50565b600081600001549050919050565b6001816000016000828254019250508190555050565b600033905090565b60008060009054906101000a900473ffffffffffffffffffffffffffffffffffffffff169050816000806101000a81548173ffffffffffffffffffffffffffffffffffffffff021916908373ffffffffffffffffffffffffffffffffffffffff1602179055508173ffffffffffffffffffffffffffffffffffffffff168173ffffffffffffffffffffffffffffffffffffffff167f8be0079c531659141344cd1fd0a4f28419497f9722a3daafe3b4186f6b6457e060405160405180910390a35050565b60006107106001610614565b905060405180606001604052808281526020018373ffffffffffffffffffffffffffffffffffffffff16815260200160011515815250600260008381526020019081526020016000206000820151816000015560208201518160010160006101000a81548173ffffffffffffffffffffffffffffffffffffffff021916908373ffffffffffffffffffffffffffffffffffffffff16021790555060408201518160010160146101000a81548160ff0219169083151502179055509050506107d76001610622565b8173ffffffffffffffffffffffffffffffffffffffff16817fb2760a271cede39b7df6c9c00b82b20a64f6dcddec53762dd0da9be314a6a9cb60405160405180910390a35050565b604051806060016040528060008152602001600073ffffffffffffffffffffffffffffffffffffffff1681526020016000151581525090565b60008135905061086781610c5f565b92915050565b60008135905061087c81610c76565b92915050565b60008135905061089181610c8d565b92915050565b6000602082840312156108a957600080fd5b60006108b784828501610858565b91505092915050565b600080604083850312156108d357600080fd5b60006108e185828601610882565b92505060206108f28582860161086d565b9150509250929050565b600061090883836109f4565b60608301905092915050565b61091d81610b27565b82525050565b61092c81610b27565b82525050565b600061093d82610aed565b6109478185610b05565b935061095283610add565b8060005b8381101561098357815161096a88826108fc565b975061097583610af8565b925050600181019050610956565b5085935050505092915050565b61099981610b39565b82525050565b6109a881610b39565b82525050565b60006109bb602683610b16565b91506109c682610be7565b604082019050919050565b60006109de602083610b16565b91506109e982610c36565b602082019050919050565b606082016000820151610a0a6000850182610a36565b506020820151610a1d6020850182610914565b506040820151610a306040850182610990565b50505050565b610a3f81610b65565b82525050565b6000602082019050610a5a6000830184610923565b92915050565b60006020820190508181036000830152610a7a8184610932565b905092915050565b6000602082019050610a97600083018461099f565b92915050565b60006020820190508181036000830152610ab6816109ae565b9050919050565b60006020820190508181036000830152610ad6816109d1565b9050919050565b6000819050602082019050919050565b600081519050919050565b6000602082019050919050565b600082825260208201905092915050565b600082825260208201905092915050565b6000610b3282610b45565b9050919050565b60008115159050919050565b600073ffffffffffffffffffffffffffffffffffffffff82169050919050565b6000819050919050565b6000610b7a82610b65565b91507fffffffffffffffffffffffffffffffffffffffffffffffffffffffffffffffff821415610bad57610bac610bb8565b5b600182019050919050565b7f4e487b7100000000000000000000000000000000000000000000000000000000600052601160045260246000fd5b7f4f776e61626c653a206e6577206f776e657220697320746865207a65726f206160008201527f6464726573730000000000000000000000000000000000000000000000000000602082015250565b7f4f776e61626c653a2063616c6c6572206973206e6f7420746865206f776e6572600082015250565b610c6881610b27565b8114610c7357600080fd5b50565b610c7f81610b39565b8114610c8a57600080fd5b50565b610c9681610b65565b8114610ca157600080fd5b5056fea2646970667358221220cfcf79f4f09b132430dde46a83a80869efd2469992dbc785843d657f6fd53f1d64736f6c63430008040033",
  "immutableReferences": {},
  "source": "// SPDX-License-Identifier: MIT\r\npragma solidity >=0.4.22 <0.9.0;\r\n\r\nimport \"@openzeppelin/contracts/access/Ownable.sol\";\r\nimport \"@openzeppelin/contracts/utils/Counters.sol\";\r\nimport \"@openzeppelin/contracts/token/ERC20/ERC20.sol\";\r\n\r\ncontract TransferExecutor is Ownable {\r\n    using Counters for Counters.Counter;\r\n    ///@dev payment whitelist index, start from 0\r\n    Counters.Counter private _paymentCurrencyCounter;\r\n\r\n    struct PaymentCurrency {\r\n        uint256 index;\r\n        address currencyAddress;\r\n        bool isAvailable;\r\n    }\r\n\r\n    ///@dev currency whitelist for payment on marketplace\r\n    mapping(uint256 => PaymentCurrency) private _paymentWhitelist;\r\n\r\n    event AddedWhitelist(uint256 indexed index, address indexed currency);\r\n    event UpdatedWhitelist(uint256 indexed index, address indexed currency, bool isAvailable);\r\n\r\n    \r\n    ///@dev Convention that the address of native token is 0\r\n    constructor() {\r\n        _addWhitelist(address(0));\r\n    }\r\n\r\n    function addWhitelist(address currency) external onlyOwner {\r\n        _addWhitelist(currency);\r\n    }\r\n\r\n    function _addWhitelist(address currency) internal {\r\n        uint256 index = _paymentCurrencyCounter.current();\r\n        _paymentWhitelist[index] = PaymentCurrency(index, currency, true);\r\n        _paymentCurrencyCounter.increment();\r\n        emit AddedWhitelist(index, currency);\r\n    }\r\n\r\n    function updateWhitelist(uint256 index, bool _isAvailable) external onlyOwner {\r\n        _paymentWhitelist[index].isAvailable = _isAvailable;\r\n        emit UpdatedWhitelist(index, _paymentWhitelist[index].currencyAddress, _paymentWhitelist[index].isAvailable);\r\n    }\r\n\r\n    function getWhitelist() external view returns (PaymentCurrency[] memory whitelist) {\r\n        uint256 numOfPaymentCurrencies = _paymentCurrencyCounter.current();\r\n        whitelist = new PaymentCurrency[](numOfPaymentCurrencies);\r\n\r\n        for (uint256 i = 0; i < numOfPaymentCurrencies; i++) {\r\n            whitelist[i] = _paymentWhitelist[i];\r\n        }\r\n    }\r\n\r\n    function isAvailable(address currency) internal view returns (bool) {\r\n        uint256 numOfPaymentCurrencies = _paymentCurrencyCounter.current();\r\n\r\n        for (uint256 i = 0; i < numOfPaymentCurrencies; i++) {\r\n            if (_paymentWhitelist[i].currencyAddress == currency && _paymentWhitelist[i].isAvailable == true) {\r\n                return true;\r\n            }\r\n        }\r\n        return false;\r\n    }\r\n\r\n    function _executePayment(\r\n        address currency,\r\n        uint256 amount,\r\n        address from,\r\n        address to\r\n    ) internal {\r\n        if (currency == address(0)) {\r\n            _transferEther(amount, payable(to));\r\n        } else {\r\n            IERC20 paymentToken = IERC20(currency);\r\n            paymentToken.transferFrom(from, to, amount);\r\n        }\r\n    }\r\n\r\n    function _transferEther(uint256 amount, address payable to) internal {\r\n        (bool success, ) = to.call{value: amount}(\"\");\r\n        require(success, \"TransferExecutor: Native token transfer failed\");\r\n    }\r\n}\r\n",
  "sourcePath": "E:\\LamViec\\STECH_Corp\\nft-marketplace\\src\\contracts\\contracts\\TransferExecutor.sol",
  "compiler": {
    "name": "solc",
    "version": "0.8.4+commit.c7e474f2.Emscripten.clang"
  },
  "schemaVersion": "3.4.4",
  "updatedAt": "2022-02-21T07:39:32.796Z",
  "devdoc": {
    "kind": "dev",
    "methods": {
      "constructor": {
        "details": "Convention that the address of native token is 0"
      },
      "owner()": {
        "details": "Returns the address of the current owner."
      },
      "renounceOwnership()": {
        "details": "Leaves the contract without owner. It will not be possible to call `onlyOwner` functions anymore. Can only be called by the current owner. NOTE: Renouncing ownership will leave the contract without an owner, thereby removing any functionality that is only available to the owner."
      },
      "transferOwnership(address)": {
        "details": "Transfers ownership of the contract to a new account (`newOwner`). Can only be called by the current owner."
      }
    },
    "stateVariables": {
      "_paymentCurrencyCounter": {
        "details": "payment whitelist index, start from 0"
      },
      "_paymentWhitelist": {
        "details": "currency whitelist for payment on marketplace"
      }
    },
    "version": 1
  },
  "userdoc": {
    "kind": "user",
    "methods": {},
    "version": 1
  }
}